{
	"contracts/nabla.sol": {
		"NABLASYSTEMS": {
			"abi": [
				{
					"inputs": [
						{
							"internalType": "address",
							"name": "spender",
							"type": "address"
						},
						{
							"internalType": "uint256",
							"name": "allowance",
							"type": "uint256"
						},
						{
							"internalType": "uint256",
							"name": "needed",
							"type": "uint256"
						}
					],
					"name": "ERC20InsufficientAllowance",
					"type": "error"
				},
				{
					"inputs": [
						{
							"internalType": "address",
							"name": "sender",
							"type": "address"
						},
						{
							"internalType": "uint256",
							"name": "balance",
							"type": "uint256"
						},
						{
							"internalType": "uint256",
							"name": "needed",
							"type": "uint256"
						}
					],
					"name": "ERC20InsufficientBalance",
					"type": "error"
				},
				{
					"inputs": [
						{
							"internalType": "address",
							"name": "approver",
							"type": "address"
						}
					],
					"name": "ERC20InvalidApprover",
					"type": "error"
				},
				{
					"inputs": [
						{
							"internalType": "address",
							"name": "receiver",
							"type": "address"
						}
					],
					"name": "ERC20InvalidReceiver",
					"type": "error"
				},
				{
					"inputs": [
						{
							"internalType": "address",
							"name": "sender",
							"type": "address"
						}
					],
					"name": "ERC20InvalidSender",
					"type": "error"
				},
				{
					"inputs": [
						{
							"internalType": "address",
							"name": "spender",
							"type": "address"
						}
					],
					"name": "ERC20InvalidSpender",
					"type": "error"
				},
				{
					"inputs": [],
					"name": "InvalidInitialization",
					"type": "error"
				},
				{
					"inputs": [],
					"name": "NotInitializing",
					"type": "error"
				},
				{
					"anonymous": false,
					"inputs": [
						{
							"indexed": true,
							"internalType": "address",
							"name": "owner",
							"type": "address"
						},
						{
							"indexed": true,
							"internalType": "address",
							"name": "spender",
							"type": "address"
						},
						{
							"indexed": false,
							"internalType": "uint256",
							"name": "value",
							"type": "uint256"
						}
					],
					"name": "Approval",
					"type": "event"
				},
				{
					"anonymous": false,
					"inputs": [
						{
							"indexed": false,
							"internalType": "uint64",
							"name": "version",
							"type": "uint64"
						}
					],
					"name": "Initialized",
					"type": "event"
				},
				{
					"anonymous": false,
					"inputs": [
						{
							"indexed": true,
							"internalType": "address",
							"name": "previousOwner",
							"type": "address"
						},
						{
							"indexed": true,
							"internalType": "address",
							"name": "newOwner",
							"type": "address"
						}
					],
					"name": "OwnershipTransferred",
					"type": "event"
				},
				{
					"anonymous": false,
					"inputs": [
						{
							"indexed": false,
							"internalType": "address",
							"name": "account",
							"type": "address"
						}
					],
					"name": "Paused",
					"type": "event"
				},
				{
					"anonymous": false,
					"inputs": [
						{
							"indexed": true,
							"internalType": "address",
							"name": "from",
							"type": "address"
						},
						{
							"indexed": true,
							"internalType": "address",
							"name": "to",
							"type": "address"
						},
						{
							"indexed": false,
							"internalType": "uint256",
							"name": "value",
							"type": "uint256"
						}
					],
					"name": "Transfer",
					"type": "event"
				},
				{
					"anonymous": false,
					"inputs": [
						{
							"indexed": false,
							"internalType": "address",
							"name": "account",
							"type": "address"
						}
					],
					"name": "Unpaused",
					"type": "event"
				},
				{
					"inputs": [
						{
							"internalType": "address",
							"name": "account",
							"type": "address"
						},
						{
							"internalType": "uint256",
							"name": "value",
							"type": "uint256"
						}
					],
					"name": "_burn",
					"outputs": [],
					"stateMutability": "nonpayable",
					"type": "function"
				},
				{
					"inputs": [
						{
							"internalType": "address",
							"name": "ownerAllow",
							"type": "address"
						},
						{
							"internalType": "address",
							"name": "spender",
							"type": "address"
						}
					],
					"name": "allowance",
					"outputs": [
						{
							"internalType": "uint256",
							"name": "",
							"type": "uint256"
						}
					],
					"stateMutability": "view",
					"type": "function"
				},
				{
					"inputs": [
						{
							"internalType": "address",
							"name": "spender",
							"type": "address"
						},
						{
							"internalType": "uint256",
							"name": "value",
							"type": "uint256"
						}
					],
					"name": "approve",
					"outputs": [
						{
							"internalType": "bool",
							"name": "",
							"type": "bool"
						}
					],
					"stateMutability": "nonpayable",
					"type": "function"
				},
				{
					"inputs": [
						{
							"internalType": "address",
							"name": "account",
							"type": "address"
						}
					],
					"name": "balanceOf",
					"outputs": [
						{
							"internalType": "uint256",
							"name": "",
							"type": "uint256"
						}
					],
					"stateMutability": "view",
					"type": "function"
				},
				{
					"inputs": [],
					"name": "decimals",
					"outputs": [
						{
							"internalType": "uint8",
							"name": "",
							"type": "uint8"
						}
					],
					"stateMutability": "view",
					"type": "function"
				},
				{
					"inputs": [
						{
							"internalType": "string",
							"name": "name_",
							"type": "string"
						},
						{
							"internalType": "string",
							"name": "symbol_",
							"type": "string"
						}
					],
					"name": "initialize",
					"outputs": [],
					"stateMutability": "nonpayable",
					"type": "function"
				},
				{
					"inputs": [],
					"name": "initialize",
					"outputs": [],
					"stateMutability": "nonpayable",
					"type": "function"
				},
				{
					"inputs": [
						{
							"internalType": "address",
							"name": "account",
							"type": "address"
						},
						{
							"internalType": "uint256",
							"name": "value",
							"type": "uint256"
						}
					],
					"name": "mint",
					"outputs": [],
					"stateMutability": "nonpayable",
					"type": "function"
				},
				{
					"inputs": [],
					"name": "name",
					"outputs": [
						{
							"internalType": "string",
							"name": "",
							"type": "string"
						}
					],
					"stateMutability": "view",
					"type": "function"
				},
				{
					"inputs": [],
					"name": "owner",
					"outputs": [
						{
							"internalType": "address",
							"name": "",
							"type": "address"
						}
					],
					"stateMutability": "view",
					"type": "function"
				},
				{
					"inputs": [],
					"name": "pauseContract",
					"outputs": [],
					"stateMutability": "nonpayable",
					"type": "function"
				},
				{
					"inputs": [],
					"name": "paused",
					"outputs": [
						{
							"internalType": "bool",
							"name": "",
							"type": "bool"
						}
					],
					"stateMutability": "view",
					"type": "function"
				},
				{
					"inputs": [],
					"name": "symbol",
					"outputs": [
						{
							"internalType": "string",
							"name": "",
							"type": "string"
						}
					],
					"stateMutability": "view",
					"type": "function"
				},
				{
					"inputs": [],
					"name": "totalSupply",
					"outputs": [
						{
							"internalType": "uint256",
							"name": "",
							"type": "uint256"
						}
					],
					"stateMutability": "view",
					"type": "function"
				},
				{
					"inputs": [
						{
							"internalType": "address",
							"name": "to",
							"type": "address"
						},
						{
							"internalType": "uint256",
							"name": "value",
							"type": "uint256"
						}
					],
					"name": "transfer",
					"outputs": [
						{
							"internalType": "bool",
							"name": "",
							"type": "bool"
						}
					],
					"stateMutability": "nonpayable",
					"type": "function"
				},
				{
					"inputs": [
						{
							"internalType": "address",
							"name": "from",
							"type": "address"
						},
						{
							"internalType": "address",
							"name": "to",
							"type": "address"
						},
						{
							"internalType": "uint256",
							"name": "value",
							"type": "uint256"
						}
					],
					"name": "transferFrom",
					"outputs": [
						{
							"internalType": "bool",
							"name": "",
							"type": "bool"
						}
					],
					"stateMutability": "nonpayable",
					"type": "function"
				},
				{
					"inputs": [
						{
							"internalType": "address",
							"name": "newOwner",
							"type": "address"
						}
					],
					"name": "transferOwnership",
					"outputs": [],
					"stateMutability": "nonpayable",
					"type": "function"
				},
				{
					"inputs": [],
					"name": "unpauseContract",
					"outputs": [],
					"stateMutability": "nonpayable",
					"type": "function"
				}
			],
			"devdoc": {
				"details": "Implementation of the {IERC20} interface. This implementation is agnostic to the way tokens are created. This means that a supply mechanism has to be added in a derived contract using {_mint}. TIP: For a detailed writeup see our guide https://forum.openzeppelin.com/t/how-to-implement-erc20-supply-mechanisms/226[How to implement supply mechanisms]. The default value of {decimals} is 18. To change this, you should override this function so it returns a different value. We have followed general OpenZeppelin Contracts guidelines: functions revert instead returning `false` on failure. This behavior is nonetheless conventional and does not conflict with the expectations of ERC-20 applications.",
				"errors": {
					"ERC20InsufficientAllowance(address,uint256,uint256)": [
						{
							"details": "Indicates a failure with the `spender`’s `allowance`. Used in transfers.",
							"params": {
								"allowance": "Amount of tokens a `spender` is allowed to operate with.",
								"needed": "Minimum amount required to perform a transfer.",
								"spender": "Address that may be allowed to operate on tokens without being their owner."
							}
						}
					],
					"ERC20InsufficientBalance(address,uint256,uint256)": [
						{
							"details": "Indicates an error related to the current `balance` of a `sender`. Used in transfers.",
							"params": {
								"balance": "Current balance for the interacting account.",
								"needed": "Minimum amount required to perform a transfer.",
								"sender": "Address whose tokens are being transferred."
							}
						}
					],
					"ERC20InvalidApprover(address)": [
						{
							"details": "Indicates a failure with the `approver` of a token to be approved. Used in approvals.",
							"params": {
								"approver": "Address initiating an approval operation."
							}
						}
					],
					"ERC20InvalidReceiver(address)": [
						{
							"details": "Indicates a failure with the token `receiver`. Used in transfers.",
							"params": {
								"receiver": "Address to which tokens are being transferred."
							}
						}
					],
					"ERC20InvalidSender(address)": [
						{
							"details": "Indicates a failure with the token `sender`. Used in transfers.",
							"params": {
								"sender": "Address whose tokens are being transferred."
							}
						}
					],
					"ERC20InvalidSpender(address)": [
						{
							"details": "Indicates a failure with the `spender` to be approved. Used in approvals.",
							"params": {
								"spender": "Address that may be allowed to operate on tokens without being their owner."
							}
						}
					],
					"InvalidInitialization()": [
						{
							"details": "The contract is already initialized."
						}
					],
					"NotInitializing()": [
						{
							"details": "The contract is not initializing."
						}
					]
				},
				"events": {
					"Approval(address,address,uint256)": {
						"details": "Emitted when the allowance of a `spender` for an `owner` is set by a call to {approve}. `value` is the new allowance."
					},
					"Initialized(uint64)": {
						"details": "Triggered when the contract has been initialized or reinitialized."
					},
					"Paused(address)": {
						"details": "Emitted when the pause is triggered by `account`."
					},
					"Transfer(address,address,uint256)": {
						"details": "Emitted when `value` tokens are moved from one account (`from`) to another (`to`). Note that `value` may be zero."
					},
					"Unpaused(address)": {
						"details": "Emitted when the pause is lifted by `account`."
					}
				},
				"kind": "dev",
				"methods": {
					"_burn(address,uint256)": {
						"details": "Destroys a `value` amount of tokens from `account`, lowering the total supply. Relies on the `_update` mechanism. Emits a {Transfer} event with `to` set to the zero address. NOTE: This function is not virtual, {_update} should be overridden instead"
					},
					"allowance(address,address)": {
						"details": "See {IERC20-allowance}."
					},
					"approve(address,uint256)": {
						"details": "See {IERC20-approve}. NOTE: If `value` is the maximum `uint256`, the allowance is not updated on `transferFrom`. This is semantically equivalent to an infinite approval. Requirements: - `spender` cannot be the zero address."
					},
					"balanceOf(address)": {
						"details": "See {IERC20-balanceOf}."
					},
					"decimals()": {
						"details": "Returns the number of decimals used to get its user representation. For example, if `decimals` equals `2`, a balance of `505` tokens should be displayed to a user as `5.05` (`505 / 10 ** 2`). Tokens usually opt for a value of 18, imitating the relationship between Ether and Wei. This is the default value returned by this function, unless it's overridden. NOTE: This information is only used for _display_ purposes: it in no way affects any of the arithmetic of the contract, including {IERC20-balanceOf} and {IERC20-transfer}."
					},
					"initialize()": {
						"details": "Initializes the contract in unpaused state."
					},
					"initialize(string,string)": {
						"details": "Sets the values for {name} and {symbol}. All two of these values are immutable: they can only be set once during construction."
					},
					"name()": {
						"details": "Returns the name of the token."
					},
					"paused()": {
						"details": "Returns true if the contract is paused, and false otherwise."
					},
					"symbol()": {
						"details": "Returns the symbol of the token, usually a shorter version of the name."
					},
					"totalSupply()": {
						"details": "See {IERC20-totalSupply}."
					},
					"transfer(address,uint256)": {
						"details": "See {IERC20-transfer}. Requirements: - `to` cannot be the zero address. - the caller must have a balance of at least `value`."
					},
					"transferFrom(address,address,uint256)": {
						"details": "See {IERC20-transferFrom}. Skips emitting an {Approval} event indicating an allowance update. This is not required by the ERC. See {xref-ERC20-_approve-address-address-uint256-bool-}[_approve]. NOTE: Does not update the allowance if the current allowance is the maximum `uint256`. Requirements: - `from` and `to` cannot be the zero address. - `from` must have a balance of at least `value`. - the caller must have allowance for ``from``'s tokens of at least `value`."
					}
				},
				"version": 1
			},
			"evm": {
				"assembly": "    /* \"contracts/nabla.sol\":1193:12956  contract NABLASYSTEMS is Initializable, IERC20, IERC20Metadata, IERC20Errors, Pausable{... */\n  mstore(0x40, 0x80)\n  callvalue\n  dup1\n  iszero\n  tag_1\n  jumpi\n  0x00\n  dup1\n  revert\ntag_1:\n  pop\n  dataSize(sub_0)\n  dup1\n  dataOffset(sub_0)\n  0x00\n  codecopy\n  0x00\n  return\nstop\n\nsub_0: assembly {\n        /* \"contracts/nabla.sol\":1193:12956  contract NABLASYSTEMS is Initializable, IERC20, IERC20Metadata, IERC20Errors, Pausable{... */\n      mstore(0x40, 0x80)\n      callvalue\n      dup1\n      iszero\n      tag_1\n      jumpi\n      0x00\n      dup1\n      revert\n    tag_1:\n      pop\n      jumpi(tag_2, lt(calldatasize, 0x04))\n      shr(0xe0, calldataload(0x00))\n      dup1\n      0x6161eb18\n      gt\n      tag_21\n      jumpi\n      dup1\n      0x95d89b41\n      gt\n      tag_22\n      jumpi\n      dup1\n      0x95d89b41\n      eq\n      tag_16\n      jumpi\n      dup1\n      0xa9059cbb\n      eq\n      tag_17\n      jumpi\n      dup1\n      0xb33712c5\n      eq\n      tag_18\n      jumpi\n      dup1\n      0xdd62ed3e\n      eq\n      tag_19\n      jumpi\n      dup1\n      0xf2fde38b\n      eq\n      tag_20\n      jumpi\n      jump(tag_2)\n    tag_22:\n      dup1\n      0x6161eb18\n      eq\n      tag_12\n      jumpi\n      dup1\n      0x70a08231\n      eq\n      tag_13\n      jumpi\n      dup1\n      0x8129fc1c\n      eq\n      tag_14\n      jumpi\n      dup1\n      0x8da5cb5b\n      eq\n      tag_15\n      jumpi\n      jump(tag_2)\n    tag_21:\n      dup1\n      0x313ce567\n      gt\n      tag_23\n      jumpi\n      dup1\n      0x313ce567\n      eq\n      tag_7\n      jumpi\n      dup1\n      0x40c10f19\n      eq\n      tag_8\n      jumpi\n      dup1\n      0x439766ce\n      eq\n      tag_9\n      jumpi\n      dup1\n      0x4cd88b76\n      eq\n      tag_10\n      jumpi\n      dup1\n      0x5c975abb\n      eq\n      tag_11\n      jumpi\n      jump(tag_2)\n    tag_23:\n      dup1\n      0x06fdde03\n      eq\n      tag_3\n      jumpi\n      dup1\n      0x095ea7b3\n      eq\n      tag_4\n      jumpi\n      dup1\n      0x18160ddd\n      eq\n      tag_5\n      jumpi\n      dup1\n      0x23b872dd\n      eq\n      tag_6\n      jumpi\n    tag_2:\n      0x00\n      dup1\n      revert\n        /* \"contracts/nabla.sol\":2275:2366  function name() public view virtual returns (string memory) {... */\n    tag_3:\n      tag_24\n      tag_25\n      jump\t// in\n    tag_24:\n      mload(0x40)\n      tag_26\n      swap2\n      swap1\n      tag_27\n      jump\t// in\n    tag_26:\n      mload(0x40)\n      dup1\n      swap2\n      sub\n      swap1\n      return\n        /* \"contracts/nabla.sol\":4622:4819  function approve(address spender, uint256 value) public virtual returns (bool) {... */\n    tag_4:\n      tag_28\n      0x04\n      dup1\n      calldatasize\n      sub\n      dup2\n      add\n      swap1\n      tag_29\n      swap2\n      swap1\n      tag_30\n      jump\t// in\n    tag_29:\n      tag_31\n      jump\t// in\n    tag_28:\n      mload(0x40)\n      tag_32\n      swap2\n      swap1\n      tag_33\n      jump\t// in\n    tag_32:\n      mload(0x40)\n      dup1\n      swap2\n      sub\n      swap1\n      return\n        /* \"contracts/nabla.sol\":3382:3481  function totalSupply() public view virtual returns (uint256) {... */\n    tag_5:\n      tag_34\n      tag_35\n      jump\t// in\n    tag_34:\n      mload(0x40)\n      tag_36\n      swap2\n      swap1\n      tag_37\n      jump\t// in\n    tag_36:\n      mload(0x40)\n      dup1\n      swap2\n      sub\n      swap1\n      return\n        /* \"contracts/nabla.sol\":5678:5951  function transferFrom(address from, address to, uint256 value) public virtual  override whenNotPaused returns (bool) {... */\n    tag_6:\n      tag_38\n      0x04\n      dup1\n      calldatasize\n      sub\n      dup2\n      add\n      swap1\n      tag_39\n      swap2\n      swap1\n      tag_40\n      jump\t// in\n    tag_39:\n      tag_41\n      jump\t// in\n    tag_38:\n      mload(0x40)\n      tag_42\n      swap2\n      swap1\n      tag_33\n      jump\t// in\n    tag_42:\n      mload(0x40)\n      dup1\n      swap2\n      sub\n      swap1\n      return\n        /* \"contracts/nabla.sol\":3226:3317  function decimals() public view virtual returns (uint8) {... */\n    tag_7:\n      tag_43\n      tag_44\n      jump\t// in\n    tag_43:\n      mload(0x40)\n      tag_45\n      swap2\n      swap1\n      tag_46\n      jump\t// in\n    tag_45:\n      mload(0x40)\n      dup1\n      swap2\n      sub\n      swap1\n      return\n        /* \"contracts/nabla.sol\":4827:4936  function mint(address account, uint256 value) public onlyOwner whenNotPaused {... */\n    tag_8:\n      tag_47\n      0x04\n      dup1\n      calldatasize\n      sub\n      dup2\n      add\n      swap1\n      tag_48\n      swap2\n      swap1\n      tag_30\n      jump\t// in\n    tag_48:\n      tag_49\n      jump\t// in\n    tag_47:\n      stop\n        /* \"contracts/nabla.sol\":12740:12811  function pauseContract() external onlyOwner {... */\n    tag_9:\n      tag_50\n      tag_51\n      jump\t// in\n    tag_50:\n      stop\n        /* \"contracts/nabla.sol\":1790:2205  function initialize(string memory name_, string memory symbol_) public {... */\n    tag_10:\n      tag_52\n      0x04\n      dup1\n      calldatasize\n      sub\n      dup2\n      add\n      swap1\n      tag_53\n      swap2\n      swap1\n      tag_54\n      jump\t// in\n    tag_53:\n      tag_55\n      jump\t// in\n    tag_52:\n      stop\n        /* \"contracts/Pausable.sol\":1088:1174  function paused() public view virtual returns (bool) {... */\n    tag_11:\n      tag_56\n      tag_57\n      jump\t// in\n    tag_56:\n      mload(0x40)\n      tag_58\n      swap2\n      swap1\n      tag_33\n      jump\t// in\n    tag_58:\n      mload(0x40)\n      dup1\n      swap2\n      sub\n      swap1\n      return\n        /* \"contracts/nabla.sol\":9539:9749  function _burn(address account, uint256 value) public  {... */\n    tag_12:\n      tag_59\n      0x04\n      dup1\n      calldatasize\n      sub\n      dup2\n      add\n      swap1\n      tag_60\n      swap2\n      swap1\n      tag_30\n      jump\t// in\n    tag_60:\n      tag_61\n      jump\t// in\n    tag_59:\n      stop\n        /* \"contracts/nabla.sol\":3544:3662  function balanceOf(address account) public view virtual returns (uint256) {... */\n    tag_13:\n      tag_62\n      0x04\n      dup1\n      calldatasize\n      sub\n      dup2\n      add\n      swap1\n      tag_63\n      swap2\n      swap1\n      tag_64\n      jump\t// in\n    tag_63:\n      tag_65\n      jump\t// in\n    tag_62:\n      mload(0x40)\n      tag_66\n      swap2\n      swap1\n      tag_37\n      jump\t// in\n    tag_66:\n      mload(0x40)\n      dup1\n      swap2\n      sub\n      swap1\n      return\n        /* \"contracts/Pausable.sol\":924:988  function initialize () public {... */\n    tag_14:\n      tag_67\n      tag_68\n      jump\t// in\n    tag_67:\n      stop\n        /* \"contracts/nabla.sol\":6006:6085  function owner() public view returns (address) {... */\n    tag_15:\n      tag_69\n      tag_70\n      jump\t// in\n    tag_69:\n      mload(0x40)\n      tag_71\n      swap2\n      swap1\n      tag_72\n      jump\t// in\n    tag_71:\n      mload(0x40)\n      dup1\n      swap2\n      sub\n      swap1\n      return\n        /* \"contracts/nabla.sol\":2485:2580  function symbol() public view virtual returns (string memory) {... */\n    tag_16:\n      tag_73\n      tag_74\n      jump\t// in\n    tag_73:\n      mload(0x40)\n      tag_75\n      swap2\n      swap1\n      tag_27\n      jump\t// in\n    tag_75:\n      mload(0x40)\n      dup1\n      swap2\n      sub\n      swap1\n      return\n        /* \"contracts/nabla.sol\":3867:4088  function transfer(address to, uint256 value) public virtual override  whenNotPaused returns (bool) {... */\n    tag_17:\n      tag_76\n      0x04\n      dup1\n      calldatasize\n      sub\n      dup2\n      add\n      swap1\n      tag_77\n      swap2\n      swap1\n      tag_30\n      jump\t// in\n    tag_77:\n      tag_78\n      jump\t// in\n    tag_76:\n      mload(0x40)\n      tag_79\n      swap2\n      swap1\n      tag_33\n      jump\t// in\n    tag_79:\n      mload(0x40)\n      dup1\n      swap2\n      sub\n      swap1\n      return\n        /* \"contracts/nabla.sol\":12876:12951  function unpauseContract() external onlyOwner {... */\n    tag_18:\n      tag_80\n      tag_81\n      jump\t// in\n    tag_80:\n      stop\n        /* \"contracts/nabla.sol\":4151:4303  function allowance(address ownerAllow, address spender) public view virtual returns (uint256) {... */\n    tag_19:\n      tag_82\n      0x04\n      dup1\n      calldatasize\n      sub\n      dup2\n      add\n      swap1\n      tag_83\n      swap2\n      swap1\n      tag_84\n      jump\t// in\n    tag_83:\n      tag_85\n      jump\t// in\n    tag_82:\n      mload(0x40)\n      tag_86\n      swap2\n      swap1\n      tag_37\n      jump\t// in\n    tag_86:\n      mload(0x40)\n      dup1\n      swap2\n      sub\n      swap1\n      return\n        /* \"contracts/nabla.sol\":6140:6397  function transferOwnership(address newOwner) public onlyOwner {... */\n    tag_20:\n      tag_87\n      0x04\n      dup1\n      calldatasize\n      sub\n      dup2\n      add\n      swap1\n      tag_88\n      swap2\n      swap1\n      tag_64\n      jump\t// in\n    tag_88:\n      tag_89\n      jump\t// in\n    tag_87:\n      stop\n        /* \"contracts/nabla.sol\":2275:2366  function name() public view virtual returns (string memory) {... */\n    tag_25:\n        /* \"contracts/nabla.sol\":2320:2333  string memory */\n      0x60\n        /* \"contracts/nabla.sol\":2353:2358  _name */\n      0x04\n        /* \"contracts/nabla.sol\":2346:2358  return _name */\n      dup1\n      sload\n      tag_91\n      swap1\n      tag_92\n      jump\t// in\n    tag_91:\n      dup1\n      0x1f\n      add\n      0x20\n      dup1\n      swap2\n      div\n      mul\n      0x20\n      add\n      mload(0x40)\n      swap1\n      dup2\n      add\n      0x40\n      mstore\n      dup1\n      swap3\n      swap2\n      swap1\n      dup2\n      dup2\n      mstore\n      0x20\n      add\n      dup3\n      dup1\n      sload\n      tag_93\n      swap1\n      tag_92\n      jump\t// in\n    tag_93:\n      dup1\n      iszero\n      tag_94\n      jumpi\n      dup1\n      0x1f\n      lt\n      tag_95\n      jumpi\n      0x0100\n      dup1\n      dup4\n      sload\n      div\n      mul\n      dup4\n      mstore\n      swap2\n      0x20\n      add\n      swap2\n      jump(tag_94)\n    tag_95:\n      dup3\n      add\n      swap2\n      swap1\n      0x00\n      mstore\n      keccak256(0x00, 0x20)\n      swap1\n    tag_96:\n      dup2\n      sload\n      dup2\n      mstore\n      swap1\n      0x01\n      add\n      swap1\n      0x20\n      add\n      dup1\n      dup4\n      gt\n      tag_96\n      jumpi\n      dup3\n      swap1\n      sub\n      0x1f\n      and\n      dup3\n      add\n      swap2\n    tag_94:\n      pop\n      pop\n      pop\n      pop\n      pop\n      swap1\n      pop\n        /* \"contracts/nabla.sol\":2275:2366  function name() public view virtual returns (string memory) {... */\n      swap1\n      jump\t// out\n        /* \"contracts/nabla.sol\":4622:4819  function approve(address spender, uint256 value) public virtual returns (bool) {... */\n    tag_31:\n        /* \"contracts/nabla.sol\":4695:4699  bool */\n      0x00\n        /* \"contracts/nabla.sol\":4722:4758  _approve(msg.sender, spender, value) */\n      tag_98\n        /* \"contracts/nabla.sol\":4731:4741  msg.sender */\n      caller\n        /* \"contracts/nabla.sol\":4743:4750  spender */\n      dup5\n        /* \"contracts/nabla.sol\":4752:4757  value */\n      dup5\n        /* \"contracts/nabla.sol\":4722:4730  _approve */\n      tag_99\n        /* \"contracts/nabla.sol\":4722:4758  _approve(msg.sender, spender, value) */\n      jump\t// in\n    tag_98:\n        /* \"contracts/nabla.sol\":4807:4811  true */\n      0x01\n        /* \"contracts/nabla.sol\":4800:4811  return true */\n      swap1\n      pop\n        /* \"contracts/nabla.sol\":4622:4819  function approve(address spender, uint256 value) public virtual returns (bool) {... */\n      swap3\n      swap2\n      pop\n      pop\n      jump\t// out\n        /* \"contracts/nabla.sol\":3382:3481  function totalSupply() public view virtual returns (uint256) {... */\n    tag_35:\n        /* \"contracts/nabla.sol\":3434:3441  uint256 */\n      0x00\n        /* \"contracts/nabla.sol\":3461:3473  _totalSupply */\n      sload(0x03)\n        /* \"contracts/nabla.sol\":3454:3473  return _totalSupply */\n      swap1\n      pop\n        /* \"contracts/nabla.sol\":3382:3481  function totalSupply() public view virtual returns (uint256) {... */\n      swap1\n      jump\t// out\n        /* \"contracts/nabla.sol\":5678:5951  function transferFrom(address from, address to, uint256 value) public virtual  override whenNotPaused returns (bool) {... */\n    tag_41:\n        /* \"contracts/nabla.sol\":5789:5793  bool */\n      0x00\n        /* \"contracts/Pausable.sol\":1414:1422  paused() */\n      tag_102\n        /* \"contracts/Pausable.sol\":1414:1420  paused */\n      tag_57\n        /* \"contracts/Pausable.sol\":1414:1422  paused() */\n      jump\t// in\n    tag_102:\n        /* \"contracts/Pausable.sol\":1413:1422  !paused() */\n      iszero\n        /* \"contracts/Pausable.sol\":1405:1443  require(!paused(), \"Pausable: paused\") */\n      tag_103\n      jumpi\n      mload(0x40)\n      0x08c379a000000000000000000000000000000000000000000000000000000000\n      dup2\n      mstore\n      0x04\n      add\n      tag_104\n      swap1\n      tag_105\n      jump\t// in\n    tag_104:\n      mload(0x40)\n      dup1\n      swap2\n      sub\n      swap1\n      revert\n    tag_103:\n        /* \"contracts/nabla.sol\":5806:5821  address spender */\n      0x00\n        /* \"contracts/nabla.sol\":5824:5836  _msgSender() */\n      tag_107\n        /* \"contracts/nabla.sol\":5824:5834  _msgSender */\n      tag_108\n        /* \"contracts/nabla.sol\":5824:5836  _msgSender() */\n      jump\t// in\n    tag_107:\n        /* \"contracts/nabla.sol\":5806:5836  address spender = _msgSender() */\n      swap1\n      pop\n        /* \"contracts/nabla.sol\":5847:5884  _spendAllowance(from, spender, value) */\n      tag_109\n        /* \"contracts/nabla.sol\":5863:5867  from */\n      dup6\n        /* \"contracts/nabla.sol\":5869:5876  spender */\n      dup3\n        /* \"contracts/nabla.sol\":5878:5883  value */\n      dup6\n        /* \"contracts/nabla.sol\":5847:5862  _spendAllowance */\n      tag_110\n        /* \"contracts/nabla.sol\":5847:5884  _spendAllowance(from, spender, value) */\n      jump\t// in\n    tag_109:\n        /* \"contracts/nabla.sol\":5895:5921  _transfer(from, to, value) */\n      tag_111\n        /* \"contracts/nabla.sol\":5905:5909  from */\n      dup6\n        /* \"contracts/nabla.sol\":5911:5913  to */\n      dup6\n        /* \"contracts/nabla.sol\":5915:5920  value */\n      dup6\n        /* \"contracts/nabla.sol\":5895:5904  _transfer */\n      tag_112\n        /* \"contracts/nabla.sol\":5895:5921  _transfer(from, to, value) */\n      jump\t// in\n    tag_111:\n        /* \"contracts/nabla.sol\":5939:5943  true */\n      0x01\n        /* \"contracts/nabla.sol\":5932:5943  return true */\n      swap2\n      pop\n      pop\n        /* \"contracts/nabla.sol\":5678:5951  function transferFrom(address from, address to, uint256 value) public virtual  override whenNotPaused returns (bool) {... */\n      swap4\n      swap3\n      pop\n      pop\n      pop\n      jump\t// out\n        /* \"contracts/nabla.sol\":3226:3317  function decimals() public view virtual returns (uint8) {... */\n    tag_44:\n        /* \"contracts/nabla.sol\":3275:3280  uint8 */\n      0x00\n        /* \"contracts/nabla.sol\":1473:1475  18 */\n      0x12\n        /* \"contracts/nabla.sol\":3293:3309  return _decimals */\n      swap1\n      pop\n        /* \"contracts/nabla.sol\":3226:3317  function decimals() public view virtual returns (uint8) {... */\n      swap1\n      jump\t// out\n        /* \"contracts/nabla.sol\":4827:4936  function mint(address account, uint256 value) public onlyOwner whenNotPaused {... */\n    tag_49:\n        /* \"contracts/nabla.sol\":5006:5012  _owner */\n      0x06\n      0x00\n      swap1\n      sload\n      swap1\n      0x0100\n      exp\n      swap1\n      div\n      0xffffffffffffffffffffffffffffffffffffffff\n      and\n        /* \"contracts/nabla.sol\":4992:5012  msg.sender == _owner */\n      0xffffffffffffffffffffffffffffffffffffffff\n      and\n        /* \"contracts/nabla.sol\":4992:5002  msg.sender */\n      caller\n        /* \"contracts/nabla.sol\":4992:5012  msg.sender == _owner */\n      0xffffffffffffffffffffffffffffffffffffffff\n      and\n      eq\n        /* \"contracts/nabla.sol\":4984:5050  require(msg.sender == _owner, \"Only owner can call this function\") */\n      tag_115\n      jumpi\n      mload(0x40)\n      0x08c379a000000000000000000000000000000000000000000000000000000000\n      dup2\n      mstore\n      0x04\n      add\n      tag_116\n      swap1\n      tag_117\n      jump\t// in\n    tag_116:\n      mload(0x40)\n      dup1\n      swap2\n      sub\n      swap1\n      revert\n    tag_115:\n        /* \"contracts/Pausable.sol\":1414:1422  paused() */\n      tag_119\n        /* \"contracts/Pausable.sol\":1414:1420  paused */\n      tag_57\n        /* \"contracts/Pausable.sol\":1414:1422  paused() */\n      jump\t// in\n    tag_119:\n        /* \"contracts/Pausable.sol\":1413:1422  !paused() */\n      iszero\n        /* \"contracts/Pausable.sol\":1405:1443  require(!paused(), \"Pausable: paused\") */\n      tag_120\n      jumpi\n      mload(0x40)\n      0x08c379a000000000000000000000000000000000000000000000000000000000\n      dup2\n      mstore\n      0x04\n      add\n      tag_121\n      swap1\n      tag_105\n      jump\t// in\n    tag_121:\n      mload(0x40)\n      dup1\n      swap2\n      sub\n      swap1\n      revert\n    tag_120:\n        /* \"contracts/nabla.sol\":4911:4932  _mint(account, value) */\n      tag_123\n        /* \"contracts/nabla.sol\":4917:4924  account */\n      dup3\n        /* \"contracts/nabla.sol\":4926:4931  value */\n      dup3\n        /* \"contracts/nabla.sol\":4911:4916  _mint */\n      tag_124\n        /* \"contracts/nabla.sol\":4911:4932  _mint(account, value) */\n      jump\t// in\n    tag_123:\n        /* \"contracts/nabla.sol\":4827:4936  function mint(address account, uint256 value) public onlyOwner whenNotPaused {... */\n      pop\n      pop\n      jump\t// out\n        /* \"contracts/nabla.sol\":12740:12811  function pauseContract() external onlyOwner {... */\n    tag_51:\n        /* \"contracts/nabla.sol\":5006:5012  _owner */\n      0x06\n      0x00\n      swap1\n      sload\n      swap1\n      0x0100\n      exp\n      swap1\n      div\n      0xffffffffffffffffffffffffffffffffffffffff\n      and\n        /* \"contracts/nabla.sol\":4992:5012  msg.sender == _owner */\n      0xffffffffffffffffffffffffffffffffffffffff\n      and\n        /* \"contracts/nabla.sol\":4992:5002  msg.sender */\n      caller\n        /* \"contracts/nabla.sol\":4992:5012  msg.sender == _owner */\n      0xffffffffffffffffffffffffffffffffffffffff\n      and\n      eq\n        /* \"contracts/nabla.sol\":4984:5050  require(msg.sender == _owner, \"Only owner can call this function\") */\n      tag_126\n      jumpi\n      mload(0x40)\n      0x08c379a000000000000000000000000000000000000000000000000000000000\n      dup2\n      mstore\n      0x04\n      add\n      tag_127\n      swap1\n      tag_117\n      jump\t// in\n    tag_127:\n      mload(0x40)\n      dup1\n      swap2\n      sub\n      swap1\n      revert\n    tag_126:\n        /* \"contracts/nabla.sol\":12795:12803  _pause() */\n      tag_129\n        /* \"contracts/nabla.sol\":12795:12801  _pause */\n      tag_130\n        /* \"contracts/nabla.sol\":12795:12803  _pause() */\n      jump\t// in\n    tag_129:\n        /* \"contracts/nabla.sol\":12740:12811  function pauseContract() external onlyOwner {... */\n      jump\t// out\n        /* \"contracts/nabla.sol\":1790:2205  function initialize(string memory name_, string memory symbol_) public {... */\n    tag_55:\n        /* \"contracts/nabla.sol\":1918:1923  name_ */\n      dup2\n        /* \"contracts/nabla.sol\":1910:1915  _name */\n      0x04\n        /* \"contracts/nabla.sol\":1910:1923  _name = name_ */\n      swap1\n      dup2\n      tag_132\n      swap2\n      swap1\n      tag_133\n      jump\t// in\n    tag_132:\n      pop\n        /* \"contracts/nabla.sol\":1944:1951  symbol_ */\n      dup1\n        /* \"contracts/nabla.sol\":1934:1941  _symbol */\n      0x05\n        /* \"contracts/nabla.sol\":1934:1951  _symbol = symbol_ */\n      swap1\n      dup2\n      tag_134\n      swap2\n      swap1\n      tag_133\n      jump\t// in\n    tag_134:\n      pop\n        /* \"contracts/nabla.sol\":1971:1981  msg.sender */\n      caller\n        /* \"contracts/nabla.sol\":1962:1968  _owner */\n      0x06\n      0x00\n        /* \"contracts/nabla.sol\":1962:1981  _owner = msg.sender */\n      0x0100\n      exp\n      dup2\n      sload\n      dup2\n      0xffffffffffffffffffffffffffffffffffffffff\n      mul\n      not\n      and\n      swap1\n      dup4\n      0xffffffffffffffffffffffffffffffffffffffff\n      and\n      mul\n      or\n      swap1\n      sstore\n      pop\n        /* \"contracts/nabla.sol\":1473:1475  18 */\n      0x12\n        /* \"contracts/nabla.sol\":2053:2055  10 */\n      0x0a\n        /* \"contracts/nabla.sol\":2053:2066  10**_decimals */\n      tag_135\n      swap2\n      swap1\n      tag_136\n      jump\t// in\n    tag_135:\n        /* \"contracts/nabla.sol\":2040:2050  1000000000 */\n      0x3b9aca00\n        /* \"contracts/nabla.sol\":2040:2066  1000000000 * 10**_decimals */\n      tag_137\n      swap2\n      swap1\n      tag_138\n      jump\t// in\n    tag_137:\n        /* \"contracts/nabla.sol\":2025:2037  _totalSupply */\n      0x03\n        /* \"contracts/nabla.sol\":2025:2066  _totalSupply = 1000000000 * 10**_decimals */\n      dup2\n      swap1\n      sstore\n      pop\n        /* \"contracts/nabla.sol\":2117:2129  _totalSupply */\n      sload(0x03)\n        /* \"contracts/nabla.sol\":2097:2106  _balances */\n      0x01\n        /* \"contracts/nabla.sol\":2097:2114  _balances[_owner] */\n      0x00\n        /* \"contracts/nabla.sol\":2107:2113  _owner */\n      0x06\n      0x00\n      swap1\n      sload\n      swap1\n      0x0100\n      exp\n      swap1\n      div\n      0xffffffffffffffffffffffffffffffffffffffff\n      and\n        /* \"contracts/nabla.sol\":2097:2114  _balances[_owner] */\n      0xffffffffffffffffffffffffffffffffffffffff\n      and\n      0xffffffffffffffffffffffffffffffffffffffff\n      and\n      dup2\n      mstore\n      0x20\n      add\n      swap1\n      dup2\n      mstore\n      0x20\n      add\n      0x00\n      keccak256\n        /* \"contracts/nabla.sol\":2097:2129  _balances[_owner] = _totalSupply */\n      dup2\n      swap1\n      sstore\n      pop\n        /* \"contracts/nabla.sol\":2166:2172  _owner */\n      0x06\n      0x00\n      swap1\n      sload\n      swap1\n      0x0100\n      exp\n      swap1\n      div\n      0xffffffffffffffffffffffffffffffffffffffff\n      and\n        /* \"contracts/nabla.sol\":2145:2187  Transfer(address(0), _owner, _totalSupply) */\n      0xffffffffffffffffffffffffffffffffffffffff\n      and\n        /* \"contracts/nabla.sol\":2162:2163  0 */\n      0x00\n        /* \"contracts/nabla.sol\":2145:2187  Transfer(address(0), _owner, _totalSupply) */\n      0xffffffffffffffffffffffffffffffffffffffff\n      and\n      0xddf252ad1be2c89b69c2b068fc378daa952ba7f163c4a11628f55a4df523b3ef\n        /* \"contracts/nabla.sol\":2174:2186  _totalSupply */\n      sload(0x03)\n        /* \"contracts/nabla.sol\":2145:2187  Transfer(address(0), _owner, _totalSupply) */\n      mload(0x40)\n      tag_139\n      swap2\n      swap1\n      tag_37\n      jump\t// in\n    tag_139:\n      mload(0x40)\n      dup1\n      swap2\n      sub\n      swap1\n      log3\n        /* \"contracts/nabla.sol\":1790:2205  function initialize(string memory name_, string memory symbol_) public {... */\n      pop\n      pop\n      jump\t// out\n        /* \"contracts/Pausable.sol\":1088:1174  function paused() public view virtual returns (bool) {... */\n    tag_57:\n        /* \"contracts/Pausable.sol\":1135:1139  bool */\n      0x00\n        /* \"contracts/Pausable.sol\":1159:1166  _paused */\n      dup1\n      0x00\n      swap1\n      sload\n      swap1\n      0x0100\n      exp\n      swap1\n      div\n      0xff\n      and\n        /* \"contracts/Pausable.sol\":1152:1166  return _paused */\n      swap1\n      pop\n        /* \"contracts/Pausable.sol\":1088:1174  function paused() public view virtual returns (bool) {... */\n      swap1\n      jump\t// out\n        /* \"contracts/nabla.sol\":9539:9749  function _burn(address account, uint256 value) public  {... */\n    tag_61:\n        /* \"contracts/nabla.sol\":9628:9629  0 */\n      0x00\n        /* \"contracts/nabla.sol\":9609:9630  account == address(0) */\n      0xffffffffffffffffffffffffffffffffffffffff\n      and\n        /* \"contracts/nabla.sol\":9609:9616  account */\n      dup3\n        /* \"contracts/nabla.sol\":9609:9630  account == address(0) */\n      0xffffffffffffffffffffffffffffffffffffffff\n      and\n      sub\n        /* \"contracts/nabla.sol\":9605:9696  if (account == address(0)) {... */\n      tag_142\n      jumpi\n        /* \"contracts/nabla.sol\":9681:9682  0 */\n      0x00\n        /* \"contracts/nabla.sol\":9654:9684  ERC20InvalidSender(address(0)) */\n      mload(0x40)\n      0x96c6fd1e00000000000000000000000000000000000000000000000000000000\n      dup2\n      mstore\n      0x04\n      add\n      tag_143\n      swap2\n      swap1\n      tag_72\n      jump\t// in\n    tag_143:\n      mload(0x40)\n      dup1\n      swap2\n      sub\n      swap1\n      revert\n        /* \"contracts/nabla.sol\":9605:9696  if (account == address(0)) {... */\n    tag_142:\n        /* \"contracts/nabla.sol\":9706:9741  _update(account, address(0), value) */\n      tag_144\n        /* \"contracts/nabla.sol\":9714:9721  account */\n      dup3\n        /* \"contracts/nabla.sol\":9731:9732  0 */\n      0x00\n        /* \"contracts/nabla.sol\":9735:9740  value */\n      dup4\n        /* \"contracts/nabla.sol\":9706:9713  _update */\n      tag_145\n        /* \"contracts/nabla.sol\":9706:9741  _update(account, address(0), value) */\n      jump\t// in\n    tag_144:\n        /* \"contracts/nabla.sol\":9539:9749  function _burn(address account, uint256 value) public  {... */\n      pop\n      pop\n      jump\t// out\n        /* \"contracts/nabla.sol\":3544:3662  function balanceOf(address account) public view virtual returns (uint256) {... */\n    tag_65:\n        /* \"contracts/nabla.sol\":3609:3616  uint256 */\n      0x00\n        /* \"contracts/nabla.sol\":3636:3645  _balances */\n      0x01\n        /* \"contracts/nabla.sol\":3636:3654  _balances[account] */\n      0x00\n        /* \"contracts/nabla.sol\":3646:3653  account */\n      dup4\n        /* \"contracts/nabla.sol\":3636:3654  _balances[account] */\n      0xffffffffffffffffffffffffffffffffffffffff\n      and\n      0xffffffffffffffffffffffffffffffffffffffff\n      and\n      dup2\n      mstore\n      0x20\n      add\n      swap1\n      dup2\n      mstore\n      0x20\n      add\n      0x00\n      keccak256\n      sload\n        /* \"contracts/nabla.sol\":3629:3654  return _balances[account] */\n      swap1\n      pop\n        /* \"contracts/nabla.sol\":3544:3662  function balanceOf(address account) public view virtual returns (uint256) {... */\n      swap2\n      swap1\n      pop\n      jump\t// out\n        /* \"contracts/Pausable.sol\":924:988  function initialize () public {... */\n    tag_68:\n        /* \"contracts/Pausable.sol\":975:980  false */\n      0x00\n        /* \"contracts/Pausable.sol\":965:972  _paused */\n      dup1\n      0x00\n        /* \"contracts/Pausable.sol\":965:980  _paused = false */\n      0x0100\n      exp\n      dup2\n      sload\n      dup2\n      0xff\n      mul\n      not\n      and\n      swap1\n      dup4\n      iszero\n      iszero\n      mul\n      or\n      swap1\n      sstore\n      pop\n        /* \"contracts/Pausable.sol\":924:988  function initialize () public {... */\n      jump\t// out\n        /* \"contracts/nabla.sol\":6006:6085  function owner() public view returns (address) {... */\n    tag_70:\n        /* \"contracts/nabla.sol\":6044:6051  address */\n      0x00\n        /* \"contracts/nabla.sol\":6071:6077  _owner */\n      0x06\n      0x00\n      swap1\n      sload\n      swap1\n      0x0100\n      exp\n      swap1\n      div\n      0xffffffffffffffffffffffffffffffffffffffff\n      and\n        /* \"contracts/nabla.sol\":6064:6077  return _owner */\n      swap1\n      pop\n        /* \"contracts/nabla.sol\":6006:6085  function owner() public view returns (address) {... */\n      swap1\n      jump\t// out\n        /* \"contracts/nabla.sol\":2485:2580  function symbol() public view virtual returns (string memory) {... */\n    tag_74:\n        /* \"contracts/nabla.sol\":2532:2545  string memory */\n      0x60\n        /* \"contracts/nabla.sol\":2565:2572  _symbol */\n      0x05\n        /* \"contracts/nabla.sol\":2558:2572  return _symbol */\n      dup1\n      sload\n      tag_150\n      swap1\n      tag_92\n      jump\t// in\n    tag_150:\n      dup1\n      0x1f\n      add\n      0x20\n      dup1\n      swap2\n      div\n      mul\n      0x20\n      add\n      mload(0x40)\n      swap1\n      dup2\n      add\n      0x40\n      mstore\n      dup1\n      swap3\n      swap2\n      swap1\n      dup2\n      dup2\n      mstore\n      0x20\n      add\n      dup3\n      dup1\n      sload\n      tag_151\n      swap1\n      tag_92\n      jump\t// in\n    tag_151:\n      dup1\n      iszero\n      tag_152\n      jumpi\n      dup1\n      0x1f\n      lt\n      tag_153\n      jumpi\n      0x0100\n      dup1\n      dup4\n      sload\n      div\n      mul\n      dup4\n      mstore\n      swap2\n      0x20\n      add\n      swap2\n      jump(tag_152)\n    tag_153:\n      dup3\n      add\n      swap2\n      swap1\n      0x00\n      mstore\n      keccak256(0x00, 0x20)\n      swap1\n    tag_154:\n      dup2\n      sload\n      dup2\n      mstore\n      swap1\n      0x01\n      add\n      swap1\n      0x20\n      add\n      dup1\n      dup4\n      gt\n      tag_154\n      jumpi\n      dup3\n      swap1\n      sub\n      0x1f\n      and\n      dup3\n      add\n      swap2\n    tag_152:\n      pop\n      pop\n      pop\n      pop\n      pop\n      swap1\n      pop\n        /* \"contracts/nabla.sol\":2485:2580  function symbol() public view virtual returns (string memory) {... */\n      swap1\n      jump\t// out\n        /* \"contracts/nabla.sol\":3867:4088  function transfer(address to, uint256 value) public virtual override  whenNotPaused returns (bool) {... */\n    tag_78:\n        /* \"contracts/nabla.sol\":3960:3964  bool */\n      0x00\n        /* \"contracts/Pausable.sol\":1414:1422  paused() */\n      tag_156\n        /* \"contracts/Pausable.sol\":1414:1420  paused */\n      tag_57\n        /* \"contracts/Pausable.sol\":1414:1422  paused() */\n      jump\t// in\n    tag_156:\n        /* \"contracts/Pausable.sol\":1413:1422  !paused() */\n      iszero\n        /* \"contracts/Pausable.sol\":1405:1443  require(!paused(), \"Pausable: paused\") */\n      tag_157\n      jumpi\n      mload(0x40)\n      0x08c379a000000000000000000000000000000000000000000000000000000000\n      dup2\n      mstore\n      0x04\n      add\n      tag_158\n      swap1\n      tag_105\n      jump\t// in\n    tag_158:\n      mload(0x40)\n      dup1\n      swap2\n      sub\n      swap1\n      revert\n    tag_157:\n        /* \"contracts/nabla.sol\":3987:4019  _transfer(msg.sender, to, value) */\n      tag_160\n        /* \"contracts/nabla.sol\":3997:4007  msg.sender */\n      caller\n        /* \"contracts/nabla.sol\":4009:4011  to */\n      dup5\n        /* \"contracts/nabla.sol\":4013:4018  value */\n      dup5\n        /* \"contracts/nabla.sol\":3987:3996  _transfer */\n      tag_112\n        /* \"contracts/nabla.sol\":3987:4019  _transfer(msg.sender, to, value) */\n      jump\t// in\n    tag_160:\n        /* \"contracts/nabla.sol\":4076:4080  true */\n      0x01\n        /* \"contracts/nabla.sol\":4069:4080  return true */\n      swap1\n      pop\n        /* \"contracts/nabla.sol\":3867:4088  function transfer(address to, uint256 value) public virtual override  whenNotPaused returns (bool) {... */\n      swap3\n      swap2\n      pop\n      pop\n      jump\t// out\n        /* \"contracts/nabla.sol\":12876:12951  function unpauseContract() external onlyOwner {... */\n    tag_81:\n        /* \"contracts/nabla.sol\":5006:5012  _owner */\n      0x06\n      0x00\n      swap1\n      sload\n      swap1\n      0x0100\n      exp\n      swap1\n      div\n      0xffffffffffffffffffffffffffffffffffffffff\n      and\n        /* \"contracts/nabla.sol\":4992:5012  msg.sender == _owner */\n      0xffffffffffffffffffffffffffffffffffffffff\n      and\n        /* \"contracts/nabla.sol\":4992:5002  msg.sender */\n      caller\n        /* \"contracts/nabla.sol\":4992:5012  msg.sender == _owner */\n      0xffffffffffffffffffffffffffffffffffffffff\n      and\n      eq\n        /* \"contracts/nabla.sol\":4984:5050  require(msg.sender == _owner, \"Only owner can call this function\") */\n      tag_162\n      jumpi\n      mload(0x40)\n      0x08c379a000000000000000000000000000000000000000000000000000000000\n      dup2\n      mstore\n      0x04\n      add\n      tag_163\n      swap1\n      tag_117\n      jump\t// in\n    tag_163:\n      mload(0x40)\n      dup1\n      swap2\n      sub\n      swap1\n      revert\n    tag_162:\n        /* \"contracts/nabla.sol\":12933:12943  _unpause() */\n      tag_165\n        /* \"contracts/nabla.sol\":12933:12941  _unpause */\n      tag_166\n        /* \"contracts/nabla.sol\":12933:12943  _unpause() */\n      jump\t// in\n    tag_165:\n        /* \"contracts/nabla.sol\":12876:12951  function unpauseContract() external onlyOwner {... */\n      jump\t// out\n        /* \"contracts/nabla.sol\":4151:4303  function allowance(address ownerAllow, address spender) public view virtual returns (uint256) {... */\n    tag_85:\n        /* \"contracts/nabla.sol\":4236:4243  uint256 */\n      0x00\n        /* \"contracts/nabla.sol\":4263:4274  _allowances */\n      0x02\n        /* \"contracts/nabla.sol\":4263:4286  _allowances[ownerAllow] */\n      0x00\n        /* \"contracts/nabla.sol\":4275:4285  ownerAllow */\n      dup5\n        /* \"contracts/nabla.sol\":4263:4286  _allowances[ownerAllow] */\n      0xffffffffffffffffffffffffffffffffffffffff\n      and\n      0xffffffffffffffffffffffffffffffffffffffff\n      and\n      dup2\n      mstore\n      0x20\n      add\n      swap1\n      dup2\n      mstore\n      0x20\n      add\n      0x00\n      keccak256\n        /* \"contracts/nabla.sol\":4263:4295  _allowances[ownerAllow][spender] */\n      0x00\n        /* \"contracts/nabla.sol\":4287:4294  spender */\n      dup4\n        /* \"contracts/nabla.sol\":4263:4295  _allowances[ownerAllow][spender] */\n      0xffffffffffffffffffffffffffffffffffffffff\n      and\n      0xffffffffffffffffffffffffffffffffffffffff\n      and\n      dup2\n      mstore\n      0x20\n      add\n      swap1\n      dup2\n      mstore\n      0x20\n      add\n      0x00\n      keccak256\n      sload\n        /* \"contracts/nabla.sol\":4256:4295  return _allowances[ownerAllow][spender] */\n      swap1\n      pop\n        /* \"contracts/nabla.sol\":4151:4303  function allowance(address ownerAllow, address spender) public view virtual returns (uint256) {... */\n      swap3\n      swap2\n      pop\n      pop\n      jump\t// out\n        /* \"contracts/nabla.sol\":6140:6397  function transferOwnership(address newOwner) public onlyOwner {... */\n    tag_89:\n        /* \"contracts/nabla.sol\":5006:5012  _owner */\n      0x06\n      0x00\n      swap1\n      sload\n      swap1\n      0x0100\n      exp\n      swap1\n      div\n      0xffffffffffffffffffffffffffffffffffffffff\n      and\n        /* \"contracts/nabla.sol\":4992:5012  msg.sender == _owner */\n      0xffffffffffffffffffffffffffffffffffffffff\n      and\n        /* \"contracts/nabla.sol\":4992:5002  msg.sender */\n      caller\n        /* \"contracts/nabla.sol\":4992:5012  msg.sender == _owner */\n      0xffffffffffffffffffffffffffffffffffffffff\n      and\n      eq\n        /* \"contracts/nabla.sol\":4984:5050  require(msg.sender == _owner, \"Only owner can call this function\") */\n      tag_169\n      jumpi\n      mload(0x40)\n      0x08c379a000000000000000000000000000000000000000000000000000000000\n      dup2\n      mstore\n      0x04\n      add\n      tag_170\n      swap1\n      tag_117\n      jump\t// in\n    tag_170:\n      mload(0x40)\n      dup1\n      swap2\n      sub\n      swap1\n      revert\n    tag_169:\n        /* \"contracts/nabla.sol\":6245:6246  0 */\n      0x00\n        /* \"contracts/nabla.sol\":6225:6247  newOwner != address(0) */\n      0xffffffffffffffffffffffffffffffffffffffff\n      and\n        /* \"contracts/nabla.sol\":6225:6233  newOwner */\n      dup2\n        /* \"contracts/nabla.sol\":6225:6247  newOwner != address(0) */\n      0xffffffffffffffffffffffffffffffffffffffff\n      and\n      sub\n        /* \"contracts/nabla.sol\":6217:6281  require(newOwner != address(0), \"New owner is the zero address\") */\n      tag_172\n      jumpi\n      mload(0x40)\n      0x08c379a000000000000000000000000000000000000000000000000000000000\n      dup2\n      mstore\n      0x04\n      add\n      tag_173\n      swap1\n      tag_174\n      jump\t// in\n    tag_173:\n      mload(0x40)\n      dup1\n      swap2\n      sub\n      swap1\n      revert\n    tag_172:\n        /* \"contracts/nabla.sol\":6330:6338  newOwner */\n      dup1\n        /* \"contracts/nabla.sol\":6301:6339  OwnershipTransferred(_owner, newOwner) */\n      0xffffffffffffffffffffffffffffffffffffffff\n      and\n        /* \"contracts/nabla.sol\":6322:6328  _owner */\n      0x06\n      0x00\n      swap1\n      sload\n      swap1\n      0x0100\n      exp\n      swap1\n      div\n      0xffffffffffffffffffffffffffffffffffffffff\n      and\n        /* \"contracts/nabla.sol\":6301:6339  OwnershipTransferred(_owner, newOwner) */\n      0xffffffffffffffffffffffffffffffffffffffff\n      and\n      0x8be0079c531659141344cd1fd0a4f28419497f9722a3daafe3b4186f6b6457e0\n      mload(0x40)\n      mload(0x40)\n      dup1\n      swap2\n      sub\n      swap1\n      log3\n        /* \"contracts/nabla.sol\":6377:6385  newOwner */\n      dup1\n        /* \"contracts/nabla.sol\":6368:6374  _owner */\n      0x06\n      0x00\n        /* \"contracts/nabla.sol\":6368:6385  _owner = newOwner */\n      0x0100\n      exp\n      dup2\n      sload\n      dup2\n      0xffffffffffffffffffffffffffffffffffffffff\n      mul\n      not\n      and\n      swap1\n      dup4\n      0xffffffffffffffffffffffffffffffffffffffff\n      and\n      mul\n      or\n      swap1\n      sstore\n      pop\n        /* \"contracts/nabla.sol\":6140:6397  function transferOwnership(address newOwner) public onlyOwner {... */\n      pop\n      jump\t// out\n        /* \"contracts/nabla.sol\":10302:10442  function _approve(address approveOwn, address spender, uint256 value) internal {... */\n    tag_99:\n        /* \"contracts/nabla.sol\":10392:10434  _approve(approveOwn, spender, value, true) */\n      tag_176\n        /* \"contracts/nabla.sol\":10401:10411  approveOwn */\n      dup4\n        /* \"contracts/nabla.sol\":10413:10420  spender */\n      dup4\n        /* \"contracts/nabla.sol\":10422:10427  value */\n      dup4\n        /* \"contracts/nabla.sol\":10429:10433  true */\n      0x01\n        /* \"contracts/nabla.sol\":10392:10400  _approve */\n      tag_177\n        /* \"contracts/nabla.sol\":10392:10434  _approve(approveOwn, spender, value, true) */\n      jump\t// in\n    tag_176:\n        /* \"contracts/nabla.sol\":10302:10442  function _approve(address approveOwn, address spender, uint256 value) internal {... */\n      pop\n      pop\n      pop\n      jump\t// out\n        /* \"contracts/Context.sol\":603:701  function _msgSender() internal view virtual returns (address) {... */\n    tag_108:\n        /* \"contracts/Context.sol\":656:663  address */\n      0x00\n        /* \"contracts/Context.sol\":683:693  msg.sender */\n      caller\n        /* \"contracts/Context.sol\":676:693  return msg.sender */\n      swap1\n      pop\n        /* \"contracts/Context.sol\":603:701  function _msgSender() internal view virtual returns (address) {... */\n      swap1\n      jump\t// out\n        /* \"contracts/nabla.sol\":12064:12571  function _spendAllowance(address allowanceAdr, address spender, uint256 value) internal virtual {... */\n    tag_110:\n        /* \"contracts/nabla.sol\":12171:12195  uint256 currentAllowance */\n      0x00\n        /* \"contracts/nabla.sol\":12198:12230  allowance(allowanceAdr, spender) */\n      tag_180\n        /* \"contracts/nabla.sol\":12208:12220  allowanceAdr */\n      dup5\n        /* \"contracts/nabla.sol\":12222:12229  spender */\n      dup5\n        /* \"contracts/nabla.sol\":12198:12207  allowance */\n      tag_85\n        /* \"contracts/nabla.sol\":12198:12230  allowance(allowanceAdr, spender) */\n      jump\t// in\n    tag_180:\n        /* \"contracts/nabla.sol\":12171:12230  uint256 currentAllowance = allowance(allowanceAdr, spender) */\n      swap1\n      pop\n        /* \"contracts/nabla.sol\":12264:12281  type(uint256).max */\n      0xffffffffffffffffffffffffffffffffffffffffffffffffffffffffffffffff\n        /* \"contracts/nabla.sol\":12245:12261  currentAllowance */\n      dup2\n        /* \"contracts/nabla.sol\":12245:12281  currentAllowance < type(uint256).max */\n      lt\n        /* \"contracts/nabla.sol\":12241:12564  if (currentAllowance < type(uint256).max) {... */\n      iszero\n      tag_181\n      jumpi\n        /* \"contracts/nabla.sol\":12321:12326  value */\n      dup2\n        /* \"contracts/nabla.sol\":12302:12318  currentAllowance */\n      dup2\n        /* \"contracts/nabla.sol\":12302:12326  currentAllowance < value */\n      lt\n        /* \"contracts/nabla.sol\":12298:12430  if (currentAllowance < value) {... */\n      iszero\n      tag_182\n      jumpi\n        /* \"contracts/nabla.sol\":12381:12388  spender */\n      dup3\n        /* \"contracts/nabla.sol\":12390:12406  currentAllowance */\n      dup2\n        /* \"contracts/nabla.sol\":12408:12413  value */\n      dup4\n        /* \"contracts/nabla.sol\":12354:12414  ERC20InsufficientAllowance(spender, currentAllowance, value) */\n      mload(0x40)\n      0xfb8f41b200000000000000000000000000000000000000000000000000000000\n      dup2\n      mstore\n      0x04\n      add\n      tag_183\n      swap4\n      swap3\n      swap2\n      swap1\n      tag_184\n      jump\t// in\n    tag_183:\n      mload(0x40)\n      dup1\n      swap2\n      sub\n      swap1\n      revert\n        /* \"contracts/nabla.sol\":12298:12430  if (currentAllowance < value) {... */\n    tag_182:\n        /* \"contracts/nabla.sol\":12473:12537  _approve(allowanceAdr, spender, currentAllowance - value, false) */\n      tag_185\n        /* \"contracts/nabla.sol\":12482:12494  allowanceAdr */\n      dup5\n        /* \"contracts/nabla.sol\":12496:12503  spender */\n      dup5\n        /* \"contracts/nabla.sol\":12524:12529  value */\n      dup5\n        /* \"contracts/nabla.sol\":12505:12521  currentAllowance */\n      dup5\n        /* \"contracts/nabla.sol\":12505:12529  currentAllowance - value */\n      sub\n        /* \"contracts/nabla.sol\":12531:12536  false */\n      0x00\n        /* \"contracts/nabla.sol\":12473:12481  _approve */\n      tag_177\n        /* \"contracts/nabla.sol\":12473:12537  _approve(allowanceAdr, spender, currentAllowance - value, false) */\n      jump\t// in\n    tag_185:\n        /* \"contracts/nabla.sol\":12241:12564  if (currentAllowance < type(uint256).max) {... */\n    tag_181:\n        /* \"contracts/nabla.sol\":12160:12571  {... */\n      pop\n        /* \"contracts/nabla.sol\":12064:12571  function _spendAllowance(address allowanceAdr, address spender, uint256 value) internal virtual {... */\n      pop\n      pop\n      pop\n      jump\t// out\n        /* \"contracts/nabla.sol\":6781:7089  function _transfer(address from, address to, uint256 value) internal {... */\n    tag_112:\n        /* \"contracts/nabla.sol\":6881:6882  0 */\n      0x00\n        /* \"contracts/nabla.sol\":6865:6883  from == address(0) */\n      0xffffffffffffffffffffffffffffffffffffffff\n      and\n        /* \"contracts/nabla.sol\":6865:6869  from */\n      dup4\n        /* \"contracts/nabla.sol\":6865:6883  from == address(0) */\n      0xffffffffffffffffffffffffffffffffffffffff\n      and\n      sub\n        /* \"contracts/nabla.sol\":6861:6949  if (from == address(0)) {... */\n      tag_187\n      jumpi\n        /* \"contracts/nabla.sol\":6934:6935  0 */\n      0x00\n        /* \"contracts/nabla.sol\":6907:6937  ERC20InvalidSender(address(0)) */\n      mload(0x40)\n      0x96c6fd1e00000000000000000000000000000000000000000000000000000000\n      dup2\n      mstore\n      0x04\n      add\n      tag_188\n      swap2\n      swap1\n      tag_72\n      jump\t// in\n    tag_188:\n      mload(0x40)\n      dup1\n      swap2\n      sub\n      swap1\n      revert\n        /* \"contracts/nabla.sol\":6861:6949  if (from == address(0)) {... */\n    tag_187:\n        /* \"contracts/nabla.sol\":6977:6978  0 */\n      0x00\n        /* \"contracts/nabla.sol\":6963:6979  to == address(0) */\n      0xffffffffffffffffffffffffffffffffffffffff\n      and\n        /* \"contracts/nabla.sol\":6963:6965  to */\n      dup3\n        /* \"contracts/nabla.sol\":6963:6979  to == address(0) */\n      0xffffffffffffffffffffffffffffffffffffffff\n      and\n      sub\n        /* \"contracts/nabla.sol\":6959:7047  if (to == address(0)) {... */\n      tag_189\n      jumpi\n        /* \"contracts/nabla.sol\":7032:7033  0 */\n      0x00\n        /* \"contracts/nabla.sol\":7003:7035  ERC20InvalidReceiver(address(0)) */\n      mload(0x40)\n      0xec442f0500000000000000000000000000000000000000000000000000000000\n      dup2\n      mstore\n      0x04\n      add\n      tag_190\n      swap2\n      swap1\n      tag_72\n      jump\t// in\n    tag_190:\n      mload(0x40)\n      dup1\n      swap2\n      sub\n      swap1\n      revert\n        /* \"contracts/nabla.sol\":6959:7047  if (to == address(0)) {... */\n    tag_189:\n        /* \"contracts/nabla.sol\":7057:7081  _update(from, to, value) */\n      tag_191\n        /* \"contracts/nabla.sol\":7065:7069  from */\n      dup4\n        /* \"contracts/nabla.sol\":7071:7073  to */\n      dup4\n        /* \"contracts/nabla.sol\":7075:7080  value */\n      dup4\n        /* \"contracts/nabla.sol\":7057:7064  _update */\n      tag_145\n        /* \"contracts/nabla.sol\":7057:7081  _update(from, to, value) */\n      jump\t// in\n    tag_191:\n        /* \"contracts/nabla.sol\":6781:7089  function _transfer(address from, address to, uint256 value) internal {... */\n      pop\n      pop\n      pop\n      jump\t// out\n        /* \"contracts/nabla.sol\":8901:9211  function _mint(address account, uint256 value) internal {... */\n    tag_124:\n        /* \"contracts/nabla.sol\":9011:9012  0 */\n      0x00\n        /* \"contracts/nabla.sol\":8992:9013  account == address(0) */\n      0xffffffffffffffffffffffffffffffffffffffff\n      and\n        /* \"contracts/nabla.sol\":8992:8999  account */\n      dup3\n        /* \"contracts/nabla.sol\":8992:9013  account == address(0) */\n      0xffffffffffffffffffffffffffffffffffffffff\n      and\n      sub\n        /* \"contracts/nabla.sol\":8988:9081  if (account == address(0)) {... */\n      tag_193\n      jumpi\n        /* \"contracts/nabla.sol\":9066:9067  0 */\n      0x00\n        /* \"contracts/nabla.sol\":9037:9069  ERC20InvalidReceiver(address(0)) */\n      mload(0x40)\n      0xec442f0500000000000000000000000000000000000000000000000000000000\n      dup2\n      mstore\n      0x04\n      add\n      tag_194\n      swap2\n      swap1\n      tag_72\n      jump\t// in\n    tag_194:\n      mload(0x40)\n      dup1\n      swap2\n      sub\n      swap1\n      revert\n        /* \"contracts/nabla.sol\":8988:9081  if (account == address(0)) {... */\n    tag_193:\n        /* \"contracts/nabla.sol\":9091:9126  _update(address(0), account, value) */\n      tag_195\n        /* \"contracts/nabla.sol\":9107:9108  0 */\n      0x00\n        /* \"contracts/nabla.sol\":9111:9118  account */\n      dup4\n        /* \"contracts/nabla.sol\":9120:9125  value */\n      dup4\n        /* \"contracts/nabla.sol\":9091:9098  _update */\n      tag_145\n        /* \"contracts/nabla.sol\":9091:9126  _update(address(0), account, value) */\n      jump\t// in\n    tag_195:\n        /* \"contracts/nabla.sol\":9163:9170  account */\n      dup2\n        /* \"contracts/nabla.sol\":9142:9178  Transfer(address(0), account, value) */\n      0xffffffffffffffffffffffffffffffffffffffff\n      and\n        /* \"contracts/nabla.sol\":9159:9160  0 */\n      0x00\n        /* \"contracts/nabla.sol\":9142:9178  Transfer(address(0), account, value) */\n      0xffffffffffffffffffffffffffffffffffffffff\n      and\n      0xddf252ad1be2c89b69c2b068fc378daa952ba7f163c4a11628f55a4df523b3ef\n        /* \"contracts/nabla.sol\":9172:9177  value */\n      dup4\n        /* \"contracts/nabla.sol\":9142:9178  Transfer(address(0), account, value) */\n      mload(0x40)\n      tag_196\n      swap2\n      swap1\n      tag_37\n      jump\t// in\n    tag_196:\n      mload(0x40)\n      dup1\n      swap2\n      sub\n      swap1\n      log3\n        /* \"contracts/nabla.sol\":8901:9211  function _mint(address account, uint256 value) internal {... */\n      pop\n      pop\n      jump\t// out\n        /* \"contracts/Pausable.sol\":1888:2006  function _pause() internal virtual whenNotPaused {... */\n    tag_130:\n        /* \"contracts/Pausable.sol\":1414:1422  paused() */\n      tag_198\n        /* \"contracts/Pausable.sol\":1414:1420  paused */\n      tag_57\n        /* \"contracts/Pausable.sol\":1414:1422  paused() */\n      jump\t// in\n    tag_198:\n        /* \"contracts/Pausable.sol\":1413:1422  !paused() */\n      iszero\n        /* \"contracts/Pausable.sol\":1405:1443  require(!paused(), \"Pausable: paused\") */\n      tag_199\n      jumpi\n      mload(0x40)\n      0x08c379a000000000000000000000000000000000000000000000000000000000\n      dup2\n      mstore\n      0x04\n      add\n      tag_200\n      swap1\n      tag_105\n      jump\t// in\n    tag_200:\n      mload(0x40)\n      dup1\n      swap2\n      sub\n      swap1\n      revert\n    tag_199:\n        /* \"contracts/Pausable.sol\":1958:1962  true */\n      0x01\n        /* \"contracts/Pausable.sol\":1948:1955  _paused */\n      0x00\n      dup1\n        /* \"contracts/Pausable.sol\":1948:1962  _paused = true */\n      0x0100\n      exp\n      dup2\n      sload\n      dup2\n      0xff\n      mul\n      not\n      and\n      swap1\n      dup4\n      iszero\n      iszero\n      mul\n      or\n      swap1\n      sstore\n      pop\n        /* \"contracts/Pausable.sol\":1978:1998  Paused(_msgSender()) */\n      0x62e78cea01bee320cd4e420270b5ea74000d11b0c9f74754ebdbfc544b05a258\n        /* \"contracts/Pausable.sol\":1985:1997  _msgSender() */\n      tag_202\n        /* \"contracts/Pausable.sol\":1985:1995  _msgSender */\n      tag_108\n        /* \"contracts/Pausable.sol\":1985:1997  _msgSender() */\n      jump\t// in\n    tag_202:\n        /* \"contracts/Pausable.sol\":1978:1998  Paused(_msgSender()) */\n      mload(0x40)\n      tag_203\n      swap2\n      swap1\n      tag_72\n      jump\t// in\n    tag_203:\n      mload(0x40)\n      dup1\n      swap2\n      sub\n      swap1\n      log1\n        /* \"contracts/Pausable.sol\":1888:2006  function _pause() internal virtual whenNotPaused {... */\n      jump\t// out\n        /* \"contracts/nabla.sol\":7413:8548  function _update(address from, address to, uint256 value) internal virtual {... */\n    tag_145:\n        /* \"contracts/nabla.sol\":7519:7520  0 */\n      0x00\n        /* \"contracts/nabla.sol\":7503:7521  from == address(0) */\n      0xffffffffffffffffffffffffffffffffffffffff\n      and\n        /* \"contracts/nabla.sol\":7503:7507  from */\n      dup4\n        /* \"contracts/nabla.sol\":7503:7521  from == address(0) */\n      0xffffffffffffffffffffffffffffffffffffffff\n      and\n      sub\n        /* \"contracts/nabla.sol\":7499:8051  if (from == address(0)) {... */\n      tag_205\n      jumpi\n        /* \"contracts/nabla.sol\":7657:7662  value */\n      dup1\n        /* \"contracts/nabla.sol\":7641:7653  _totalSupply */\n      0x03\n      0x00\n        /* \"contracts/nabla.sol\":7641:7662  _totalSupply += value */\n      dup3\n      dup3\n      sload\n      tag_206\n      swap2\n      swap1\n      tag_207\n      jump\t// in\n    tag_206:\n      swap3\n      pop\n      pop\n      dup2\n      swap1\n      sstore\n      pop\n        /* \"contracts/nabla.sol\":7499:8051  if (from == address(0)) {... */\n      jump(tag_208)\n    tag_205:\n        /* \"contracts/nabla.sol\":7695:7714  uint256 fromBalance */\n      0x00\n        /* \"contracts/nabla.sol\":7717:7726  _balances */\n      0x01\n        /* \"contracts/nabla.sol\":7717:7732  _balances[from] */\n      0x00\n        /* \"contracts/nabla.sol\":7727:7731  from */\n      dup6\n        /* \"contracts/nabla.sol\":7717:7732  _balances[from] */\n      0xffffffffffffffffffffffffffffffffffffffff\n      and\n      0xffffffffffffffffffffffffffffffffffffffff\n      and\n      dup2\n      mstore\n      0x20\n      add\n      swap1\n      dup2\n      mstore\n      0x20\n      add\n      0x00\n      keccak256\n      sload\n        /* \"contracts/nabla.sol\":7695:7732  uint256 fromBalance = _balances[from] */\n      swap1\n      pop\n        /* \"contracts/nabla.sol\":7765:7770  value */\n      dup2\n        /* \"contracts/nabla.sol\":7751:7762  fromBalance */\n      dup2\n        /* \"contracts/nabla.sol\":7751:7770  fromBalance < value */\n      lt\n        /* \"contracts/nabla.sol\":7747:7864  if (fromBalance < value) {... */\n      iszero\n      tag_209\n      jumpi\n        /* \"contracts/nabla.sol\":7823:7827  from */\n      dup4\n        /* \"contracts/nabla.sol\":7829:7840  fromBalance */\n      dup2\n        /* \"contracts/nabla.sol\":7842:7847  value */\n      dup4\n        /* \"contracts/nabla.sol\":7798:7848  ERC20InsufficientBalance(from, fromBalance, value) */\n      mload(0x40)\n      0xe450d38c00000000000000000000000000000000000000000000000000000000\n      dup2\n      mstore\n      0x04\n      add\n      tag_210\n      swap4\n      swap3\n      swap2\n      swap1\n      tag_184\n      jump\t// in\n    tag_210:\n      mload(0x40)\n      dup1\n      swap2\n      sub\n      swap1\n      revert\n        /* \"contracts/nabla.sol\":7747:7864  if (fromBalance < value) {... */\n    tag_209:\n        /* \"contracts/nabla.sol\":8019:8024  value */\n      dup2\n        /* \"contracts/nabla.sol\":8005:8016  fromBalance */\n      dup2\n        /* \"contracts/nabla.sol\":8005:8024  fromBalance - value */\n      sub\n        /* \"contracts/nabla.sol\":7987:7996  _balances */\n      0x01\n        /* \"contracts/nabla.sol\":7987:8002  _balances[from] */\n      0x00\n        /* \"contracts/nabla.sol\":7997:8001  from */\n      dup7\n        /* \"contracts/nabla.sol\":7987:8002  _balances[from] */\n      0xffffffffffffffffffffffffffffffffffffffff\n      and\n      0xffffffffffffffffffffffffffffffffffffffff\n      and\n      dup2\n      mstore\n      0x20\n      add\n      swap1\n      dup2\n      mstore\n      0x20\n      add\n      0x00\n      keccak256\n        /* \"contracts/nabla.sol\":7987:8024  _balances[from] = fromBalance - value */\n      dup2\n      swap1\n      sstore\n      pop\n        /* \"contracts/nabla.sol\":7680:8051  {... */\n      pop\n        /* \"contracts/nabla.sol\":7499:8051  if (from == address(0)) {... */\n    tag_208:\n        /* \"contracts/nabla.sol\":8081:8082  0 */\n      0x00\n        /* \"contracts/nabla.sol\":8067:8083  to == address(0) */\n      0xffffffffffffffffffffffffffffffffffffffff\n      and\n        /* \"contracts/nabla.sol\":8067:8069  to */\n      dup3\n        /* \"contracts/nabla.sol\":8067:8083  to == address(0) */\n      0xffffffffffffffffffffffffffffffffffffffff\n      and\n      sub\n        /* \"contracts/nabla.sol\":8063:8498  if (to == address(0)) {... */\n      tag_211\n      jumpi\n        /* \"contracts/nabla.sol\":8249:8254  value */\n      dup1\n        /* \"contracts/nabla.sol\":8233:8245  _totalSupply */\n      0x03\n      0x00\n        /* \"contracts/nabla.sol\":8233:8254  _totalSupply -= value */\n      dup3\n      dup3\n      sload\n      sub\n      swap3\n      pop\n      pop\n      dup2\n      swap1\n      sstore\n      pop\n        /* \"contracts/nabla.sol\":8063:8498  if (to == address(0)) {... */\n      jump(tag_212)\n    tag_211:\n        /* \"contracts/nabla.sol\":8466:8471  value */\n      dup1\n        /* \"contracts/nabla.sol\":8449:8458  _balances */\n      0x01\n        /* \"contracts/nabla.sol\":8449:8462  _balances[to] */\n      0x00\n        /* \"contracts/nabla.sol\":8459:8461  to */\n      dup5\n        /* \"contracts/nabla.sol\":8449:8462  _balances[to] */\n      0xffffffffffffffffffffffffffffffffffffffff\n      and\n      0xffffffffffffffffffffffffffffffffffffffff\n      and\n      dup2\n      mstore\n      0x20\n      add\n      swap1\n      dup2\n      mstore\n      0x20\n      add\n      0x00\n      keccak256\n      0x00\n        /* \"contracts/nabla.sol\":8449:8471  _balances[to] += value */\n      dup3\n      dup3\n      sload\n      add\n      swap3\n      pop\n      pop\n      dup2\n      swap1\n      sstore\n      pop\n        /* \"contracts/nabla.sol\":8063:8498  if (to == address(0)) {... */\n    tag_212:\n        /* \"contracts/nabla.sol\":8530:8532  to */\n      dup2\n        /* \"contracts/nabla.sol\":8515:8540  Transfer(from, to, value) */\n      0xffffffffffffffffffffffffffffffffffffffff\n      and\n        /* \"contracts/nabla.sol\":8524:8528  from */\n      dup4\n        /* \"contracts/nabla.sol\":8515:8540  Transfer(from, to, value) */\n      0xffffffffffffffffffffffffffffffffffffffff\n      and\n      0xddf252ad1be2c89b69c2b068fc378daa952ba7f163c4a11628f55a4df523b3ef\n        /* \"contracts/nabla.sol\":8534:8539  value */\n      dup4\n        /* \"contracts/nabla.sol\":8515:8540  Transfer(from, to, value) */\n      mload(0x40)\n      tag_213\n      swap2\n      swap1\n      tag_37\n      jump\t// in\n    tag_213:\n      mload(0x40)\n      dup1\n      swap2\n      sub\n      swap1\n      log3\n        /* \"contracts/nabla.sol\":7413:8548  function _update(address from, address to, uint256 value) internal virtual {... */\n      pop\n      pop\n      pop\n      jump\t// out\n        /* \"contracts/Pausable.sol\":2147:2267  function _unpause() internal virtual whenPaused {... */\n    tag_166:\n        /* \"contracts/Pausable.sol\":1691:1699  paused() */\n      tag_215\n        /* \"contracts/Pausable.sol\":1691:1697  paused */\n      tag_57\n        /* \"contracts/Pausable.sol\":1691:1699  paused() */\n      jump\t// in\n    tag_215:\n        /* \"contracts/Pausable.sol\":1683:1724  require(paused(), \"Pausable: not paused\") */\n      tag_216\n      jumpi\n      mload(0x40)\n      0x08c379a000000000000000000000000000000000000000000000000000000000\n      dup2\n      mstore\n      0x04\n      add\n      tag_217\n      swap1\n      tag_218\n      jump\t// in\n    tag_217:\n      mload(0x40)\n      dup1\n      swap2\n      sub\n      swap1\n      revert\n    tag_216:\n        /* \"contracts/Pausable.sol\":2216:2221  false */\n      0x00\n        /* \"contracts/Pausable.sol\":2206:2213  _paused */\n      dup1\n      0x00\n        /* \"contracts/Pausable.sol\":2206:2221  _paused = false */\n      0x0100\n      exp\n      dup2\n      sload\n      dup2\n      0xff\n      mul\n      not\n      and\n      swap1\n      dup4\n      iszero\n      iszero\n      mul\n      or\n      swap1\n      sstore\n      pop\n        /* \"contracts/Pausable.sol\":2237:2259  Unpaused(_msgSender()) */\n      0x5db9ee0a495bf2e6ff9c91a7834c1ba4fdd244a5e8aa4e537bd38aeae4b073aa\n        /* \"contracts/Pausable.sol\":2246:2258  _msgSender() */\n      tag_220\n        /* \"contracts/Pausable.sol\":2246:2256  _msgSender */\n      tag_108\n        /* \"contracts/Pausable.sol\":2246:2258  _msgSender() */\n      jump\t// in\n    tag_220:\n        /* \"contracts/Pausable.sol\":2237:2259  Unpaused(_msgSender()) */\n      mload(0x40)\n      tag_221\n      swap2\n      swap1\n      tag_72\n      jump\t// in\n    tag_221:\n      mload(0x40)\n      dup1\n      swap2\n      sub\n      swap1\n      log1\n        /* \"contracts/Pausable.sol\":2147:2267  function _unpause() internal virtual whenPaused {... */\n      jump\t// out\n        /* \"contracts/nabla.sol\":11309:11772  function _approve(address approveOwn, address spender, uint256 value, bool emitEvent) internal virtual {... */\n    tag_177:\n        /* \"contracts/nabla.sol\":11449:11450  0 */\n      0x00\n        /* \"contracts/nabla.sol\":11427:11451  approveOwn == address(0) */\n      0xffffffffffffffffffffffffffffffffffffffff\n      and\n        /* \"contracts/nabla.sol\":11427:11437  approveOwn */\n      dup5\n        /* \"contracts/nabla.sol\":11427:11451  approveOwn == address(0) */\n      0xffffffffffffffffffffffffffffffffffffffff\n      and\n      sub\n        /* \"contracts/nabla.sol\":11423:11519  if (approveOwn == address(0)) {... */\n      tag_223\n      jumpi\n        /* \"contracts/nabla.sol\":11504:11505  0 */\n      0x00\n        /* \"contracts/nabla.sol\":11475:11507  ERC20InvalidApprover(address(0)) */\n      mload(0x40)\n      0xe602df0500000000000000000000000000000000000000000000000000000000\n      dup2\n      mstore\n      0x04\n      add\n      tag_224\n      swap2\n      swap1\n      tag_72\n      jump\t// in\n    tag_224:\n      mload(0x40)\n      dup1\n      swap2\n      sub\n      swap1\n      revert\n        /* \"contracts/nabla.sol\":11423:11519  if (approveOwn == address(0)) {... */\n    tag_223:\n        /* \"contracts/nabla.sol\":11552:11553  0 */\n      0x00\n        /* \"contracts/nabla.sol\":11533:11554  spender == address(0) */\n      0xffffffffffffffffffffffffffffffffffffffff\n      and\n        /* \"contracts/nabla.sol\":11533:11540  spender */\n      dup4\n        /* \"contracts/nabla.sol\":11533:11554  spender == address(0) */\n      0xffffffffffffffffffffffffffffffffffffffff\n      and\n      sub\n        /* \"contracts/nabla.sol\":11529:11621  if (spender == address(0)) {... */\n      tag_225\n      jumpi\n        /* \"contracts/nabla.sol\":11606:11607  0 */\n      0x00\n        /* \"contracts/nabla.sol\":11578:11609  ERC20InvalidSpender(address(0)) */\n      mload(0x40)\n      0x94280d6200000000000000000000000000000000000000000000000000000000\n      dup2\n      mstore\n      0x04\n      add\n      tag_226\n      swap2\n      swap1\n      tag_72\n      jump\t// in\n    tag_226:\n      mload(0x40)\n      dup1\n      swap2\n      sub\n      swap1\n      revert\n        /* \"contracts/nabla.sol\":11529:11621  if (spender == address(0)) {... */\n    tag_225:\n        /* \"contracts/nabla.sol\":11666:11671  value */\n      dup2\n        /* \"contracts/nabla.sol\":11631:11642  _allowances */\n      0x02\n        /* \"contracts/nabla.sol\":11631:11654  _allowances[approveOwn] */\n      0x00\n        /* \"contracts/nabla.sol\":11643:11653  approveOwn */\n      dup7\n        /* \"contracts/nabla.sol\":11631:11654  _allowances[approveOwn] */\n      0xffffffffffffffffffffffffffffffffffffffff\n      and\n      0xffffffffffffffffffffffffffffffffffffffff\n      and\n      dup2\n      mstore\n      0x20\n      add\n      swap1\n      dup2\n      mstore\n      0x20\n      add\n      0x00\n      keccak256\n        /* \"contracts/nabla.sol\":11631:11663  _allowances[approveOwn][spender] */\n      0x00\n        /* \"contracts/nabla.sol\":11655:11662  spender */\n      dup6\n        /* \"contracts/nabla.sol\":11631:11663  _allowances[approveOwn][spender] */\n      0xffffffffffffffffffffffffffffffffffffffff\n      and\n      0xffffffffffffffffffffffffffffffffffffffff\n      and\n      dup2\n      mstore\n      0x20\n      add\n      swap1\n      dup2\n      mstore\n      0x20\n      add\n      0x00\n      keccak256\n        /* \"contracts/nabla.sol\":11631:11671  _allowances[approveOwn][spender] = value */\n      dup2\n      swap1\n      sstore\n      pop\n        /* \"contracts/nabla.sol\":11686:11695  emitEvent */\n      dup1\n        /* \"contracts/nabla.sol\":11682:11765  if (emitEvent) {... */\n      iszero\n      tag_227\n      jumpi\n        /* \"contracts/nabla.sol\":11738:11745  spender */\n      dup3\n        /* \"contracts/nabla.sol\":11717:11753  Approval(approveOwn, spender, value) */\n      0xffffffffffffffffffffffffffffffffffffffff\n      and\n        /* \"contracts/nabla.sol\":11726:11736  approveOwn */\n      dup5\n        /* \"contracts/nabla.sol\":11717:11753  Approval(approveOwn, spender, value) */\n      0xffffffffffffffffffffffffffffffffffffffff\n      and\n      0x8c5be1e5ebec7d5bd14f71427d1e84f3dd0314c0f7b2291e5b200ac8c7c3b925\n        /* \"contracts/nabla.sol\":11747:11752  value */\n      dup5\n        /* \"contracts/nabla.sol\":11717:11753  Approval(approveOwn, spender, value) */\n      mload(0x40)\n      tag_228\n      swap2\n      swap1\n      tag_37\n      jump\t// in\n    tag_228:\n      mload(0x40)\n      dup1\n      swap2\n      sub\n      swap1\n      log3\n        /* \"contracts/nabla.sol\":11682:11765  if (emitEvent) {... */\n    tag_227:\n        /* \"contracts/nabla.sol\":11309:11772  function _approve(address approveOwn, address spender, uint256 value, bool emitEvent) internal virtual {... */\n      pop\n      pop\n      pop\n      pop\n      jump\t// out\n        /* \"#utility.yul\":7:106   */\n    tag_229:\n        /* \"#utility.yul\":59:65   */\n      0x00\n        /* \"#utility.yul\":93:98   */\n      dup2\n        /* \"#utility.yul\":87:99   */\n      mload\n        /* \"#utility.yul\":77:99   */\n      swap1\n      pop\n        /* \"#utility.yul\":7:106   */\n      swap2\n      swap1\n      pop\n      jump\t// out\n        /* \"#utility.yul\":112:281   */\n    tag_230:\n        /* \"#utility.yul\":196:207   */\n      0x00\n        /* \"#utility.yul\":230:236   */\n      dup3\n        /* \"#utility.yul\":225:228   */\n      dup3\n        /* \"#utility.yul\":218:237   */\n      mstore\n        /* \"#utility.yul\":270:274   */\n      0x20\n        /* \"#utility.yul\":265:268   */\n      dup3\n        /* \"#utility.yul\":261:275   */\n      add\n        /* \"#utility.yul\":246:275   */\n      swap1\n      pop\n        /* \"#utility.yul\":112:281   */\n      swap3\n      swap2\n      pop\n      pop\n      jump\t// out\n        /* \"#utility.yul\":287:533   */\n    tag_231:\n        /* \"#utility.yul\":368:369   */\n      0x00\n        /* \"#utility.yul\":378:491   */\n    tag_291:\n        /* \"#utility.yul\":392:398   */\n      dup4\n        /* \"#utility.yul\":389:390   */\n      dup2\n        /* \"#utility.yul\":386:399   */\n      lt\n        /* \"#utility.yul\":378:491   */\n      iszero\n      tag_293\n      jumpi\n        /* \"#utility.yul\":477:478   */\n      dup1\n        /* \"#utility.yul\":472:475   */\n      dup3\n        /* \"#utility.yul\":468:479   */\n      add\n        /* \"#utility.yul\":462:480   */\n      mload\n        /* \"#utility.yul\":458:459   */\n      dup2\n        /* \"#utility.yul\":453:456   */\n      dup5\n        /* \"#utility.yul\":449:460   */\n      add\n        /* \"#utility.yul\":442:481   */\n      mstore\n        /* \"#utility.yul\":414:416   */\n      0x20\n        /* \"#utility.yul\":411:412   */\n      dup2\n        /* \"#utility.yul\":407:417   */\n      add\n        /* \"#utility.yul\":402:417   */\n      swap1\n      pop\n        /* \"#utility.yul\":378:491   */\n      jump(tag_291)\n    tag_293:\n        /* \"#utility.yul\":525:526   */\n      0x00\n        /* \"#utility.yul\":516:522   */\n      dup5\n        /* \"#utility.yul\":511:514   */\n      dup5\n        /* \"#utility.yul\":507:523   */\n      add\n        /* \"#utility.yul\":500:527   */\n      mstore\n        /* \"#utility.yul\":349:533   */\n      pop\n        /* \"#utility.yul\":287:533   */\n      pop\n      pop\n      pop\n      jump\t// out\n        /* \"#utility.yul\":539:641   */\n    tag_232:\n        /* \"#utility.yul\":580:586   */\n      0x00\n        /* \"#utility.yul\":631:633   */\n      0x1f\n        /* \"#utility.yul\":627:634   */\n      not\n        /* \"#utility.yul\":622:624   */\n      0x1f\n        /* \"#utility.yul\":615:620   */\n      dup4\n        /* \"#utility.yul\":611:625   */\n      add\n        /* \"#utility.yul\":607:635   */\n      and\n        /* \"#utility.yul\":597:635   */\n      swap1\n      pop\n        /* \"#utility.yul\":539:641   */\n      swap2\n      swap1\n      pop\n      jump\t// out\n        /* \"#utility.yul\":647:1024   */\n    tag_233:\n        /* \"#utility.yul\":735:738   */\n      0x00\n        /* \"#utility.yul\":763:802   */\n      tag_296\n        /* \"#utility.yul\":796:801   */\n      dup3\n        /* \"#utility.yul\":763:802   */\n      tag_229\n      jump\t// in\n    tag_296:\n        /* \"#utility.yul\":818:889   */\n      tag_297\n        /* \"#utility.yul\":882:888   */\n      dup2\n        /* \"#utility.yul\":877:880   */\n      dup6\n        /* \"#utility.yul\":818:889   */\n      tag_230\n      jump\t// in\n    tag_297:\n        /* \"#utility.yul\":811:889   */\n      swap4\n      pop\n        /* \"#utility.yul\":898:963   */\n      tag_298\n        /* \"#utility.yul\":956:962   */\n      dup2\n        /* \"#utility.yul\":951:954   */\n      dup6\n        /* \"#utility.yul\":944:948   */\n      0x20\n        /* \"#utility.yul\":937:942   */\n      dup7\n        /* \"#utility.yul\":933:949   */\n      add\n        /* \"#utility.yul\":898:963   */\n      tag_231\n      jump\t// in\n    tag_298:\n        /* \"#utility.yul\":988:1017   */\n      tag_299\n        /* \"#utility.yul\":1010:1016   */\n      dup2\n        /* \"#utility.yul\":988:1017   */\n      tag_232\n      jump\t// in\n    tag_299:\n        /* \"#utility.yul\":983:986   */\n      dup5\n        /* \"#utility.yul\":979:1018   */\n      add\n        /* \"#utility.yul\":972:1018   */\n      swap2\n      pop\n        /* \"#utility.yul\":739:1024   */\n      pop\n        /* \"#utility.yul\":647:1024   */\n      swap3\n      swap2\n      pop\n      pop\n      jump\t// out\n        /* \"#utility.yul\":1030:1343   */\n    tag_27:\n        /* \"#utility.yul\":1143:1147   */\n      0x00\n        /* \"#utility.yul\":1181:1183   */\n      0x20\n        /* \"#utility.yul\":1170:1179   */\n      dup3\n        /* \"#utility.yul\":1166:1184   */\n      add\n        /* \"#utility.yul\":1158:1184   */\n      swap1\n      pop\n        /* \"#utility.yul\":1230:1239   */\n      dup2\n        /* \"#utility.yul\":1224:1228   */\n      dup2\n        /* \"#utility.yul\":1220:1240   */\n      sub\n        /* \"#utility.yul\":1216:1217   */\n      0x00\n        /* \"#utility.yul\":1205:1214   */\n      dup4\n        /* \"#utility.yul\":1201:1218   */\n      add\n        /* \"#utility.yul\":1194:1241   */\n      mstore\n        /* \"#utility.yul\":1258:1336   */\n      tag_301\n        /* \"#utility.yul\":1331:1335   */\n      dup2\n        /* \"#utility.yul\":1322:1328   */\n      dup5\n        /* \"#utility.yul\":1258:1336   */\n      tag_233\n      jump\t// in\n    tag_301:\n        /* \"#utility.yul\":1250:1336   */\n      swap1\n      pop\n        /* \"#utility.yul\":1030:1343   */\n      swap3\n      swap2\n      pop\n      pop\n      jump\t// out\n        /* \"#utility.yul\":1349:1424   */\n    tag_234:\n        /* \"#utility.yul\":1382:1388   */\n      0x00\n        /* \"#utility.yul\":1415:1417   */\n      0x40\n        /* \"#utility.yul\":1409:1418   */\n      mload\n        /* \"#utility.yul\":1399:1418   */\n      swap1\n      pop\n        /* \"#utility.yul\":1349:1424   */\n      swap1\n      jump\t// out\n        /* \"#utility.yul\":1430:1547   */\n    tag_235:\n        /* \"#utility.yul\":1539:1540   */\n      0x00\n        /* \"#utility.yul\":1536:1537   */\n      dup1\n        /* \"#utility.yul\":1529:1541   */\n      revert\n        /* \"#utility.yul\":1553:1670   */\n    tag_236:\n        /* \"#utility.yul\":1662:1663   */\n      0x00\n        /* \"#utility.yul\":1659:1660   */\n      dup1\n        /* \"#utility.yul\":1652:1664   */\n      revert\n        /* \"#utility.yul\":1676:1802   */\n    tag_237:\n        /* \"#utility.yul\":1713:1720   */\n      0x00\n        /* \"#utility.yul\":1753:1795   */\n      0xffffffffffffffffffffffffffffffffffffffff\n        /* \"#utility.yul\":1746:1751   */\n      dup3\n        /* \"#utility.yul\":1742:1796   */\n      and\n        /* \"#utility.yul\":1731:1796   */\n      swap1\n      pop\n        /* \"#utility.yul\":1676:1802   */\n      swap2\n      swap1\n      pop\n      jump\t// out\n        /* \"#utility.yul\":1808:1904   */\n    tag_238:\n        /* \"#utility.yul\":1845:1852   */\n      0x00\n        /* \"#utility.yul\":1874:1898   */\n      tag_307\n        /* \"#utility.yul\":1892:1897   */\n      dup3\n        /* \"#utility.yul\":1874:1898   */\n      tag_237\n      jump\t// in\n    tag_307:\n        /* \"#utility.yul\":1863:1898   */\n      swap1\n      pop\n        /* \"#utility.yul\":1808:1904   */\n      swap2\n      swap1\n      pop\n      jump\t// out\n        /* \"#utility.yul\":1910:2032   */\n    tag_239:\n        /* \"#utility.yul\":1983:2007   */\n      tag_309\n        /* \"#utility.yul\":2001:2006   */\n      dup2\n        /* \"#utility.yul\":1983:2007   */\n      tag_238\n      jump\t// in\n    tag_309:\n        /* \"#utility.yul\":1976:1981   */\n      dup2\n        /* \"#utility.yul\":1973:2008   */\n      eq\n        /* \"#utility.yul\":1963:2026   */\n      tag_310\n      jumpi\n        /* \"#utility.yul\":2022:2023   */\n      0x00\n        /* \"#utility.yul\":2019:2020   */\n      dup1\n        /* \"#utility.yul\":2012:2024   */\n      revert\n        /* \"#utility.yul\":1963:2026   */\n    tag_310:\n        /* \"#utility.yul\":1910:2032   */\n      pop\n      jump\t// out\n        /* \"#utility.yul\":2038:2177   */\n    tag_240:\n        /* \"#utility.yul\":2084:2089   */\n      0x00\n        /* \"#utility.yul\":2122:2128   */\n      dup2\n        /* \"#utility.yul\":2109:2129   */\n      calldataload\n        /* \"#utility.yul\":2100:2129   */\n      swap1\n      pop\n        /* \"#utility.yul\":2138:2171   */\n      tag_312\n        /* \"#utility.yul\":2165:2170   */\n      dup2\n        /* \"#utility.yul\":2138:2171   */\n      tag_239\n      jump\t// in\n    tag_312:\n        /* \"#utility.yul\":2038:2177   */\n      swap3\n      swap2\n      pop\n      pop\n      jump\t// out\n        /* \"#utility.yul\":2183:2260   */\n    tag_241:\n        /* \"#utility.yul\":2220:2227   */\n      0x00\n        /* \"#utility.yul\":2249:2254   */\n      dup2\n        /* \"#utility.yul\":2238:2254   */\n      swap1\n      pop\n        /* \"#utility.yul\":2183:2260   */\n      swap2\n      swap1\n      pop\n      jump\t// out\n        /* \"#utility.yul\":2266:2388   */\n    tag_242:\n        /* \"#utility.yul\":2339:2363   */\n      tag_315\n        /* \"#utility.yul\":2357:2362   */\n      dup2\n        /* \"#utility.yul\":2339:2363   */\n      tag_241\n      jump\t// in\n    tag_315:\n        /* \"#utility.yul\":2332:2337   */\n      dup2\n        /* \"#utility.yul\":2329:2364   */\n      eq\n        /* \"#utility.yul\":2319:2382   */\n      tag_316\n      jumpi\n        /* \"#utility.yul\":2378:2379   */\n      0x00\n        /* \"#utility.yul\":2375:2376   */\n      dup1\n        /* \"#utility.yul\":2368:2380   */\n      revert\n        /* \"#utility.yul\":2319:2382   */\n    tag_316:\n        /* \"#utility.yul\":2266:2388   */\n      pop\n      jump\t// out\n        /* \"#utility.yul\":2394:2533   */\n    tag_243:\n        /* \"#utility.yul\":2440:2445   */\n      0x00\n        /* \"#utility.yul\":2478:2484   */\n      dup2\n        /* \"#utility.yul\":2465:2485   */\n      calldataload\n        /* \"#utility.yul\":2456:2485   */\n      swap1\n      pop\n        /* \"#utility.yul\":2494:2527   */\n      tag_318\n        /* \"#utility.yul\":2521:2526   */\n      dup2\n        /* \"#utility.yul\":2494:2527   */\n      tag_242\n      jump\t// in\n    tag_318:\n        /* \"#utility.yul\":2394:2533   */\n      swap3\n      swap2\n      pop\n      pop\n      jump\t// out\n        /* \"#utility.yul\":2539:3013   */\n    tag_30:\n        /* \"#utility.yul\":2607:2613   */\n      0x00\n        /* \"#utility.yul\":2615:2621   */\n      dup1\n        /* \"#utility.yul\":2664:2666   */\n      0x40\n        /* \"#utility.yul\":2652:2661   */\n      dup4\n        /* \"#utility.yul\":2643:2650   */\n      dup6\n        /* \"#utility.yul\":2639:2662   */\n      sub\n        /* \"#utility.yul\":2635:2667   */\n      slt\n        /* \"#utility.yul\":2632:2751   */\n      iszero\n      tag_320\n      jumpi\n        /* \"#utility.yul\":2670:2749   */\n      tag_321\n      tag_235\n      jump\t// in\n    tag_321:\n        /* \"#utility.yul\":2632:2751   */\n    tag_320:\n        /* \"#utility.yul\":2790:2791   */\n      0x00\n        /* \"#utility.yul\":2815:2868   */\n      tag_322\n        /* \"#utility.yul\":2860:2867   */\n      dup6\n        /* \"#utility.yul\":2851:2857   */\n      dup3\n        /* \"#utility.yul\":2840:2849   */\n      dup7\n        /* \"#utility.yul\":2836:2858   */\n      add\n        /* \"#utility.yul\":2815:2868   */\n      tag_240\n      jump\t// in\n    tag_322:\n        /* \"#utility.yul\":2805:2868   */\n      swap3\n      pop\n        /* \"#utility.yul\":2761:2878   */\n      pop\n        /* \"#utility.yul\":2917:2919   */\n      0x20\n        /* \"#utility.yul\":2943:2996   */\n      tag_323\n        /* \"#utility.yul\":2988:2995   */\n      dup6\n        /* \"#utility.yul\":2979:2985   */\n      dup3\n        /* \"#utility.yul\":2968:2977   */\n      dup7\n        /* \"#utility.yul\":2964:2986   */\n      add\n        /* \"#utility.yul\":2943:2996   */\n      tag_243\n      jump\t// in\n    tag_323:\n        /* \"#utility.yul\":2933:2996   */\n      swap2\n      pop\n        /* \"#utility.yul\":2888:3006   */\n      pop\n        /* \"#utility.yul\":2539:3013   */\n      swap3\n      pop\n      swap3\n      swap1\n      pop\n      jump\t// out\n        /* \"#utility.yul\":3019:3109   */\n    tag_244:\n        /* \"#utility.yul\":3053:3060   */\n      0x00\n        /* \"#utility.yul\":3096:3101   */\n      dup2\n        /* \"#utility.yul\":3089:3102   */\n      iszero\n        /* \"#utility.yul\":3082:3103   */\n      iszero\n        /* \"#utility.yul\":3071:3103   */\n      swap1\n      pop\n        /* \"#utility.yul\":3019:3109   */\n      swap2\n      swap1\n      pop\n      jump\t// out\n        /* \"#utility.yul\":3115:3224   */\n    tag_245:\n        /* \"#utility.yul\":3196:3217   */\n      tag_326\n        /* \"#utility.yul\":3211:3216   */\n      dup2\n        /* \"#utility.yul\":3196:3217   */\n      tag_244\n      jump\t// in\n    tag_326:\n        /* \"#utility.yul\":3191:3194   */\n      dup3\n        /* \"#utility.yul\":3184:3218   */\n      mstore\n        /* \"#utility.yul\":3115:3224   */\n      pop\n      pop\n      jump\t// out\n        /* \"#utility.yul\":3230:3440   */\n    tag_33:\n        /* \"#utility.yul\":3317:3321   */\n      0x00\n        /* \"#utility.yul\":3355:3357   */\n      0x20\n        /* \"#utility.yul\":3344:3353   */\n      dup3\n        /* \"#utility.yul\":3340:3358   */\n      add\n        /* \"#utility.yul\":3332:3358   */\n      swap1\n      pop\n        /* \"#utility.yul\":3368:3433   */\n      tag_328\n        /* \"#utility.yul\":3430:3431   */\n      0x00\n        /* \"#utility.yul\":3419:3428   */\n      dup4\n        /* \"#utility.yul\":3415:3432   */\n      add\n        /* \"#utility.yul\":3406:3412   */\n      dup5\n        /* \"#utility.yul\":3368:3433   */\n      tag_245\n      jump\t// in\n    tag_328:\n        /* \"#utility.yul\":3230:3440   */\n      swap3\n      swap2\n      pop\n      pop\n      jump\t// out\n        /* \"#utility.yul\":3446:3564   */\n    tag_246:\n        /* \"#utility.yul\":3533:3557   */\n      tag_330\n        /* \"#utility.yul\":3551:3556   */\n      dup2\n        /* \"#utility.yul\":3533:3557   */\n      tag_241\n      jump\t// in\n    tag_330:\n        /* \"#utility.yul\":3528:3531   */\n      dup3\n        /* \"#utility.yul\":3521:3558   */\n      mstore\n        /* \"#utility.yul\":3446:3564   */\n      pop\n      pop\n      jump\t// out\n        /* \"#utility.yul\":3570:3792   */\n    tag_37:\n        /* \"#utility.yul\":3663:3667   */\n      0x00\n        /* \"#utility.yul\":3701:3703   */\n      0x20\n        /* \"#utility.yul\":3690:3699   */\n      dup3\n        /* \"#utility.yul\":3686:3704   */\n      add\n        /* \"#utility.yul\":3678:3704   */\n      swap1\n      pop\n        /* \"#utility.yul\":3714:3785   */\n      tag_332\n        /* \"#utility.yul\":3782:3783   */\n      0x00\n        /* \"#utility.yul\":3771:3780   */\n      dup4\n        /* \"#utility.yul\":3767:3784   */\n      add\n        /* \"#utility.yul\":3758:3764   */\n      dup5\n        /* \"#utility.yul\":3714:3785   */\n      tag_246\n      jump\t// in\n    tag_332:\n        /* \"#utility.yul\":3570:3792   */\n      swap3\n      swap2\n      pop\n      pop\n      jump\t// out\n        /* \"#utility.yul\":3798:4417   */\n    tag_40:\n        /* \"#utility.yul\":3875:3881   */\n      0x00\n        /* \"#utility.yul\":3883:3889   */\n      dup1\n        /* \"#utility.yul\":3891:3897   */\n      0x00\n        /* \"#utility.yul\":3940:3942   */\n      0x60\n        /* \"#utility.yul\":3928:3937   */\n      dup5\n        /* \"#utility.yul\":3919:3926   */\n      dup7\n        /* \"#utility.yul\":3915:3938   */\n      sub\n        /* \"#utility.yul\":3911:3943   */\n      slt\n        /* \"#utility.yul\":3908:4027   */\n      iszero\n      tag_334\n      jumpi\n        /* \"#utility.yul\":3946:4025   */\n      tag_335\n      tag_235\n      jump\t// in\n    tag_335:\n        /* \"#utility.yul\":3908:4027   */\n    tag_334:\n        /* \"#utility.yul\":4066:4067   */\n      0x00\n        /* \"#utility.yul\":4091:4144   */\n      tag_336\n        /* \"#utility.yul\":4136:4143   */\n      dup7\n        /* \"#utility.yul\":4127:4133   */\n      dup3\n        /* \"#utility.yul\":4116:4125   */\n      dup8\n        /* \"#utility.yul\":4112:4134   */\n      add\n        /* \"#utility.yul\":4091:4144   */\n      tag_240\n      jump\t// in\n    tag_336:\n        /* \"#utility.yul\":4081:4144   */\n      swap4\n      pop\n        /* \"#utility.yul\":4037:4154   */\n      pop\n        /* \"#utility.yul\":4193:4195   */\n      0x20\n        /* \"#utility.yul\":4219:4272   */\n      tag_337\n        /* \"#utility.yul\":4264:4271   */\n      dup7\n        /* \"#utility.yul\":4255:4261   */\n      dup3\n        /* \"#utility.yul\":4244:4253   */\n      dup8\n        /* \"#utility.yul\":4240:4262   */\n      add\n        /* \"#utility.yul\":4219:4272   */\n      tag_240\n      jump\t// in\n    tag_337:\n        /* \"#utility.yul\":4209:4272   */\n      swap3\n      pop\n        /* \"#utility.yul\":4164:4282   */\n      pop\n        /* \"#utility.yul\":4321:4323   */\n      0x40\n        /* \"#utility.yul\":4347:4400   */\n      tag_338\n        /* \"#utility.yul\":4392:4399   */\n      dup7\n        /* \"#utility.yul\":4383:4389   */\n      dup3\n        /* \"#utility.yul\":4372:4381   */\n      dup8\n        /* \"#utility.yul\":4368:4390   */\n      add\n        /* \"#utility.yul\":4347:4400   */\n      tag_243\n      jump\t// in\n    tag_338:\n        /* \"#utility.yul\":4337:4400   */\n      swap2\n      pop\n        /* \"#utility.yul\":4292:4410   */\n      pop\n        /* \"#utility.yul\":3798:4417   */\n      swap3\n      pop\n      swap3\n      pop\n      swap3\n      jump\t// out\n        /* \"#utility.yul\":4423:4509   */\n    tag_247:\n        /* \"#utility.yul\":4458:4465   */\n      0x00\n        /* \"#utility.yul\":4498:4502   */\n      0xff\n        /* \"#utility.yul\":4491:4496   */\n      dup3\n        /* \"#utility.yul\":4487:4503   */\n      and\n        /* \"#utility.yul\":4476:4503   */\n      swap1\n      pop\n        /* \"#utility.yul\":4423:4509   */\n      swap2\n      swap1\n      pop\n      jump\t// out\n        /* \"#utility.yul\":4515:4627   */\n    tag_248:\n        /* \"#utility.yul\":4598:4620   */\n      tag_341\n        /* \"#utility.yul\":4614:4619   */\n      dup2\n        /* \"#utility.yul\":4598:4620   */\n      tag_247\n      jump\t// in\n    tag_341:\n        /* \"#utility.yul\":4593:4596   */\n      dup3\n        /* \"#utility.yul\":4586:4621   */\n      mstore\n        /* \"#utility.yul\":4515:4627   */\n      pop\n      pop\n      jump\t// out\n        /* \"#utility.yul\":4633:4847   */\n    tag_46:\n        /* \"#utility.yul\":4722:4726   */\n      0x00\n        /* \"#utility.yul\":4760:4762   */\n      0x20\n        /* \"#utility.yul\":4749:4758   */\n      dup3\n        /* \"#utility.yul\":4745:4763   */\n      add\n        /* \"#utility.yul\":4737:4763   */\n      swap1\n      pop\n        /* \"#utility.yul\":4773:4840   */\n      tag_343\n        /* \"#utility.yul\":4837:4838   */\n      0x00\n        /* \"#utility.yul\":4826:4835   */\n      dup4\n        /* \"#utility.yul\":4822:4839   */\n      add\n        /* \"#utility.yul\":4813:4819   */\n      dup5\n        /* \"#utility.yul\":4773:4840   */\n      tag_248\n      jump\t// in\n    tag_343:\n        /* \"#utility.yul\":4633:4847   */\n      swap3\n      swap2\n      pop\n      pop\n      jump\t// out\n        /* \"#utility.yul\":4853:4970   */\n    tag_249:\n        /* \"#utility.yul\":4962:4963   */\n      0x00\n        /* \"#utility.yul\":4959:4960   */\n      dup1\n        /* \"#utility.yul\":4952:4964   */\n      revert\n        /* \"#utility.yul\":4976:5093   */\n    tag_250:\n        /* \"#utility.yul\":5085:5086   */\n      0x00\n        /* \"#utility.yul\":5082:5083   */\n      dup1\n        /* \"#utility.yul\":5075:5087   */\n      revert\n        /* \"#utility.yul\":5099:5279   */\n    tag_251:\n        /* \"#utility.yul\":5147:5224   */\n      0x4e487b7100000000000000000000000000000000000000000000000000000000\n        /* \"#utility.yul\":5144:5145   */\n      0x00\n        /* \"#utility.yul\":5137:5225   */\n      mstore\n        /* \"#utility.yul\":5244:5248   */\n      0x41\n        /* \"#utility.yul\":5241:5242   */\n      0x04\n        /* \"#utility.yul\":5234:5249   */\n      mstore\n        /* \"#utility.yul\":5268:5272   */\n      0x24\n        /* \"#utility.yul\":5265:5266   */\n      0x00\n        /* \"#utility.yul\":5258:5273   */\n      revert\n        /* \"#utility.yul\":5285:5566   */\n    tag_252:\n        /* \"#utility.yul\":5368:5395   */\n      tag_348\n        /* \"#utility.yul\":5390:5394   */\n      dup3\n        /* \"#utility.yul\":5368:5395   */\n      tag_232\n      jump\t// in\n    tag_348:\n        /* \"#utility.yul\":5360:5366   */\n      dup2\n        /* \"#utility.yul\":5356:5396   */\n      add\n        /* \"#utility.yul\":5498:5504   */\n      dup2\n        /* \"#utility.yul\":5486:5496   */\n      dup2\n        /* \"#utility.yul\":5483:5505   */\n      lt\n        /* \"#utility.yul\":5462:5480   */\n      0xffffffffffffffff\n        /* \"#utility.yul\":5450:5460   */\n      dup3\n        /* \"#utility.yul\":5447:5481   */\n      gt\n        /* \"#utility.yul\":5444:5506   */\n      or\n        /* \"#utility.yul\":5441:5529   */\n      iszero\n      tag_349\n      jumpi\n        /* \"#utility.yul\":5509:5527   */\n      tag_350\n      tag_251\n      jump\t// in\n    tag_350:\n        /* \"#utility.yul\":5441:5529   */\n    tag_349:\n        /* \"#utility.yul\":5549:5559   */\n      dup1\n        /* \"#utility.yul\":5545:5547   */\n      0x40\n        /* \"#utility.yul\":5538:5560   */\n      mstore\n        /* \"#utility.yul\":5328:5566   */\n      pop\n        /* \"#utility.yul\":5285:5566   */\n      pop\n      pop\n      jump\t// out\n        /* \"#utility.yul\":5572:5701   */\n    tag_253:\n        /* \"#utility.yul\":5606:5612   */\n      0x00\n        /* \"#utility.yul\":5633:5653   */\n      tag_352\n      tag_234\n      jump\t// in\n    tag_352:\n        /* \"#utility.yul\":5623:5653   */\n      swap1\n      pop\n        /* \"#utility.yul\":5662:5695   */\n      tag_353\n        /* \"#utility.yul\":5690:5694   */\n      dup3\n        /* \"#utility.yul\":5682:5688   */\n      dup3\n        /* \"#utility.yul\":5662:5695   */\n      tag_252\n      jump\t// in\n    tag_353:\n        /* \"#utility.yul\":5572:5701   */\n      swap2\n      swap1\n      pop\n      jump\t// out\n        /* \"#utility.yul\":5707:6015   */\n    tag_254:\n        /* \"#utility.yul\":5769:5773   */\n      0x00\n        /* \"#utility.yul\":5859:5877   */\n      0xffffffffffffffff\n        /* \"#utility.yul\":5851:5857   */\n      dup3\n        /* \"#utility.yul\":5848:5878   */\n      gt\n        /* \"#utility.yul\":5845:5901   */\n      iszero\n      tag_355\n      jumpi\n        /* \"#utility.yul\":5881:5899   */\n      tag_356\n      tag_251\n      jump\t// in\n    tag_356:\n        /* \"#utility.yul\":5845:5901   */\n    tag_355:\n        /* \"#utility.yul\":5919:5948   */\n      tag_357\n        /* \"#utility.yul\":5941:5947   */\n      dup3\n        /* \"#utility.yul\":5919:5948   */\n      tag_232\n      jump\t// in\n    tag_357:\n        /* \"#utility.yul\":5911:5948   */\n      swap1\n      pop\n        /* \"#utility.yul\":6003:6007   */\n      0x20\n        /* \"#utility.yul\":5997:6001   */\n      dup2\n        /* \"#utility.yul\":5993:6008   */\n      add\n        /* \"#utility.yul\":5985:6008   */\n      swap1\n      pop\n        /* \"#utility.yul\":5707:6015   */\n      swap2\n      swap1\n      pop\n      jump\t// out\n        /* \"#utility.yul\":6021:6167   */\n    tag_255:\n        /* \"#utility.yul\":6118:6124   */\n      dup3\n        /* \"#utility.yul\":6113:6116   */\n      dup2\n        /* \"#utility.yul\":6108:6111   */\n      dup4\n        /* \"#utility.yul\":6095:6125   */\n      calldatacopy\n        /* \"#utility.yul\":6159:6160   */\n      0x00\n        /* \"#utility.yul\":6150:6156   */\n      dup4\n        /* \"#utility.yul\":6145:6148   */\n      dup4\n        /* \"#utility.yul\":6141:6157   */\n      add\n        /* \"#utility.yul\":6134:6161   */\n      mstore\n        /* \"#utility.yul\":6021:6167   */\n      pop\n      pop\n      pop\n      jump\t// out\n        /* \"#utility.yul\":6173:6598   */\n    tag_256:\n        /* \"#utility.yul\":6251:6256   */\n      0x00\n        /* \"#utility.yul\":6276:6342   */\n      tag_360\n        /* \"#utility.yul\":6292:6341   */\n      tag_361\n        /* \"#utility.yul\":6334:6340   */\n      dup5\n        /* \"#utility.yul\":6292:6341   */\n      tag_254\n      jump\t// in\n    tag_361:\n        /* \"#utility.yul\":6276:6342   */\n      tag_253\n      jump\t// in\n    tag_360:\n        /* \"#utility.yul\":6267:6342   */\n      swap1\n      pop\n        /* \"#utility.yul\":6365:6371   */\n      dup3\n        /* \"#utility.yul\":6358:6363   */\n      dup2\n        /* \"#utility.yul\":6351:6372   */\n      mstore\n        /* \"#utility.yul\":6403:6407   */\n      0x20\n        /* \"#utility.yul\":6396:6401   */\n      dup2\n        /* \"#utility.yul\":6392:6408   */\n      add\n        /* \"#utility.yul\":6441:6444   */\n      dup5\n        /* \"#utility.yul\":6432:6438   */\n      dup5\n        /* \"#utility.yul\":6427:6430   */\n      dup5\n        /* \"#utility.yul\":6423:6439   */\n      add\n        /* \"#utility.yul\":6420:6445   */\n      gt\n        /* \"#utility.yul\":6417:6529   */\n      iszero\n      tag_362\n      jumpi\n        /* \"#utility.yul\":6448:6527   */\n      tag_363\n      tag_250\n      jump\t// in\n    tag_363:\n        /* \"#utility.yul\":6417:6529   */\n    tag_362:\n        /* \"#utility.yul\":6538:6592   */\n      tag_364\n        /* \"#utility.yul\":6585:6591   */\n      dup5\n        /* \"#utility.yul\":6580:6583   */\n      dup3\n        /* \"#utility.yul\":6575:6578   */\n      dup6\n        /* \"#utility.yul\":6538:6592   */\n      tag_255\n      jump\t// in\n    tag_364:\n        /* \"#utility.yul\":6257:6598   */\n      pop\n        /* \"#utility.yul\":6173:6598   */\n      swap4\n      swap3\n      pop\n      pop\n      pop\n      jump\t// out\n        /* \"#utility.yul\":6618:6958   */\n    tag_257:\n        /* \"#utility.yul\":6674:6679   */\n      0x00\n        /* \"#utility.yul\":6723:6726   */\n      dup3\n        /* \"#utility.yul\":6716:6720   */\n      0x1f\n        /* \"#utility.yul\":6708:6714   */\n      dup4\n        /* \"#utility.yul\":6704:6721   */\n      add\n        /* \"#utility.yul\":6700:6727   */\n      slt\n        /* \"#utility.yul\":6690:6812   */\n      tag_366\n      jumpi\n        /* \"#utility.yul\":6731:6810   */\n      tag_367\n      tag_249\n      jump\t// in\n    tag_367:\n        /* \"#utility.yul\":6690:6812   */\n    tag_366:\n        /* \"#utility.yul\":6848:6854   */\n      dup2\n        /* \"#utility.yul\":6835:6855   */\n      calldataload\n        /* \"#utility.yul\":6873:6952   */\n      tag_368\n        /* \"#utility.yul\":6948:6951   */\n      dup5\n        /* \"#utility.yul\":6940:6946   */\n      dup3\n        /* \"#utility.yul\":6933:6937   */\n      0x20\n        /* \"#utility.yul\":6925:6931   */\n      dup7\n        /* \"#utility.yul\":6921:6938   */\n      add\n        /* \"#utility.yul\":6873:6952   */\n      tag_256\n      jump\t// in\n    tag_368:\n        /* \"#utility.yul\":6864:6952   */\n      swap2\n      pop\n        /* \"#utility.yul\":6680:6958   */\n      pop\n        /* \"#utility.yul\":6618:6958   */\n      swap3\n      swap2\n      pop\n      pop\n      jump\t// out\n        /* \"#utility.yul\":6964:7798   */\n    tag_54:\n        /* \"#utility.yul\":7052:7058   */\n      0x00\n        /* \"#utility.yul\":7060:7066   */\n      dup1\n        /* \"#utility.yul\":7109:7111   */\n      0x40\n        /* \"#utility.yul\":7097:7106   */\n      dup4\n        /* \"#utility.yul\":7088:7095   */\n      dup6\n        /* \"#utility.yul\":7084:7107   */\n      sub\n        /* \"#utility.yul\":7080:7112   */\n      slt\n        /* \"#utility.yul\":7077:7196   */\n      iszero\n      tag_370\n      jumpi\n        /* \"#utility.yul\":7115:7194   */\n      tag_371\n      tag_235\n      jump\t// in\n    tag_371:\n        /* \"#utility.yul\":7077:7196   */\n    tag_370:\n        /* \"#utility.yul\":7263:7264   */\n      0x00\n        /* \"#utility.yul\":7252:7261   */\n      dup4\n        /* \"#utility.yul\":7248:7265   */\n      add\n        /* \"#utility.yul\":7235:7266   */\n      calldataload\n        /* \"#utility.yul\":7293:7311   */\n      0xffffffffffffffff\n        /* \"#utility.yul\":7285:7291   */\n      dup2\n        /* \"#utility.yul\":7282:7312   */\n      gt\n        /* \"#utility.yul\":7279:7396   */\n      iszero\n      tag_372\n      jumpi\n        /* \"#utility.yul\":7315:7394   */\n      tag_373\n      tag_236\n      jump\t// in\n    tag_373:\n        /* \"#utility.yul\":7279:7396   */\n    tag_372:\n        /* \"#utility.yul\":7420:7483   */\n      tag_374\n        /* \"#utility.yul\":7475:7482   */\n      dup6\n        /* \"#utility.yul\":7466:7472   */\n      dup3\n        /* \"#utility.yul\":7455:7464   */\n      dup7\n        /* \"#utility.yul\":7451:7473   */\n      add\n        /* \"#utility.yul\":7420:7483   */\n      tag_257\n      jump\t// in\n    tag_374:\n        /* \"#utility.yul\":7410:7483   */\n      swap3\n      pop\n        /* \"#utility.yul\":7206:7493   */\n      pop\n        /* \"#utility.yul\":7560:7562   */\n      0x20\n        /* \"#utility.yul\":7549:7558   */\n      dup4\n        /* \"#utility.yul\":7545:7563   */\n      add\n        /* \"#utility.yul\":7532:7564   */\n      calldataload\n        /* \"#utility.yul\":7591:7609   */\n      0xffffffffffffffff\n        /* \"#utility.yul\":7583:7589   */\n      dup2\n        /* \"#utility.yul\":7580:7610   */\n      gt\n        /* \"#utility.yul\":7577:7694   */\n      iszero\n      tag_375\n      jumpi\n        /* \"#utility.yul\":7613:7692   */\n      tag_376\n      tag_236\n      jump\t// in\n    tag_376:\n        /* \"#utility.yul\":7577:7694   */\n    tag_375:\n        /* \"#utility.yul\":7718:7781   */\n      tag_377\n        /* \"#utility.yul\":7773:7780   */\n      dup6\n        /* \"#utility.yul\":7764:7770   */\n      dup3\n        /* \"#utility.yul\":7753:7762   */\n      dup7\n        /* \"#utility.yul\":7749:7771   */\n      add\n        /* \"#utility.yul\":7718:7781   */\n      tag_257\n      jump\t// in\n    tag_377:\n        /* \"#utility.yul\":7708:7781   */\n      swap2\n      pop\n        /* \"#utility.yul\":7503:7791   */\n      pop\n        /* \"#utility.yul\":6964:7798   */\n      swap3\n      pop\n      swap3\n      swap1\n      pop\n      jump\t// out\n        /* \"#utility.yul\":7804:8133   */\n    tag_64:\n        /* \"#utility.yul\":7863:7869   */\n      0x00\n        /* \"#utility.yul\":7912:7914   */\n      0x20\n        /* \"#utility.yul\":7900:7909   */\n      dup3\n        /* \"#utility.yul\":7891:7898   */\n      dup5\n        /* \"#utility.yul\":7887:7910   */\n      sub\n        /* \"#utility.yul\":7883:7915   */\n      slt\n        /* \"#utility.yul\":7880:7999   */\n      iszero\n      tag_379\n      jumpi\n        /* \"#utility.yul\":7918:7997   */\n      tag_380\n      tag_235\n      jump\t// in\n    tag_380:\n        /* \"#utility.yul\":7880:7999   */\n    tag_379:\n        /* \"#utility.yul\":8038:8039   */\n      0x00\n        /* \"#utility.yul\":8063:8116   */\n      tag_381\n        /* \"#utility.yul\":8108:8115   */\n      dup5\n        /* \"#utility.yul\":8099:8105   */\n      dup3\n        /* \"#utility.yul\":8088:8097   */\n      dup6\n        /* \"#utility.yul\":8084:8106   */\n      add\n        /* \"#utility.yul\":8063:8116   */\n      tag_240\n      jump\t// in\n    tag_381:\n        /* \"#utility.yul\":8053:8116   */\n      swap2\n      pop\n        /* \"#utility.yul\":8009:8126   */\n      pop\n        /* \"#utility.yul\":7804:8133   */\n      swap3\n      swap2\n      pop\n      pop\n      jump\t// out\n        /* \"#utility.yul\":8139:8257   */\n    tag_258:\n        /* \"#utility.yul\":8226:8250   */\n      tag_383\n        /* \"#utility.yul\":8244:8249   */\n      dup2\n        /* \"#utility.yul\":8226:8250   */\n      tag_238\n      jump\t// in\n    tag_383:\n        /* \"#utility.yul\":8221:8224   */\n      dup3\n        /* \"#utility.yul\":8214:8251   */\n      mstore\n        /* \"#utility.yul\":8139:8257   */\n      pop\n      pop\n      jump\t// out\n        /* \"#utility.yul\":8263:8485   */\n    tag_72:\n        /* \"#utility.yul\":8356:8360   */\n      0x00\n        /* \"#utility.yul\":8394:8396   */\n      0x20\n        /* \"#utility.yul\":8383:8392   */\n      dup3\n        /* \"#utility.yul\":8379:8397   */\n      add\n        /* \"#utility.yul\":8371:8397   */\n      swap1\n      pop\n        /* \"#utility.yul\":8407:8478   */\n      tag_385\n        /* \"#utility.yul\":8475:8476   */\n      0x00\n        /* \"#utility.yul\":8464:8473   */\n      dup4\n        /* \"#utility.yul\":8460:8477   */\n      add\n        /* \"#utility.yul\":8451:8457   */\n      dup5\n        /* \"#utility.yul\":8407:8478   */\n      tag_258\n      jump\t// in\n    tag_385:\n        /* \"#utility.yul\":8263:8485   */\n      swap3\n      swap2\n      pop\n      pop\n      jump\t// out\n        /* \"#utility.yul\":8491:8965   */\n    tag_84:\n        /* \"#utility.yul\":8559:8565   */\n      0x00\n        /* \"#utility.yul\":8567:8573   */\n      dup1\n        /* \"#utility.yul\":8616:8618   */\n      0x40\n        /* \"#utility.yul\":8604:8613   */\n      dup4\n        /* \"#utility.yul\":8595:8602   */\n      dup6\n        /* \"#utility.yul\":8591:8614   */\n      sub\n        /* \"#utility.yul\":8587:8619   */\n      slt\n        /* \"#utility.yul\":8584:8703   */\n      iszero\n      tag_387\n      jumpi\n        /* \"#utility.yul\":8622:8701   */\n      tag_388\n      tag_235\n      jump\t// in\n    tag_388:\n        /* \"#utility.yul\":8584:8703   */\n    tag_387:\n        /* \"#utility.yul\":8742:8743   */\n      0x00\n        /* \"#utility.yul\":8767:8820   */\n      tag_389\n        /* \"#utility.yul\":8812:8819   */\n      dup6\n        /* \"#utility.yul\":8803:8809   */\n      dup3\n        /* \"#utility.yul\":8792:8801   */\n      dup7\n        /* \"#utility.yul\":8788:8810   */\n      add\n        /* \"#utility.yul\":8767:8820   */\n      tag_240\n      jump\t// in\n    tag_389:\n        /* \"#utility.yul\":8757:8820   */\n      swap3\n      pop\n        /* \"#utility.yul\":8713:8830   */\n      pop\n        /* \"#utility.yul\":8869:8871   */\n      0x20\n        /* \"#utility.yul\":8895:8948   */\n      tag_390\n        /* \"#utility.yul\":8940:8947   */\n      dup6\n        /* \"#utility.yul\":8931:8937   */\n      dup3\n        /* \"#utility.yul\":8920:8929   */\n      dup7\n        /* \"#utility.yul\":8916:8938   */\n      add\n        /* \"#utility.yul\":8895:8948   */\n      tag_240\n      jump\t// in\n    tag_390:\n        /* \"#utility.yul\":8885:8948   */\n      swap2\n      pop\n        /* \"#utility.yul\":8840:8958   */\n      pop\n        /* \"#utility.yul\":8491:8965   */\n      swap3\n      pop\n      swap3\n      swap1\n      pop\n      jump\t// out\n        /* \"#utility.yul\":8971:9151   */\n    tag_259:\n        /* \"#utility.yul\":9019:9096   */\n      0x4e487b7100000000000000000000000000000000000000000000000000000000\n        /* \"#utility.yul\":9016:9017   */\n      0x00\n        /* \"#utility.yul\":9009:9097   */\n      mstore\n        /* \"#utility.yul\":9116:9120   */\n      0x22\n        /* \"#utility.yul\":9113:9114   */\n      0x04\n        /* \"#utility.yul\":9106:9121   */\n      mstore\n        /* \"#utility.yul\":9140:9144   */\n      0x24\n        /* \"#utility.yul\":9137:9138   */\n      0x00\n        /* \"#utility.yul\":9130:9145   */\n      revert\n        /* \"#utility.yul\":9157:9477   */\n    tag_92:\n        /* \"#utility.yul\":9201:9207   */\n      0x00\n        /* \"#utility.yul\":9238:9239   */\n      0x02\n        /* \"#utility.yul\":9232:9236   */\n      dup3\n        /* \"#utility.yul\":9228:9240   */\n      div\n        /* \"#utility.yul\":9218:9240   */\n      swap1\n      pop\n        /* \"#utility.yul\":9285:9286   */\n      0x01\n        /* \"#utility.yul\":9279:9283   */\n      dup3\n        /* \"#utility.yul\":9275:9287   */\n      and\n        /* \"#utility.yul\":9306:9324   */\n      dup1\n        /* \"#utility.yul\":9296:9377   */\n      tag_393\n      jumpi\n        /* \"#utility.yul\":9362:9366   */\n      0x7f\n        /* \"#utility.yul\":9354:9360   */\n      dup3\n        /* \"#utility.yul\":9350:9367   */\n      and\n        /* \"#utility.yul\":9340:9367   */\n      swap2\n      pop\n        /* \"#utility.yul\":9296:9377   */\n    tag_393:\n        /* \"#utility.yul\":9424:9426   */\n      0x20\n        /* \"#utility.yul\":9416:9422   */\n      dup3\n        /* \"#utility.yul\":9413:9427   */\n      lt\n        /* \"#utility.yul\":9393:9411   */\n      dup2\n        /* \"#utility.yul\":9390:9428   */\n      sub\n        /* \"#utility.yul\":9387:9471   */\n      tag_394\n      jumpi\n        /* \"#utility.yul\":9443:9461   */\n      tag_395\n      tag_259\n      jump\t// in\n    tag_395:\n        /* \"#utility.yul\":9387:9471   */\n    tag_394:\n        /* \"#utility.yul\":9208:9477   */\n      pop\n        /* \"#utility.yul\":9157:9477   */\n      swap2\n      swap1\n      pop\n      jump\t// out\n        /* \"#utility.yul\":9483:9649   */\n    tag_260:\n        /* \"#utility.yul\":9623:9641   */\n      0x5061757361626c653a2070617573656400000000000000000000000000000000\n        /* \"#utility.yul\":9619:9620   */\n      0x00\n        /* \"#utility.yul\":9611:9617   */\n      dup3\n        /* \"#utility.yul\":9607:9621   */\n      add\n        /* \"#utility.yul\":9600:9642   */\n      mstore\n        /* \"#utility.yul\":9483:9649   */\n      pop\n      jump\t// out\n        /* \"#utility.yul\":9655:10021   */\n    tag_261:\n        /* \"#utility.yul\":9797:9800   */\n      0x00\n        /* \"#utility.yul\":9818:9885   */\n      tag_398\n        /* \"#utility.yul\":9882:9884   */\n      0x10\n        /* \"#utility.yul\":9877:9880   */\n      dup4\n        /* \"#utility.yul\":9818:9885   */\n      tag_230\n      jump\t// in\n    tag_398:\n        /* \"#utility.yul\":9811:9885   */\n      swap2\n      pop\n        /* \"#utility.yul\":9894:9987   */\n      tag_399\n        /* \"#utility.yul\":9983:9986   */\n      dup3\n        /* \"#utility.yul\":9894:9987   */\n      tag_260\n      jump\t// in\n    tag_399:\n        /* \"#utility.yul\":10012:10014   */\n      0x20\n        /* \"#utility.yul\":10007:10010   */\n      dup3\n        /* \"#utility.yul\":10003:10015   */\n      add\n        /* \"#utility.yul\":9996:10015   */\n      swap1\n      pop\n        /* \"#utility.yul\":9655:10021   */\n      swap2\n      swap1\n      pop\n      jump\t// out\n        /* \"#utility.yul\":10027:10446   */\n    tag_105:\n        /* \"#utility.yul\":10193:10197   */\n      0x00\n        /* \"#utility.yul\":10231:10233   */\n      0x20\n        /* \"#utility.yul\":10220:10229   */\n      dup3\n        /* \"#utility.yul\":10216:10234   */\n      add\n        /* \"#utility.yul\":10208:10234   */\n      swap1\n      pop\n        /* \"#utility.yul\":10280:10289   */\n      dup2\n        /* \"#utility.yul\":10274:10278   */\n      dup2\n        /* \"#utility.yul\":10270:10290   */\n      sub\n        /* \"#utility.yul\":10266:10267   */\n      0x00\n        /* \"#utility.yul\":10255:10264   */\n      dup4\n        /* \"#utility.yul\":10251:10268   */\n      add\n        /* \"#utility.yul\":10244:10291   */\n      mstore\n        /* \"#utility.yul\":10308:10439   */\n      tag_401\n        /* \"#utility.yul\":10434:10438   */\n      dup2\n        /* \"#utility.yul\":10308:10439   */\n      tag_261\n      jump\t// in\n    tag_401:\n        /* \"#utility.yul\":10300:10439   */\n      swap1\n      pop\n        /* \"#utility.yul\":10027:10446   */\n      swap2\n      swap1\n      pop\n      jump\t// out\n        /* \"#utility.yul\":10452:10672   */\n    tag_262:\n        /* \"#utility.yul\":10592:10626   */\n      0x4f6e6c79206f776e65722063616e2063616c6c20746869732066756e6374696f\n        /* \"#utility.yul\":10588:10589   */\n      0x00\n        /* \"#utility.yul\":10580:10586   */\n      dup3\n        /* \"#utility.yul\":10576:10590   */\n      add\n        /* \"#utility.yul\":10569:10627   */\n      mstore\n        /* \"#utility.yul\":10661:10664   */\n      0x6e00000000000000000000000000000000000000000000000000000000000000\n        /* \"#utility.yul\":10656:10658   */\n      0x20\n        /* \"#utility.yul\":10648:10654   */\n      dup3\n        /* \"#utility.yul\":10644:10659   */\n      add\n        /* \"#utility.yul\":10637:10665   */\n      mstore\n        /* \"#utility.yul\":10452:10672   */\n      pop\n      jump\t// out\n        /* \"#utility.yul\":10678:11044   */\n    tag_263:\n        /* \"#utility.yul\":10820:10823   */\n      0x00\n        /* \"#utility.yul\":10841:10908   */\n      tag_404\n        /* \"#utility.yul\":10905:10907   */\n      0x21\n        /* \"#utility.yul\":10900:10903   */\n      dup4\n        /* \"#utility.yul\":10841:10908   */\n      tag_230\n      jump\t// in\n    tag_404:\n        /* \"#utility.yul\":10834:10908   */\n      swap2\n      pop\n        /* \"#utility.yul\":10917:11010   */\n      tag_405\n        /* \"#utility.yul\":11006:11009   */\n      dup3\n        /* \"#utility.yul\":10917:11010   */\n      tag_262\n      jump\t// in\n    tag_405:\n        /* \"#utility.yul\":11035:11037   */\n      0x40\n        /* \"#utility.yul\":11030:11033   */\n      dup3\n        /* \"#utility.yul\":11026:11038   */\n      add\n        /* \"#utility.yul\":11019:11038   */\n      swap1\n      pop\n        /* \"#utility.yul\":10678:11044   */\n      swap2\n      swap1\n      pop\n      jump\t// out\n        /* \"#utility.yul\":11050:11469   */\n    tag_117:\n        /* \"#utility.yul\":11216:11220   */\n      0x00\n        /* \"#utility.yul\":11254:11256   */\n      0x20\n        /* \"#utility.yul\":11243:11252   */\n      dup3\n        /* \"#utility.yul\":11239:11257   */\n      add\n        /* \"#utility.yul\":11231:11257   */\n      swap1\n      pop\n        /* \"#utility.yul\":11303:11312   */\n      dup2\n        /* \"#utility.yul\":11297:11301   */\n      dup2\n        /* \"#utility.yul\":11293:11313   */\n      sub\n        /* \"#utility.yul\":11289:11290   */\n      0x00\n        /* \"#utility.yul\":11278:11287   */\n      dup4\n        /* \"#utility.yul\":11274:11291   */\n      add\n        /* \"#utility.yul\":11267:11314   */\n      mstore\n        /* \"#utility.yul\":11331:11462   */\n      tag_407\n        /* \"#utility.yul\":11457:11461   */\n      dup2\n        /* \"#utility.yul\":11331:11462   */\n      tag_263\n      jump\t// in\n    tag_407:\n        /* \"#utility.yul\":11323:11462   */\n      swap1\n      pop\n        /* \"#utility.yul\":11050:11469   */\n      swap2\n      swap1\n      pop\n      jump\t// out\n        /* \"#utility.yul\":11475:11616   */\n    tag_264:\n        /* \"#utility.yul\":11524:11528   */\n      0x00\n        /* \"#utility.yul\":11547:11550   */\n      dup2\n        /* \"#utility.yul\":11539:11550   */\n      swap1\n      pop\n        /* \"#utility.yul\":11570:11573   */\n      dup2\n        /* \"#utility.yul\":11567:11568   */\n      0x00\n        /* \"#utility.yul\":11560:11574   */\n      mstore\n        /* \"#utility.yul\":11604:11608   */\n      0x20\n        /* \"#utility.yul\":11601:11602   */\n      0x00\n        /* \"#utility.yul\":11591:11609   */\n      keccak256\n        /* \"#utility.yul\":11583:11609   */\n      swap1\n      pop\n        /* \"#utility.yul\":11475:11616   */\n      swap2\n      swap1\n      pop\n      jump\t// out\n        /* \"#utility.yul\":11622:11715   */\n    tag_265:\n        /* \"#utility.yul\":11659:11665   */\n      0x00\n        /* \"#utility.yul\":11706:11708   */\n      0x20\n        /* \"#utility.yul\":11701:11703   */\n      0x1f\n        /* \"#utility.yul\":11694:11699   */\n      dup4\n        /* \"#utility.yul\":11690:11704   */\n      add\n        /* \"#utility.yul\":11686:11709   */\n      div\n        /* \"#utility.yul\":11676:11709   */\n      swap1\n      pop\n        /* \"#utility.yul\":11622:11715   */\n      swap2\n      swap1\n      pop\n      jump\t// out\n        /* \"#utility.yul\":11721:11828   */\n    tag_266:\n        /* \"#utility.yul\":11765:11773   */\n      0x00\n        /* \"#utility.yul\":11815:11820   */\n      dup3\n        /* \"#utility.yul\":11809:11813   */\n      dup3\n        /* \"#utility.yul\":11805:11821   */\n      shl\n        /* \"#utility.yul\":11784:11821   */\n      swap1\n      pop\n        /* \"#utility.yul\":11721:11828   */\n      swap3\n      swap2\n      pop\n      pop\n      jump\t// out\n        /* \"#utility.yul\":11834:12227   */\n    tag_267:\n        /* \"#utility.yul\":11903:11909   */\n      0x00\n        /* \"#utility.yul\":11953:11954   */\n      0x08\n        /* \"#utility.yul\":11941:11951   */\n      dup4\n        /* \"#utility.yul\":11937:11955   */\n      mul\n        /* \"#utility.yul\":11976:12073   */\n      tag_412\n        /* \"#utility.yul\":12006:12072   */\n      0xffffffffffffffffffffffffffffffffffffffffffffffffffffffffffffffff\n        /* \"#utility.yul\":11995:12004   */\n      dup3\n        /* \"#utility.yul\":11976:12073   */\n      tag_266\n      jump\t// in\n    tag_412:\n        /* \"#utility.yul\":12094:12133   */\n      tag_413\n        /* \"#utility.yul\":12124:12132   */\n      dup7\n        /* \"#utility.yul\":12113:12122   */\n      dup4\n        /* \"#utility.yul\":12094:12133   */\n      tag_266\n      jump\t// in\n    tag_413:\n        /* \"#utility.yul\":12082:12133   */\n      swap6\n      pop\n        /* \"#utility.yul\":12166:12170   */\n      dup1\n        /* \"#utility.yul\":12162:12171   */\n      not\n        /* \"#utility.yul\":12155:12160   */\n      dup5\n        /* \"#utility.yul\":12151:12172   */\n      and\n        /* \"#utility.yul\":12142:12172   */\n      swap4\n      pop\n        /* \"#utility.yul\":12215:12219   */\n      dup1\n        /* \"#utility.yul\":12205:12213   */\n      dup7\n        /* \"#utility.yul\":12201:12220   */\n      and\n        /* \"#utility.yul\":12194:12199   */\n      dup5\n        /* \"#utility.yul\":12191:12221   */\n      or\n        /* \"#utility.yul\":12181:12221   */\n      swap3\n      pop\n        /* \"#utility.yul\":11910:12227   */\n      pop\n      pop\n        /* \"#utility.yul\":11834:12227   */\n      swap4\n      swap3\n      pop\n      pop\n      pop\n      jump\t// out\n        /* \"#utility.yul\":12233:12293   */\n    tag_268:\n        /* \"#utility.yul\":12261:12264   */\n      0x00\n        /* \"#utility.yul\":12282:12287   */\n      dup2\n        /* \"#utility.yul\":12275:12287   */\n      swap1\n      pop\n        /* \"#utility.yul\":12233:12293   */\n      swap2\n      swap1\n      pop\n      jump\t// out\n        /* \"#utility.yul\":12299:12441   */\n    tag_269:\n        /* \"#utility.yul\":12349:12358   */\n      0x00\n        /* \"#utility.yul\":12382:12435   */\n      tag_416\n        /* \"#utility.yul\":12400:12434   */\n      tag_417\n        /* \"#utility.yul\":12409:12433   */\n      tag_418\n        /* \"#utility.yul\":12427:12432   */\n      dup5\n        /* \"#utility.yul\":12409:12433   */\n      tag_241\n      jump\t// in\n    tag_418:\n        /* \"#utility.yul\":12400:12434   */\n      tag_268\n      jump\t// in\n    tag_417:\n        /* \"#utility.yul\":12382:12435   */\n      tag_241\n      jump\t// in\n    tag_416:\n        /* \"#utility.yul\":12369:12435   */\n      swap1\n      pop\n        /* \"#utility.yul\":12299:12441   */\n      swap2\n      swap1\n      pop\n      jump\t// out\n        /* \"#utility.yul\":12447:12522   */\n    tag_270:\n        /* \"#utility.yul\":12490:12493   */\n      0x00\n        /* \"#utility.yul\":12511:12516   */\n      dup2\n        /* \"#utility.yul\":12504:12516   */\n      swap1\n      pop\n        /* \"#utility.yul\":12447:12522   */\n      swap2\n      swap1\n      pop\n      jump\t// out\n        /* \"#utility.yul\":12528:12797   */\n    tag_271:\n        /* \"#utility.yul\":12638:12677   */\n      tag_421\n        /* \"#utility.yul\":12669:12676   */\n      dup4\n        /* \"#utility.yul\":12638:12677   */\n      tag_269\n      jump\t// in\n    tag_421:\n        /* \"#utility.yul\":12699:12790   */\n      tag_422\n        /* \"#utility.yul\":12748:12789   */\n      tag_423\n        /* \"#utility.yul\":12772:12788   */\n      dup3\n        /* \"#utility.yul\":12748:12789   */\n      tag_270\n      jump\t// in\n    tag_423:\n        /* \"#utility.yul\":12740:12746   */\n      dup5\n        /* \"#utility.yul\":12733:12737   */\n      dup5\n        /* \"#utility.yul\":12727:12738   */\n      sload\n        /* \"#utility.yul\":12699:12790   */\n      tag_267\n      jump\t// in\n    tag_422:\n        /* \"#utility.yul\":12693:12697   */\n      dup3\n        /* \"#utility.yul\":12686:12791   */\n      sstore\n        /* \"#utility.yul\":12604:12797   */\n      pop\n        /* \"#utility.yul\":12528:12797   */\n      pop\n      pop\n      pop\n      jump\t// out\n        /* \"#utility.yul\":12803:12876   */\n    tag_272:\n        /* \"#utility.yul\":12848:12851   */\n      0x00\n        /* \"#utility.yul\":12803:12876   */\n      swap1\n      jump\t// out\n        /* \"#utility.yul\":12882:13071   */\n    tag_273:\n        /* \"#utility.yul\":12959:12991   */\n      tag_426\n      tag_272\n      jump\t// in\n    tag_426:\n        /* \"#utility.yul\":13000:13065   */\n      tag_427\n        /* \"#utility.yul\":13058:13064   */\n      dup2\n        /* \"#utility.yul\":13050:13056   */\n      dup5\n        /* \"#utility.yul\":13044:13048   */\n      dup5\n        /* \"#utility.yul\":13000:13065   */\n      tag_271\n      jump\t// in\n    tag_427:\n        /* \"#utility.yul\":12935:13071   */\n      pop\n        /* \"#utility.yul\":12882:13071   */\n      pop\n      pop\n      jump\t// out\n        /* \"#utility.yul\":13077:13263   */\n    tag_274:\n        /* \"#utility.yul\":13137:13257   */\n    tag_429:\n        /* \"#utility.yul\":13154:13157   */\n      dup2\n        /* \"#utility.yul\":13147:13152   */\n      dup2\n        /* \"#utility.yul\":13144:13158   */\n      lt\n        /* \"#utility.yul\":13137:13257   */\n      iszero\n      tag_431\n      jumpi\n        /* \"#utility.yul\":13208:13247   */\n      tag_432\n        /* \"#utility.yul\":13245:13246   */\n      0x00\n        /* \"#utility.yul\":13238:13243   */\n      dup3\n        /* \"#utility.yul\":13208:13247   */\n      tag_273\n      jump\t// in\n    tag_432:\n        /* \"#utility.yul\":13181:13182   */\n      0x01\n        /* \"#utility.yul\":13174:13179   */\n      dup2\n        /* \"#utility.yul\":13170:13183   */\n      add\n        /* \"#utility.yul\":13161:13183   */\n      swap1\n      pop\n        /* \"#utility.yul\":13137:13257   */\n      jump(tag_429)\n    tag_431:\n        /* \"#utility.yul\":13077:13263   */\n      pop\n      pop\n      jump\t// out\n        /* \"#utility.yul\":13269:13812   */\n    tag_275:\n        /* \"#utility.yul\":13370:13372   */\n      0x1f\n        /* \"#utility.yul\":13365:13368   */\n      dup3\n        /* \"#utility.yul\":13362:13373   */\n      gt\n        /* \"#utility.yul\":13359:13805   */\n      iszero\n      tag_434\n      jumpi\n        /* \"#utility.yul\":13404:13442   */\n      tag_435\n        /* \"#utility.yul\":13436:13441   */\n      dup2\n        /* \"#utility.yul\":13404:13442   */\n      tag_264\n      jump\t// in\n    tag_435:\n        /* \"#utility.yul\":13488:13517   */\n      tag_436\n        /* \"#utility.yul\":13506:13516   */\n      dup5\n        /* \"#utility.yul\":13488:13517   */\n      tag_265\n      jump\t// in\n    tag_436:\n        /* \"#utility.yul\":13478:13486   */\n      dup2\n        /* \"#utility.yul\":13474:13518   */\n      add\n        /* \"#utility.yul\":13671:13673   */\n      0x20\n        /* \"#utility.yul\":13659:13669   */\n      dup6\n        /* \"#utility.yul\":13656:13674   */\n      lt\n        /* \"#utility.yul\":13653:13702   */\n      iszero\n      tag_437\n      jumpi\n        /* \"#utility.yul\":13692:13700   */\n      dup2\n        /* \"#utility.yul\":13677:13700   */\n      swap1\n      pop\n        /* \"#utility.yul\":13653:13702   */\n    tag_437:\n        /* \"#utility.yul\":13715:13795   */\n      tag_438\n        /* \"#utility.yul\":13771:13793   */\n      tag_439\n        /* \"#utility.yul\":13789:13792   */\n      dup6\n        /* \"#utility.yul\":13771:13793   */\n      tag_265\n      jump\t// in\n    tag_439:\n        /* \"#utility.yul\":13761:13769   */\n      dup4\n        /* \"#utility.yul\":13757:13794   */\n      add\n        /* \"#utility.yul\":13744:13755   */\n      dup3\n        /* \"#utility.yul\":13715:13795   */\n      tag_274\n      jump\t// in\n    tag_438:\n        /* \"#utility.yul\":13374:13805   */\n      pop\n      pop\n        /* \"#utility.yul\":13359:13805   */\n    tag_434:\n        /* \"#utility.yul\":13269:13812   */\n      pop\n      pop\n      pop\n      jump\t// out\n        /* \"#utility.yul\":13818:13935   */\n    tag_276:\n        /* \"#utility.yul\":13872:13880   */\n      0x00\n        /* \"#utility.yul\":13922:13927   */\n      dup3\n        /* \"#utility.yul\":13916:13920   */\n      dup3\n        /* \"#utility.yul\":13912:13928   */\n      shr\n        /* \"#utility.yul\":13891:13928   */\n      swap1\n      pop\n        /* \"#utility.yul\":13818:13935   */\n      swap3\n      swap2\n      pop\n      pop\n      jump\t// out\n        /* \"#utility.yul\":13941:14110   */\n    tag_277:\n        /* \"#utility.yul\":13985:13991   */\n      0x00\n        /* \"#utility.yul\":14018:14069   */\n      tag_442\n        /* \"#utility.yul\":14066:14067   */\n      0x00\n        /* \"#utility.yul\":14062:14068   */\n      not\n        /* \"#utility.yul\":14054:14059   */\n      dup5\n        /* \"#utility.yul\":14051:14052   */\n      0x08\n        /* \"#utility.yul\":14047:14060   */\n      mul\n        /* \"#utility.yul\":14018:14069   */\n      tag_276\n      jump\t// in\n    tag_442:\n        /* \"#utility.yul\":14014:14070   */\n      not\n        /* \"#utility.yul\":14099:14103   */\n      dup1\n        /* \"#utility.yul\":14093:14097   */\n      dup4\n        /* \"#utility.yul\":14089:14104   */\n      and\n        /* \"#utility.yul\":14079:14104   */\n      swap2\n      pop\n        /* \"#utility.yul\":13992:14110   */\n      pop\n        /* \"#utility.yul\":13941:14110   */\n      swap3\n      swap2\n      pop\n      pop\n      jump\t// out\n        /* \"#utility.yul\":14115:14410   */\n    tag_278:\n        /* \"#utility.yul\":14191:14195   */\n      0x00\n        /* \"#utility.yul\":14337:14366   */\n      tag_444\n        /* \"#utility.yul\":14362:14365   */\n      dup4\n        /* \"#utility.yul\":14356:14360   */\n      dup4\n        /* \"#utility.yul\":14337:14366   */\n      tag_277\n      jump\t// in\n    tag_444:\n        /* \"#utility.yul\":14329:14366   */\n      swap2\n      pop\n        /* \"#utility.yul\":14399:14402   */\n      dup3\n        /* \"#utility.yul\":14396:14397   */\n      0x02\n        /* \"#utility.yul\":14392:14403   */\n      mul\n        /* \"#utility.yul\":14386:14390   */\n      dup3\n        /* \"#utility.yul\":14383:14404   */\n      or\n        /* \"#utility.yul\":14375:14404   */\n      swap1\n      pop\n        /* \"#utility.yul\":14115:14410   */\n      swap3\n      swap2\n      pop\n      pop\n      jump\t// out\n        /* \"#utility.yul\":14415:15810   */\n    tag_133:\n        /* \"#utility.yul\":14532:14569   */\n      tag_446\n        /* \"#utility.yul\":14565:14568   */\n      dup3\n        /* \"#utility.yul\":14532:14569   */\n      tag_229\n      jump\t// in\n    tag_446:\n        /* \"#utility.yul\":14634:14652   */\n      0xffffffffffffffff\n        /* \"#utility.yul\":14626:14632   */\n      dup2\n        /* \"#utility.yul\":14623:14653   */\n      gt\n        /* \"#utility.yul\":14620:14676   */\n      iszero\n      tag_447\n      jumpi\n        /* \"#utility.yul\":14656:14674   */\n      tag_448\n      tag_251\n      jump\t// in\n    tag_448:\n        /* \"#utility.yul\":14620:14676   */\n    tag_447:\n        /* \"#utility.yul\":14700:14738   */\n      tag_449\n        /* \"#utility.yul\":14732:14736   */\n      dup3\n        /* \"#utility.yul\":14726:14737   */\n      sload\n        /* \"#utility.yul\":14700:14738   */\n      tag_92\n      jump\t// in\n    tag_449:\n        /* \"#utility.yul\":14785:14852   */\n      tag_450\n        /* \"#utility.yul\":14845:14851   */\n      dup3\n        /* \"#utility.yul\":14837:14843   */\n      dup3\n        /* \"#utility.yul\":14831:14835   */\n      dup6\n        /* \"#utility.yul\":14785:14852   */\n      tag_275\n      jump\t// in\n    tag_450:\n        /* \"#utility.yul\":14879:14880   */\n      0x00\n        /* \"#utility.yul\":14903:14907   */\n      0x20\n        /* \"#utility.yul\":14890:14907   */\n      swap1\n      pop\n        /* \"#utility.yul\":14935:14937   */\n      0x1f\n        /* \"#utility.yul\":14927:14933   */\n      dup4\n        /* \"#utility.yul\":14924:14938   */\n      gt\n        /* \"#utility.yul\":14952:14953   */\n      0x01\n        /* \"#utility.yul\":14947:15565   */\n      dup2\n      eq\n      tag_452\n      jumpi\n        /* \"#utility.yul\":15609:15610   */\n      0x00\n        /* \"#utility.yul\":15626:15632   */\n      dup5\n        /* \"#utility.yul\":15623:15700   */\n      iszero\n      tag_453\n      jumpi\n        /* \"#utility.yul\":15675:15684   */\n      dup3\n        /* \"#utility.yul\":15670:15673   */\n      dup8\n        /* \"#utility.yul\":15666:15685   */\n      add\n        /* \"#utility.yul\":15660:15686   */\n      mload\n        /* \"#utility.yul\":15651:15686   */\n      swap1\n      pop\n        /* \"#utility.yul\":15623:15700   */\n    tag_453:\n        /* \"#utility.yul\":15726:15793   */\n      tag_454\n        /* \"#utility.yul\":15786:15792   */\n      dup6\n        /* \"#utility.yul\":15779:15784   */\n      dup3\n        /* \"#utility.yul\":15726:15793   */\n      tag_278\n      jump\t// in\n    tag_454:\n        /* \"#utility.yul\":15720:15724   */\n      dup7\n        /* \"#utility.yul\":15713:15794   */\n      sstore\n        /* \"#utility.yul\":15582:15804   */\n      pop\n        /* \"#utility.yul\":14917:15804   */\n      jump(tag_451)\n        /* \"#utility.yul\":14947:15565   */\n    tag_452:\n        /* \"#utility.yul\":14999:15003   */\n      0x1f\n        /* \"#utility.yul\":14995:15004   */\n      not\n        /* \"#utility.yul\":14987:14993   */\n      dup5\n        /* \"#utility.yul\":14983:15005   */\n      and\n        /* \"#utility.yul\":15033:15070   */\n      tag_455\n        /* \"#utility.yul\":15065:15069   */\n      dup7\n        /* \"#utility.yul\":15033:15070   */\n      tag_264\n      jump\t// in\n    tag_455:\n        /* \"#utility.yul\":15092:15093   */\n      0x00\n        /* \"#utility.yul\":15106:15314   */\n    tag_456:\n        /* \"#utility.yul\":15120:15127   */\n      dup3\n        /* \"#utility.yul\":15117:15118   */\n      dup2\n        /* \"#utility.yul\":15114:15128   */\n      lt\n        /* \"#utility.yul\":15106:15314   */\n      iszero\n      tag_458\n      jumpi\n        /* \"#utility.yul\":15199:15208   */\n      dup5\n        /* \"#utility.yul\":15194:15197   */\n      dup10\n        /* \"#utility.yul\":15190:15209   */\n      add\n        /* \"#utility.yul\":15184:15210   */\n      mload\n        /* \"#utility.yul\":15176:15182   */\n      dup3\n        /* \"#utility.yul\":15169:15211   */\n      sstore\n        /* \"#utility.yul\":15250:15251   */\n      0x01\n        /* \"#utility.yul\":15242:15248   */\n      dup3\n        /* \"#utility.yul\":15238:15252   */\n      add\n        /* \"#utility.yul\":15228:15252   */\n      swap2\n      pop\n        /* \"#utility.yul\":15297:15299   */\n      0x20\n        /* \"#utility.yul\":15286:15295   */\n      dup6\n        /* \"#utility.yul\":15282:15300   */\n      add\n        /* \"#utility.yul\":15269:15300   */\n      swap5\n      pop\n        /* \"#utility.yul\":15143:15147   */\n      0x20\n        /* \"#utility.yul\":15140:15141   */\n      dup2\n        /* \"#utility.yul\":15136:15148   */\n      add\n        /* \"#utility.yul\":15131:15148   */\n      swap1\n      pop\n        /* \"#utility.yul\":15106:15314   */\n      jump(tag_456)\n    tag_458:\n        /* \"#utility.yul\":15342:15348   */\n      dup7\n        /* \"#utility.yul\":15333:15340   */\n      dup4\n        /* \"#utility.yul\":15330:15349   */\n      lt\n        /* \"#utility.yul\":15327:15506   */\n      iszero\n      tag_459\n      jumpi\n        /* \"#utility.yul\":15400:15409   */\n      dup5\n        /* \"#utility.yul\":15395:15398   */\n      dup10\n        /* \"#utility.yul\":15391:15410   */\n      add\n        /* \"#utility.yul\":15385:15411   */\n      mload\n        /* \"#utility.yul\":15443:15491   */\n      tag_460\n        /* \"#utility.yul\":15485:15489   */\n      0x1f\n        /* \"#utility.yul\":15477:15483   */\n      dup10\n        /* \"#utility.yul\":15473:15490   */\n      and\n        /* \"#utility.yul\":15462:15471   */\n      dup3\n        /* \"#utility.yul\":15443:15491   */\n      tag_277\n      jump\t// in\n    tag_460:\n        /* \"#utility.yul\":15435:15441   */\n      dup4\n        /* \"#utility.yul\":15428:15492   */\n      sstore\n        /* \"#utility.yul\":15350:15506   */\n      pop\n        /* \"#utility.yul\":15327:15506   */\n    tag_459:\n        /* \"#utility.yul\":15552:15553   */\n      0x01\n        /* \"#utility.yul\":15548:15549   */\n      0x02\n        /* \"#utility.yul\":15540:15546   */\n      dup9\n        /* \"#utility.yul\":15536:15550   */\n      mul\n        /* \"#utility.yul\":15532:15554   */\n      add\n        /* \"#utility.yul\":15526:15530   */\n      dup9\n        /* \"#utility.yul\":15519:15555   */\n      sstore\n        /* \"#utility.yul\":14954:15565   */\n      pop\n      pop\n      pop\n        /* \"#utility.yul\":14917:15804   */\n    tag_451:\n      pop\n        /* \"#utility.yul\":14507:15810   */\n      pop\n      pop\n      pop\n        /* \"#utility.yul\":14415:15810   */\n      pop\n      pop\n      jump\t// out\n        /* \"#utility.yul\":15816:15996   */\n    tag_279:\n        /* \"#utility.yul\":15864:15941   */\n      0x4e487b7100000000000000000000000000000000000000000000000000000000\n        /* \"#utility.yul\":15861:15862   */\n      0x00\n        /* \"#utility.yul\":15854:15942   */\n      mstore\n        /* \"#utility.yul\":15961:15965   */\n      0x11\n        /* \"#utility.yul\":15958:15959   */\n      0x04\n        /* \"#utility.yul\":15951:15966   */\n      mstore\n        /* \"#utility.yul\":15985:15989   */\n      0x24\n        /* \"#utility.yul\":15982:15983   */\n      0x00\n        /* \"#utility.yul\":15975:15990   */\n      revert\n        /* \"#utility.yul\":16002:16104   */\n    tag_280:\n        /* \"#utility.yul\":16044:16052   */\n      0x00\n        /* \"#utility.yul\":16091:16096   */\n      dup2\n        /* \"#utility.yul\":16088:16089   */\n      0x01\n        /* \"#utility.yul\":16084:16097   */\n      shr\n        /* \"#utility.yul\":16063:16097   */\n      swap1\n      pop\n        /* \"#utility.yul\":16002:16104   */\n      swap2\n      swap1\n      pop\n      jump\t// out\n        /* \"#utility.yul\":16110:16958   */\n    tag_281:\n        /* \"#utility.yul\":16171:16176   */\n      0x00\n        /* \"#utility.yul\":16178:16182   */\n      dup1\n        /* \"#utility.yul\":16202:16208   */\n      dup3\n        /* \"#utility.yul\":16193:16208   */\n      swap2\n      pop\n        /* \"#utility.yul\":16226:16231   */\n      dup4\n        /* \"#utility.yul\":16217:16231   */\n      swap1\n      pop\n        /* \"#utility.yul\":16240:16952   */\n    tag_464:\n        /* \"#utility.yul\":16261:16262   */\n      0x01\n        /* \"#utility.yul\":16251:16259   */\n      dup6\n        /* \"#utility.yul\":16248:16263   */\n      gt\n        /* \"#utility.yul\":16240:16952   */\n      iszero\n      tag_466\n      jumpi\n        /* \"#utility.yul\":16356:16360   */\n      dup1\n        /* \"#utility.yul\":16351:16354   */\n      dup7\n        /* \"#utility.yul\":16347:16361   */\n      div\n        /* \"#utility.yul\":16341:16345   */\n      dup2\n        /* \"#utility.yul\":16338:16362   */\n      gt\n        /* \"#utility.yul\":16335:16385   */\n      iszero\n      tag_467\n      jumpi\n        /* \"#utility.yul\":16365:16383   */\n      tag_468\n      tag_279\n      jump\t// in\n    tag_468:\n        /* \"#utility.yul\":16335:16385   */\n    tag_467:\n        /* \"#utility.yul\":16415:16416   */\n      0x01\n        /* \"#utility.yul\":16405:16413   */\n      dup6\n        /* \"#utility.yul\":16401:16417   */\n      and\n        /* \"#utility.yul\":16398:16849   */\n      iszero\n      tag_469\n      jumpi\n        /* \"#utility.yul\":16830:16834   */\n      dup1\n        /* \"#utility.yul\":16823:16828   */\n      dup3\n        /* \"#utility.yul\":16819:16835   */\n      mul\n        /* \"#utility.yul\":16810:16835   */\n      swap2\n      pop\n        /* \"#utility.yul\":16398:16849   */\n    tag_469:\n        /* \"#utility.yul\":16880:16884   */\n      dup1\n        /* \"#utility.yul\":16874:16878   */\n      dup2\n        /* \"#utility.yul\":16870:16885   */\n      mul\n        /* \"#utility.yul\":16862:16885   */\n      swap1\n      pop\n        /* \"#utility.yul\":16910:16942   */\n      tag_470\n        /* \"#utility.yul\":16933:16941   */\n      dup6\n        /* \"#utility.yul\":16910:16942   */\n      tag_280\n      jump\t// in\n    tag_470:\n        /* \"#utility.yul\":16898:16942   */\n      swap5\n      pop\n        /* \"#utility.yul\":16240:16952   */\n      jump(tag_464)\n    tag_466:\n        /* \"#utility.yul\":16110:16958   */\n      swap5\n      pop\n      swap5\n      swap3\n      pop\n      pop\n      pop\n      jump\t// out\n        /* \"#utility.yul\":16964:18037   */\n    tag_282:\n        /* \"#utility.yul\":17018:17023   */\n      0x00\n        /* \"#utility.yul\":17209:17217   */\n      dup3\n        /* \"#utility.yul\":17199:17239   */\n      tag_472\n      jumpi\n        /* \"#utility.yul\":17230:17231   */\n      0x01\n        /* \"#utility.yul\":17221:17231   */\n      swap1\n      pop\n        /* \"#utility.yul\":17232:17237   */\n      jump(tag_471)\n        /* \"#utility.yul\":17199:17239   */\n    tag_472:\n        /* \"#utility.yul\":17258:17262   */\n      dup2\n        /* \"#utility.yul\":17248:17284   */\n      tag_473\n      jumpi\n        /* \"#utility.yul\":17275:17276   */\n      0x00\n        /* \"#utility.yul\":17266:17276   */\n      swap1\n      pop\n        /* \"#utility.yul\":17277:17282   */\n      jump(tag_471)\n        /* \"#utility.yul\":17248:17284   */\n    tag_473:\n        /* \"#utility.yul\":17344:17348   */\n      dup2\n        /* \"#utility.yul\":17392:17393   */\n      0x01\n        /* \"#utility.yul\":17387:17414   */\n      dup2\n      eq\n      tag_475\n      jumpi\n        /* \"#utility.yul\":17428:17429   */\n      0x02\n        /* \"#utility.yul\":17423:17614   */\n      dup2\n      eq\n      tag_476\n      jumpi\n        /* \"#utility.yul\":17337:17614   */\n      jump(tag_474)\n        /* \"#utility.yul\":17387:17414   */\n    tag_475:\n        /* \"#utility.yul\":17405:17406   */\n      0x01\n        /* \"#utility.yul\":17396:17406   */\n      swap2\n      pop\n        /* \"#utility.yul\":17407:17412   */\n      pop\n      jump(tag_471)\n        /* \"#utility.yul\":17423:17614   */\n    tag_476:\n        /* \"#utility.yul\":17468:17471   */\n      0xff\n        /* \"#utility.yul\":17458:17466   */\n      dup5\n        /* \"#utility.yul\":17455:17472   */\n      gt\n        /* \"#utility.yul\":17452:17495   */\n      iszero\n      tag_477\n      jumpi\n        /* \"#utility.yul\":17475:17493   */\n      tag_478\n      tag_279\n      jump\t// in\n    tag_478:\n        /* \"#utility.yul\":17452:17495   */\n    tag_477:\n        /* \"#utility.yul\":17524:17532   */\n      dup4\n        /* \"#utility.yul\":17521:17522   */\n      0x02\n        /* \"#utility.yul\":17517:17533   */\n      exp\n        /* \"#utility.yul\":17508:17533   */\n      swap2\n      pop\n        /* \"#utility.yul\":17559:17562   */\n      dup5\n        /* \"#utility.yul\":17552:17557   */\n      dup3\n        /* \"#utility.yul\":17549:17563   */\n      gt\n        /* \"#utility.yul\":17546:17586   */\n      iszero\n      tag_479\n      jumpi\n        /* \"#utility.yul\":17566:17584   */\n      tag_480\n      tag_279\n      jump\t// in\n    tag_480:\n        /* \"#utility.yul\":17546:17586   */\n    tag_479:\n        /* \"#utility.yul\":17599:17604   */\n      pop\n      jump(tag_471)\n        /* \"#utility.yul\":17337:17614   */\n    tag_474:\n      pop\n        /* \"#utility.yul\":17723:17725   */\n      0x20\n        /* \"#utility.yul\":17713:17721   */\n      dup4\n        /* \"#utility.yul\":17710:17726   */\n      lt\n        /* \"#utility.yul\":17704:17707   */\n      0x0133\n        /* \"#utility.yul\":17698:17702   */\n      dup4\n        /* \"#utility.yul\":17695:17708   */\n      lt\n        /* \"#utility.yul\":17691:17727   */\n      and\n        /* \"#utility.yul\":17673:17675   */\n      0x4e\n        /* \"#utility.yul\":17663:17671   */\n      dup5\n        /* \"#utility.yul\":17660:17676   */\n      lt\n        /* \"#utility.yul\":17655:17657   */\n      0x0b\n        /* \"#utility.yul\":17649:17653   */\n      dup5\n        /* \"#utility.yul\":17646:17658   */\n      lt\n        /* \"#utility.yul\":17642:17677   */\n      and\n        /* \"#utility.yul\":17626:17737   */\n      or\n        /* \"#utility.yul\":17623:17869   */\n      iszero\n      tag_481\n      jumpi\n        /* \"#utility.yul\":17779:17787   */\n      dup3\n        /* \"#utility.yul\":17773:17777   */\n      dup3\n        /* \"#utility.yul\":17769:17788   */\n      exp\n        /* \"#utility.yul\":17760:17788   */\n      swap1\n      pop\n        /* \"#utility.yul\":17814:17817   */\n      dup4\n        /* \"#utility.yul\":17807:17812   */\n      dup2\n        /* \"#utility.yul\":17804:17818   */\n      gt\n        /* \"#utility.yul\":17801:17841   */\n      iszero\n      tag_482\n      jumpi\n        /* \"#utility.yul\":17821:17839   */\n      tag_483\n      tag_279\n      jump\t// in\n    tag_483:\n        /* \"#utility.yul\":17801:17841   */\n    tag_482:\n        /* \"#utility.yul\":17854:17859   */\n      jump(tag_471)\n        /* \"#utility.yul\":17623:17869   */\n    tag_481:\n        /* \"#utility.yul\":17894:17936   */\n      tag_484\n        /* \"#utility.yul\":17932:17935   */\n      dup5\n        /* \"#utility.yul\":17922:17930   */\n      dup5\n        /* \"#utility.yul\":17916:17920   */\n      dup5\n        /* \"#utility.yul\":17913:17914   */\n      0x01\n        /* \"#utility.yul\":17894:17936   */\n      tag_281\n      jump\t// in\n    tag_484:\n        /* \"#utility.yul\":17879:17936   */\n      swap3\n      pop\n      swap1\n      pop\n        /* \"#utility.yul\":17968:17972   */\n      dup2\n        /* \"#utility.yul\":17963:17966   */\n      dup5\n        /* \"#utility.yul\":17959:17973   */\n      div\n        /* \"#utility.yul\":17952:17957   */\n      dup2\n        /* \"#utility.yul\":17949:17974   */\n      gt\n        /* \"#utility.yul\":17946:17997   */\n      iszero\n      tag_485\n      jumpi\n        /* \"#utility.yul\":17977:17995   */\n      tag_486\n      tag_279\n      jump\t// in\n    tag_486:\n        /* \"#utility.yul\":17946:17997   */\n    tag_485:\n        /* \"#utility.yul\":18026:18030   */\n      dup2\n        /* \"#utility.yul\":18019:18024   */\n      dup2\n        /* \"#utility.yul\":18015:18031   */\n      mul\n        /* \"#utility.yul\":18006:18031   */\n      swap1\n      pop\n        /* \"#utility.yul\":16964:18037   */\n    tag_471:\n      swap4\n      swap3\n      pop\n      pop\n      pop\n      jump\t// out\n        /* \"#utility.yul\":18043:18324   */\n    tag_136:\n        /* \"#utility.yul\":18101:18106   */\n      0x00\n        /* \"#utility.yul\":18125:18148   */\n      tag_488\n        /* \"#utility.yul\":18143:18147   */\n      dup3\n        /* \"#utility.yul\":18125:18148   */\n      tag_241\n      jump\t// in\n    tag_488:\n        /* \"#utility.yul\":18117:18148   */\n      swap2\n      pop\n        /* \"#utility.yul\":18169:18194   */\n      tag_489\n        /* \"#utility.yul\":18185:18193   */\n      dup4\n        /* \"#utility.yul\":18169:18194   */\n      tag_247\n      jump\t// in\n    tag_489:\n        /* \"#utility.yul\":18157:18194   */\n      swap3\n      pop\n        /* \"#utility.yul\":18213:18317   */\n      tag_490\n        /* \"#utility.yul\":18250:18316   */\n      0xffffffffffffffffffffffffffffffffffffffffffffffffffffffffffffffff\n        /* \"#utility.yul\":18240:18248   */\n      dup5\n        /* \"#utility.yul\":18234:18238   */\n      dup5\n        /* \"#utility.yul\":18213:18317   */\n      tag_282\n      jump\t// in\n    tag_490:\n        /* \"#utility.yul\":18204:18317   */\n      swap1\n      pop\n        /* \"#utility.yul\":18043:18324   */\n      swap3\n      swap2\n      pop\n      pop\n      jump\t// out\n        /* \"#utility.yul\":18330:18740   */\n    tag_138:\n        /* \"#utility.yul\":18370:18377   */\n      0x00\n        /* \"#utility.yul\":18393:18413   */\n      tag_492\n        /* \"#utility.yul\":18411:18412   */\n      dup3\n        /* \"#utility.yul\":18393:18413   */\n      tag_241\n      jump\t// in\n    tag_492:\n        /* \"#utility.yul\":18388:18413   */\n      swap2\n      pop\n        /* \"#utility.yul\":18427:18447   */\n      tag_493\n        /* \"#utility.yul\":18445:18446   */\n      dup4\n        /* \"#utility.yul\":18427:18447   */\n      tag_241\n      jump\t// in\n    tag_493:\n        /* \"#utility.yul\":18422:18447   */\n      swap3\n      pop\n        /* \"#utility.yul\":18482:18483   */\n      dup3\n        /* \"#utility.yul\":18479:18480   */\n      dup3\n        /* \"#utility.yul\":18475:18484   */\n      mul\n        /* \"#utility.yul\":18504:18534   */\n      tag_494\n        /* \"#utility.yul\":18522:18533   */\n      dup2\n        /* \"#utility.yul\":18504:18534   */\n      tag_241\n      jump\t// in\n    tag_494:\n        /* \"#utility.yul\":18493:18534   */\n      swap2\n      pop\n        /* \"#utility.yul\":18683:18684   */\n      dup3\n        /* \"#utility.yul\":18674:18681   */\n      dup3\n        /* \"#utility.yul\":18670:18685   */\n      div\n        /* \"#utility.yul\":18667:18668   */\n      dup5\n        /* \"#utility.yul\":18664:18686   */\n      eq\n        /* \"#utility.yul\":18644:18645   */\n      dup4\n        /* \"#utility.yul\":18637:18646   */\n      iszero\n        /* \"#utility.yul\":18617:18700   */\n      or\n        /* \"#utility.yul\":18594:18733   */\n      tag_495\n      jumpi\n        /* \"#utility.yul\":18713:18731   */\n      tag_496\n      tag_279\n      jump\t// in\n    tag_496:\n        /* \"#utility.yul\":18594:18733   */\n    tag_495:\n        /* \"#utility.yul\":18378:18740   */\n      pop\n        /* \"#utility.yul\":18330:18740   */\n      swap3\n      swap2\n      pop\n      pop\n      jump\t// out\n        /* \"#utility.yul\":18746:18925   */\n    tag_283:\n        /* \"#utility.yul\":18886:18917   */\n      0x4e6577206f776e657220697320746865207a65726f2061646472657373000000\n        /* \"#utility.yul\":18882:18883   */\n      0x00\n        /* \"#utility.yul\":18874:18880   */\n      dup3\n        /* \"#utility.yul\":18870:18884   */\n      add\n        /* \"#utility.yul\":18863:18918   */\n      mstore\n        /* \"#utility.yul\":18746:18925   */\n      pop\n      jump\t// out\n        /* \"#utility.yul\":18931:19297   */\n    tag_284:\n        /* \"#utility.yul\":19073:19076   */\n      0x00\n        /* \"#utility.yul\":19094:19161   */\n      tag_499\n        /* \"#utility.yul\":19158:19160   */\n      0x1d\n        /* \"#utility.yul\":19153:19156   */\n      dup4\n        /* \"#utility.yul\":19094:19161   */\n      tag_230\n      jump\t// in\n    tag_499:\n        /* \"#utility.yul\":19087:19161   */\n      swap2\n      pop\n        /* \"#utility.yul\":19170:19263   */\n      tag_500\n        /* \"#utility.yul\":19259:19262   */\n      dup3\n        /* \"#utility.yul\":19170:19263   */\n      tag_283\n      jump\t// in\n    tag_500:\n        /* \"#utility.yul\":19288:19290   */\n      0x20\n        /* \"#utility.yul\":19283:19286   */\n      dup3\n        /* \"#utility.yul\":19279:19291   */\n      add\n        /* \"#utility.yul\":19272:19291   */\n      swap1\n      pop\n        /* \"#utility.yul\":18931:19297   */\n      swap2\n      swap1\n      pop\n      jump\t// out\n        /* \"#utility.yul\":19303:19722   */\n    tag_174:\n        /* \"#utility.yul\":19469:19473   */\n      0x00\n        /* \"#utility.yul\":19507:19509   */\n      0x20\n        /* \"#utility.yul\":19496:19505   */\n      dup3\n        /* \"#utility.yul\":19492:19510   */\n      add\n        /* \"#utility.yul\":19484:19510   */\n      swap1\n      pop\n        /* \"#utility.yul\":19556:19565   */\n      dup2\n        /* \"#utility.yul\":19550:19554   */\n      dup2\n        /* \"#utility.yul\":19546:19566   */\n      sub\n        /* \"#utility.yul\":19542:19543   */\n      0x00\n        /* \"#utility.yul\":19531:19540   */\n      dup4\n        /* \"#utility.yul\":19527:19544   */\n      add\n        /* \"#utility.yul\":19520:19567   */\n      mstore\n        /* \"#utility.yul\":19584:19715   */\n      tag_502\n        /* \"#utility.yul\":19710:19714   */\n      dup2\n        /* \"#utility.yul\":19584:19715   */\n      tag_284\n      jump\t// in\n    tag_502:\n        /* \"#utility.yul\":19576:19715   */\n      swap1\n      pop\n        /* \"#utility.yul\":19303:19722   */\n      swap2\n      swap1\n      pop\n      jump\t// out\n        /* \"#utility.yul\":19728:20170   */\n    tag_184:\n        /* \"#utility.yul\":19877:19881   */\n      0x00\n        /* \"#utility.yul\":19915:19917   */\n      0x60\n        /* \"#utility.yul\":19904:19913   */\n      dup3\n        /* \"#utility.yul\":19900:19918   */\n      add\n        /* \"#utility.yul\":19892:19918   */\n      swap1\n      pop\n        /* \"#utility.yul\":19928:19999   */\n      tag_504\n        /* \"#utility.yul\":19996:19997   */\n      0x00\n        /* \"#utility.yul\":19985:19994   */\n      dup4\n        /* \"#utility.yul\":19981:19998   */\n      add\n        /* \"#utility.yul\":19972:19978   */\n      dup7\n        /* \"#utility.yul\":19928:19999   */\n      tag_258\n      jump\t// in\n    tag_504:\n        /* \"#utility.yul\":20009:20081   */\n      tag_505\n        /* \"#utility.yul\":20077:20079   */\n      0x20\n        /* \"#utility.yul\":20066:20075   */\n      dup4\n        /* \"#utility.yul\":20062:20080   */\n      add\n        /* \"#utility.yul\":20053:20059   */\n      dup6\n        /* \"#utility.yul\":20009:20081   */\n      tag_246\n      jump\t// in\n    tag_505:\n        /* \"#utility.yul\":20091:20163   */\n      tag_506\n        /* \"#utility.yul\":20159:20161   */\n      0x40\n        /* \"#utility.yul\":20148:20157   */\n      dup4\n        /* \"#utility.yul\":20144:20162   */\n      add\n        /* \"#utility.yul\":20135:20141   */\n      dup5\n        /* \"#utility.yul\":20091:20163   */\n      tag_246\n      jump\t// in\n    tag_506:\n        /* \"#utility.yul\":19728:20170   */\n      swap5\n      swap4\n      pop\n      pop\n      pop\n      pop\n      jump\t// out\n        /* \"#utility.yul\":20176:20367   */\n    tag_207:\n        /* \"#utility.yul\":20216:20219   */\n      0x00\n        /* \"#utility.yul\":20235:20255   */\n      tag_508\n        /* \"#utility.yul\":20253:20254   */\n      dup3\n        /* \"#utility.yul\":20235:20255   */\n      tag_241\n      jump\t// in\n    tag_508:\n        /* \"#utility.yul\":20230:20255   */\n      swap2\n      pop\n        /* \"#utility.yul\":20269:20289   */\n      tag_509\n        /* \"#utility.yul\":20287:20288   */\n      dup4\n        /* \"#utility.yul\":20269:20289   */\n      tag_241\n      jump\t// in\n    tag_509:\n        /* \"#utility.yul\":20264:20289   */\n      swap3\n      pop\n        /* \"#utility.yul\":20312:20313   */\n      dup3\n        /* \"#utility.yul\":20309:20310   */\n      dup3\n        /* \"#utility.yul\":20305:20314   */\n      add\n        /* \"#utility.yul\":20298:20314   */\n      swap1\n      pop\n        /* \"#utility.yul\":20333:20336   */\n      dup1\n        /* \"#utility.yul\":20330:20331   */\n      dup3\n        /* \"#utility.yul\":20327:20337   */\n      gt\n        /* \"#utility.yul\":20324:20360   */\n      iszero\n      tag_510\n      jumpi\n        /* \"#utility.yul\":20340:20358   */\n      tag_511\n      tag_279\n      jump\t// in\n    tag_511:\n        /* \"#utility.yul\":20324:20360   */\n    tag_510:\n        /* \"#utility.yul\":20176:20367   */\n      swap3\n      swap2\n      pop\n      pop\n      jump\t// out\n        /* \"#utility.yul\":20373:20543   */\n    tag_285:\n        /* \"#utility.yul\":20513:20535   */\n      0x5061757361626c653a206e6f7420706175736564000000000000000000000000\n        /* \"#utility.yul\":20509:20510   */\n      0x00\n        /* \"#utility.yul\":20501:20507   */\n      dup3\n        /* \"#utility.yul\":20497:20511   */\n      add\n        /* \"#utility.yul\":20490:20536   */\n      mstore\n        /* \"#utility.yul\":20373:20543   */\n      pop\n      jump\t// out\n        /* \"#utility.yul\":20549:20915   */\n    tag_286:\n        /* \"#utility.yul\":20691:20694   */\n      0x00\n        /* \"#utility.yul\":20712:20779   */\n      tag_514\n        /* \"#utility.yul\":20776:20778   */\n      0x14\n        /* \"#utility.yul\":20771:20774   */\n      dup4\n        /* \"#utility.yul\":20712:20779   */\n      tag_230\n      jump\t// in\n    tag_514:\n        /* \"#utility.yul\":20705:20779   */\n      swap2\n      pop\n        /* \"#utility.yul\":20788:20881   */\n      tag_515\n        /* \"#utility.yul\":20877:20880   */\n      dup3\n        /* \"#utility.yul\":20788:20881   */\n      tag_285\n      jump\t// in\n    tag_515:\n        /* \"#utility.yul\":20906:20908   */\n      0x20\n        /* \"#utility.yul\":20901:20904   */\n      dup3\n        /* \"#utility.yul\":20897:20909   */\n      add\n        /* \"#utility.yul\":20890:20909   */\n      swap1\n      pop\n        /* \"#utility.yul\":20549:20915   */\n      swap2\n      swap1\n      pop\n      jump\t// out\n        /* \"#utility.yul\":20921:21340   */\n    tag_218:\n        /* \"#utility.yul\":21087:21091   */\n      0x00\n        /* \"#utility.yul\":21125:21127   */\n      0x20\n        /* \"#utility.yul\":21114:21123   */\n      dup3\n        /* \"#utility.yul\":21110:21128   */\n      add\n        /* \"#utility.yul\":21102:21128   */\n      swap1\n      pop\n        /* \"#utility.yul\":21174:21183   */\n      dup2\n        /* \"#utility.yul\":21168:21172   */\n      dup2\n        /* \"#utility.yul\":21164:21184   */\n      sub\n        /* \"#utility.yul\":21160:21161   */\n      0x00\n        /* \"#utility.yul\":21149:21158   */\n      dup4\n        /* \"#utility.yul\":21145:21162   */\n      add\n        /* \"#utility.yul\":21138:21185   */\n      mstore\n        /* \"#utility.yul\":21202:21333   */\n      tag_517\n        /* \"#utility.yul\":21328:21332   */\n      dup2\n        /* \"#utility.yul\":21202:21333   */\n      tag_286\n      jump\t// in\n    tag_517:\n        /* \"#utility.yul\":21194:21333   */\n      swap1\n      pop\n        /* \"#utility.yul\":20921:21340   */\n      swap2\n      swap1\n      pop\n      jump\t// out\n\n    auxdata: 0xa26469706673582212208dd5a1273ac50d5a26e1ccf1d2e2f8d593200b7eb49c9be587a86f0975d9cb2864736f6c63430008160033\n}\n",
				"bytecode": {
					"linkReferences": {},
					"object": "608060405234801561000f575f80fd5b50611f9f8061001d5f395ff3fe608060405234801561000f575f80fd5b5060043610610114575f3560e01c80636161eb18116100a057806395d89b411161006f57806395d89b41146102a6578063a9059cbb146102c4578063b33712c5146102f4578063dd62ed3e146102fe578063f2fde38b1461032e57610114565b80636161eb181461023257806370a082311461024e5780638129fc1c1461027e5780638da5cb5b1461028857610114565b8063313ce567116100e7578063313ce567146101b457806340c10f19146101d2578063439766ce146101ee5780634cd88b76146101f85780635c975abb1461021457610114565b806306fdde0314610118578063095ea7b31461013657806318160ddd1461016657806323b872dd14610184575b5f80fd5b61012061034a565b60405161012d919061147d565b60405180910390f35b610150600480360381019061014b919061153b565b6103da565b60405161015d9190611593565b60405180910390f35b61016e6103f0565b60405161017b91906115bb565b60405180910390f35b61019e600480360381019061019991906115d4565b6103f9565b6040516101ab9190611593565b60405180910390f35b6101bc61046f565b6040516101c9919061163f565b60405180910390f35b6101ec60048036038101906101e7919061153b565b610477565b005b6101f661055c565b005b610212600480360381019061020d9190611784565b6105f5565b005b61021c610769565b6040516102299190611593565b60405180910390f35b61024c6004803603810190610247919061153b565b61077d565b005b610268600480360381019061026391906117fa565b6107fc565b60405161027591906115bb565b60405180910390f35b610286610842565b005b61029061085c565b60405161029d9190611834565b60405180910390f35b6102ae610884565b6040516102bb919061147d565b60405180910390f35b6102de60048036038101906102d9919061153b565b610914565b6040516102eb9190611593565b60405180910390f35b6102fc610972565b005b6103186004803603810190610313919061184d565b610a0b565b60405161032591906115bb565b60405180910390f35b610348600480360381019061034391906117fa565b610a8d565b005b606060048054610359906118b8565b80601f0160208091040260200160405190810160405280929190818152602001828054610385906118b8565b80156103d05780601f106103a7576101008083540402835291602001916103d0565b820191905f5260205f20905b8154815290600101906020018083116103b357829003601f168201915b5050505050905090565b5f6103e6338484610c48565b6001905092915050565b5f600354905090565b5f610402610769565b15610442576040517f08c379a000000000000000000000000000000000000000000000000000000000815260040161043990611932565b60405180910390fd5b5f61044b610c5a565b9050610458858285610c61565b610463858585610cf4565b60019150509392505050565b5f6012905090565b60065f9054906101000a900473ffffffffffffffffffffffffffffffffffffffff1673ffffffffffffffffffffffffffffffffffffffff163373ffffffffffffffffffffffffffffffffffffffff1614610506576040517f08c379a00000000000000000000000000000000000000000000000000000000081526004016104fd906119c0565b60405180910390fd5b61050e610769565b1561054e576040517f08c379a000000000000000000000000000000000000000000000000000000000815260040161054590611932565b60405180910390fd5b6105588282610de4565b5050565b60065f9054906101000a900473ffffffffffffffffffffffffffffffffffffffff1673ffffffffffffffffffffffffffffffffffffffff163373ffffffffffffffffffffffffffffffffffffffff16146105eb576040517f08c379a00000000000000000000000000000000000000000000000000000000081526004016105e2906119c0565b60405180910390fd5b6105f3610ec8565b565b81600490816106049190611b7b565b5080600590816106149190611b7b565b503360065f6101000a81548173ffffffffffffffffffffffffffffffffffffffff021916908373ffffffffffffffffffffffffffffffffffffffff1602179055506012600a6106639190611da6565b633b9aca006106729190611df0565b60038190555060035460015f60065f9054906101000a900473ffffffffffffffffffffffffffffffffffffffff1673ffffffffffffffffffffffffffffffffffffffff1673ffffffffffffffffffffffffffffffffffffffff1681526020019081526020015f208190555060065f9054906101000a900473ffffffffffffffffffffffffffffffffffffffff1673ffffffffffffffffffffffffffffffffffffffff165f73ffffffffffffffffffffffffffffffffffffffff167fddf252ad1be2c89b69c2b068fc378daa952ba7f163c4a11628f55a4df523b3ef60035460405161075d91906115bb565b60405180910390a35050565b5f805f9054906101000a900460ff16905090565b5f73ffffffffffffffffffffffffffffffffffffffff168273ffffffffffffffffffffffffffffffffffffffff16036107ed575f6040517f96c6fd1e0000000000000000000000000000000000000000000000000000000081526004016107e49190611834565b60405180910390fd5b6107f8825f83610f69565b5050565b5f60015f8373ffffffffffffffffffffffffffffffffffffffff1673ffffffffffffffffffffffffffffffffffffffff1681526020019081526020015f20549050919050565b5f805f6101000a81548160ff021916908315150217905550565b5f60065f9054906101000a900473ffffffffffffffffffffffffffffffffffffffff16905090565b606060058054610893906118b8565b80601f01602080910402602001604051908101604052809291908181526020018280546108bf906118b8565b801561090a5780601f106108e15761010080835404028352916020019161090a565b820191905f5260205f20905b8154815290600101906020018083116108ed57829003601f168201915b5050505050905090565b5f61091d610769565b1561095d576040517f08c379a000000000000000000000000000000000000000000000000000000000815260040161095490611932565b60405180910390fd5b610968338484610cf4565b6001905092915050565b60065f9054906101000a900473ffffffffffffffffffffffffffffffffffffffff1673ffffffffffffffffffffffffffffffffffffffff163373ffffffffffffffffffffffffffffffffffffffff1614610a01576040517f08c379a00000000000000000000000000000000000000000000000000000000081526004016109f8906119c0565b60405180910390fd5b610a09611185565b565b5f60025f8473ffffffffffffffffffffffffffffffffffffffff1673ffffffffffffffffffffffffffffffffffffffff1681526020019081526020015f205f8373ffffffffffffffffffffffffffffffffffffffff1673ffffffffffffffffffffffffffffffffffffffff1681526020019081526020015f2054905092915050565b60065f9054906101000a900473ffffffffffffffffffffffffffffffffffffffff1673ffffffffffffffffffffffffffffffffffffffff163373ffffffffffffffffffffffffffffffffffffffff1614610b1c576040517f08c379a0000000000000000000000000000000000000000000000000000000008152600401610b13906119c0565b60405180910390fd5b5f73ffffffffffffffffffffffffffffffffffffffff168173ffffffffffffffffffffffffffffffffffffffff1603610b8a576040517f08c379a0000000000000000000000000000000000000000000000000000000008152600401610b8190611e7b565b60405180910390fd5b8073ffffffffffffffffffffffffffffffffffffffff1660065f9054906101000a900473ffffffffffffffffffffffffffffffffffffffff1673ffffffffffffffffffffffffffffffffffffffff167f8be0079c531659141344cd1fd0a4f28419497f9722a3daafe3b4186f6b6457e060405160405180910390a38060065f6101000a81548173ffffffffffffffffffffffffffffffffffffffff021916908373ffffffffffffffffffffffffffffffffffffffff16021790555050565b610c558383836001611224565b505050565b5f33905090565b5f610c6c8484610a0b565b90507fffffffffffffffffffffffffffffffffffffffffffffffffffffffffffffffff811015610cee5781811015610cdf578281836040517ffb8f41b2000000000000000000000000000000000000000000000000000000008152600401610cd693929190611e99565b60405180910390fd5b610ced84848484035f611224565b5b50505050565b5f73ffffffffffffffffffffffffffffffffffffffff168373ffffffffffffffffffffffffffffffffffffffff1603610d64575f6040517f96c6fd1e000000000000000000000000000000000000000000000000000000008152600401610d5b9190611834565b60405180910390fd5b5f73ffffffffffffffffffffffffffffffffffffffff168273ffffffffffffffffffffffffffffffffffffffff1603610dd4575f6040517fec442f05000000000000000000000000000000000000000000000000000000008152600401610dcb9190611834565b60405180910390fd5b610ddf838383610f69565b505050565b5f73ffffffffffffffffffffffffffffffffffffffff168273ffffffffffffffffffffffffffffffffffffffff1603610e54575f6040517fec442f05000000000000000000000000000000000000000000000000000000008152600401610e4b9190611834565b60405180910390fd5b610e5f5f8383610f69565b8173ffffffffffffffffffffffffffffffffffffffff165f73ffffffffffffffffffffffffffffffffffffffff167fddf252ad1be2c89b69c2b068fc378daa952ba7f163c4a11628f55a4df523b3ef83604051610ebc91906115bb565b60405180910390a35050565b610ed0610769565b15610f10576040517f08c379a0000000000000000000000000000000000000000000000000000000008152600401610f0790611932565b60405180910390fd5b60015f806101000a81548160ff0219169083151502179055507f62e78cea01bee320cd4e420270b5ea74000d11b0c9f74754ebdbfc544b05a258610f52610c5a565b604051610f5f9190611834565b60405180910390a1565b5f73ffffffffffffffffffffffffffffffffffffffff168373ffffffffffffffffffffffffffffffffffffffff1603610fb9578060035f828254610fad9190611ece565b92505081905550611089565b5f60015f8573ffffffffffffffffffffffffffffffffffffffff1673ffffffffffffffffffffffffffffffffffffffff1681526020019081526020015f2054905081811015611043578381836040517fe450d38c00000000000000000000000000000000000000000000000000000000815260040161103a93929190611e99565b60405180910390fd5b81810360015f8673ffffffffffffffffffffffffffffffffffffffff1673ffffffffffffffffffffffffffffffffffffffff1681526020019081526020015f2081905550505b5f73ffffffffffffffffffffffffffffffffffffffff168273ffffffffffffffffffffffffffffffffffffffff16036110d0578060035f828254039250508190555061111b565b8060015f8473ffffffffffffffffffffffffffffffffffffffff1673ffffffffffffffffffffffffffffffffffffffff1681526020019081526020015f205f82825401925050819055505b8173ffffffffffffffffffffffffffffffffffffffff168373ffffffffffffffffffffffffffffffffffffffff167fddf252ad1be2c89b69c2b068fc378daa952ba7f163c4a11628f55a4df523b3ef8360405161117891906115bb565b60405180910390a3505050565b61118d610769565b6111cc576040517f08c379a00000000000000000000000000000000000000000000000000000000081526004016111c390611f4b565b60405180910390fd5b5f805f6101000a81548160ff0219169083151502179055507f5db9ee0a495bf2e6ff9c91a7834c1ba4fdd244a5e8aa4e537bd38aeae4b073aa61120d610c5a565b60405161121a9190611834565b60405180910390a1565b5f73ffffffffffffffffffffffffffffffffffffffff168473ffffffffffffffffffffffffffffffffffffffff1603611294575f6040517fe602df0500000000000000000000000000000000000000000000000000000000815260040161128b9190611834565b60405180910390fd5b5f73ffffffffffffffffffffffffffffffffffffffff168373ffffffffffffffffffffffffffffffffffffffff1603611304575f6040517f94280d620000000000000000000000000000000000000000000000000000000081526004016112fb9190611834565b60405180910390fd5b8160025f8673ffffffffffffffffffffffffffffffffffffffff1673ffffffffffffffffffffffffffffffffffffffff1681526020019081526020015f205f8573ffffffffffffffffffffffffffffffffffffffff1673ffffffffffffffffffffffffffffffffffffffff1681526020019081526020015f208190555080156113ed578273ffffffffffffffffffffffffffffffffffffffff168473ffffffffffffffffffffffffffffffffffffffff167f8c5be1e5ebec7d5bd14f71427d1e84f3dd0314c0f7b2291e5b200ac8c7c3b925846040516113e491906115bb565b60405180910390a35b50505050565b5f81519050919050565b5f82825260208201905092915050565b5f5b8381101561142a57808201518184015260208101905061140f565b5f8484015250505050565b5f601f19601f8301169050919050565b5f61144f826113f3565b61145981856113fd565b935061146981856020860161140d565b61147281611435565b840191505092915050565b5f6020820190508181035f8301526114958184611445565b905092915050565b5f604051905090565b5f80fd5b5f80fd5b5f73ffffffffffffffffffffffffffffffffffffffff82169050919050565b5f6114d7826114ae565b9050919050565b6114e7816114cd565b81146114f1575f80fd5b50565b5f81359050611502816114de565b92915050565b5f819050919050565b61151a81611508565b8114611524575f80fd5b50565b5f8135905061153581611511565b92915050565b5f8060408385031215611551576115506114a6565b5b5f61155e858286016114f4565b925050602061156f85828601611527565b9150509250929050565b5f8115159050919050565b61158d81611579565b82525050565b5f6020820190506115a65f830184611584565b92915050565b6115b581611508565b82525050565b5f6020820190506115ce5f8301846115ac565b92915050565b5f805f606084860312156115eb576115ea6114a6565b5b5f6115f8868287016114f4565b9350506020611609868287016114f4565b925050604061161a86828701611527565b9150509250925092565b5f60ff82169050919050565b61163981611624565b82525050565b5f6020820190506116525f830184611630565b92915050565b5f80fd5b5f80fd5b7f4e487b71000000000000000000000000000000000000000000000000000000005f52604160045260245ffd5b61169682611435565b810181811067ffffffffffffffff821117156116b5576116b4611660565b5b80604052505050565b5f6116c761149d565b90506116d3828261168d565b919050565b5f67ffffffffffffffff8211156116f2576116f1611660565b5b6116fb82611435565b9050602081019050919050565b828183375f83830152505050565b5f611728611723846116d8565b6116be565b9050828152602081018484840111156117445761174361165c565b5b61174f848285611708565b509392505050565b5f82601f83011261176b5761176a611658565b5b813561177b848260208601611716565b91505092915050565b5f806040838503121561179a576117996114a6565b5b5f83013567ffffffffffffffff8111156117b7576117b66114aa565b5b6117c385828601611757565b925050602083013567ffffffffffffffff8111156117e4576117e36114aa565b5b6117f085828601611757565b9150509250929050565b5f6020828403121561180f5761180e6114a6565b5b5f61181c848285016114f4565b91505092915050565b61182e816114cd565b82525050565b5f6020820190506118475f830184611825565b92915050565b5f8060408385031215611863576118626114a6565b5b5f611870858286016114f4565b9250506020611881858286016114f4565b9150509250929050565b7f4e487b71000000000000000000000000000000000000000000000000000000005f52602260045260245ffd5b5f60028204905060018216806118cf57607f821691505b6020821081036118e2576118e161188b565b5b50919050565b7f5061757361626c653a20706175736564000000000000000000000000000000005f82015250565b5f61191c6010836113fd565b9150611927826118e8565b602082019050919050565b5f6020820190508181035f83015261194981611910565b9050919050565b7f4f6e6c79206f776e65722063616e2063616c6c20746869732066756e6374696f5f8201527f6e00000000000000000000000000000000000000000000000000000000000000602082015250565b5f6119aa6021836113fd565b91506119b582611950565b604082019050919050565b5f6020820190508181035f8301526119d78161199e565b9050919050565b5f819050815f5260205f209050919050565b5f6020601f8301049050919050565b5f82821b905092915050565b5f60088302611a3a7fffffffffffffffffffffffffffffffffffffffffffffffffffffffffffffffff826119ff565b611a4486836119ff565b95508019841693508086168417925050509392505050565b5f819050919050565b5f611a7f611a7a611a7584611508565b611a5c565b611508565b9050919050565b5f819050919050565b611a9883611a65565b611aac611aa482611a86565b848454611a0b565b825550505050565b5f90565b611ac0611ab4565b611acb818484611a8f565b505050565b5b81811015611aee57611ae35f82611ab8565b600181019050611ad1565b5050565b601f821115611b3357611b04816119de565b611b0d846119f0565b81016020851015611b1c578190505b611b30611b28856119f0565b830182611ad0565b50505b505050565b5f82821c905092915050565b5f611b535f1984600802611b38565b1980831691505092915050565b5f611b6b8383611b44565b9150826002028217905092915050565b611b84826113f3565b67ffffffffffffffff811115611b9d57611b9c611660565b5b611ba782546118b8565b611bb2828285611af2565b5f60209050601f831160018114611be3575f8415611bd1578287015190505b611bdb8582611b60565b865550611c42565b601f198416611bf1866119de565b5f5b82811015611c1857848901518255600182019150602085019450602081019050611bf3565b86831015611c355784890151611c31601f891682611b44565b8355505b6001600288020188555050505b505050505050565b7f4e487b71000000000000000000000000000000000000000000000000000000005f52601160045260245ffd5b5f8160011c9050919050565b5f808291508390505b6001851115611ccc57808604811115611ca857611ca7611c4a565b5b6001851615611cb75780820291505b8081029050611cc585611c77565b9450611c8c565b94509492505050565b5f82611ce45760019050611d9f565b81611cf1575f9050611d9f565b8160018114611d075760028114611d1157611d40565b6001915050611d9f565b60ff841115611d2357611d22611c4a565b5b8360020a915084821115611d3a57611d39611c4a565b5b50611d9f565b5060208310610133831016604e8410600b8410161715611d755782820a905083811115611d7057611d6f611c4a565b5b611d9f565b611d828484846001611c83565b92509050818404811115611d9957611d98611c4a565b5b81810290505b9392505050565b5f611db082611508565b9150611dbb83611624565b9250611de87fffffffffffffffffffffffffffffffffffffffffffffffffffffffffffffffff8484611cd5565b905092915050565b5f611dfa82611508565b9150611e0583611508565b9250828202611e1381611508565b91508282048414831517611e2a57611e29611c4a565b5b5092915050565b7f4e6577206f776e657220697320746865207a65726f20616464726573730000005f82015250565b5f611e65601d836113fd565b9150611e7082611e31565b602082019050919050565b5f6020820190508181035f830152611e9281611e59565b9050919050565b5f606082019050611eac5f830186611825565b611eb960208301856115ac565b611ec660408301846115ac565b949350505050565b5f611ed882611508565b9150611ee383611508565b9250828201905080821115611efb57611efa611c4a565b5b92915050565b7f5061757361626c653a206e6f74207061757365640000000000000000000000005f82015250565b5f611f356014836113fd565b9150611f4082611f01565b602082019050919050565b5f6020820190508181035f830152611f6281611f29565b905091905056fea26469706673582212208dd5a1273ac50d5a26e1ccf1d2e2f8d593200b7eb49c9be587a86f0975d9cb2864736f6c63430008160033",
					"opcodes": "PUSH1 0x80 PUSH1 0x40 MSTORE CALLVALUE DUP1 ISZERO PUSH2 0xF JUMPI PUSH0 DUP1 REVERT JUMPDEST POP PUSH2 0x1F9F DUP1 PUSH2 0x1D PUSH0 CODECOPY PUSH0 RETURN INVALID PUSH1 0x80 PUSH1 0x40 MSTORE CALLVALUE DUP1 ISZERO PUSH2 0xF JUMPI PUSH0 DUP1 REVERT JUMPDEST POP PUSH1 0x4 CALLDATASIZE LT PUSH2 0x114 JUMPI PUSH0 CALLDATALOAD PUSH1 0xE0 SHR DUP1 PUSH4 0x6161EB18 GT PUSH2 0xA0 JUMPI DUP1 PUSH4 0x95D89B41 GT PUSH2 0x6F JUMPI DUP1 PUSH4 0x95D89B41 EQ PUSH2 0x2A6 JUMPI DUP1 PUSH4 0xA9059CBB EQ PUSH2 0x2C4 JUMPI DUP1 PUSH4 0xB33712C5 EQ PUSH2 0x2F4 JUMPI DUP1 PUSH4 0xDD62ED3E EQ PUSH2 0x2FE JUMPI DUP1 PUSH4 0xF2FDE38B EQ PUSH2 0x32E JUMPI PUSH2 0x114 JUMP JUMPDEST DUP1 PUSH4 0x6161EB18 EQ PUSH2 0x232 JUMPI DUP1 PUSH4 0x70A08231 EQ PUSH2 0x24E JUMPI DUP1 PUSH4 0x8129FC1C EQ PUSH2 0x27E JUMPI DUP1 PUSH4 0x8DA5CB5B EQ PUSH2 0x288 JUMPI PUSH2 0x114 JUMP JUMPDEST DUP1 PUSH4 0x313CE567 GT PUSH2 0xE7 JUMPI DUP1 PUSH4 0x313CE567 EQ PUSH2 0x1B4 JUMPI DUP1 PUSH4 0x40C10F19 EQ PUSH2 0x1D2 JUMPI DUP1 PUSH4 0x439766CE EQ PUSH2 0x1EE JUMPI DUP1 PUSH4 0x4CD88B76 EQ PUSH2 0x1F8 JUMPI DUP1 PUSH4 0x5C975ABB EQ PUSH2 0x214 JUMPI PUSH2 0x114 JUMP JUMPDEST DUP1 PUSH4 0x6FDDE03 EQ PUSH2 0x118 JUMPI DUP1 PUSH4 0x95EA7B3 EQ PUSH2 0x136 JUMPI DUP1 PUSH4 0x18160DDD EQ PUSH2 0x166 JUMPI DUP1 PUSH4 0x23B872DD EQ PUSH2 0x184 JUMPI JUMPDEST PUSH0 DUP1 REVERT JUMPDEST PUSH2 0x120 PUSH2 0x34A JUMP JUMPDEST PUSH1 0x40 MLOAD PUSH2 0x12D SWAP2 SWAP1 PUSH2 0x147D JUMP JUMPDEST PUSH1 0x40 MLOAD DUP1 SWAP2 SUB SWAP1 RETURN JUMPDEST PUSH2 0x150 PUSH1 0x4 DUP1 CALLDATASIZE SUB DUP2 ADD SWAP1 PUSH2 0x14B SWAP2 SWAP1 PUSH2 0x153B JUMP JUMPDEST PUSH2 0x3DA JUMP JUMPDEST PUSH1 0x40 MLOAD PUSH2 0x15D SWAP2 SWAP1 PUSH2 0x1593 JUMP JUMPDEST PUSH1 0x40 MLOAD DUP1 SWAP2 SUB SWAP1 RETURN JUMPDEST PUSH2 0x16E PUSH2 0x3F0 JUMP JUMPDEST PUSH1 0x40 MLOAD PUSH2 0x17B SWAP2 SWAP1 PUSH2 0x15BB JUMP JUMPDEST PUSH1 0x40 MLOAD DUP1 SWAP2 SUB SWAP1 RETURN JUMPDEST PUSH2 0x19E PUSH1 0x4 DUP1 CALLDATASIZE SUB DUP2 ADD SWAP1 PUSH2 0x199 SWAP2 SWAP1 PUSH2 0x15D4 JUMP JUMPDEST PUSH2 0x3F9 JUMP JUMPDEST PUSH1 0x40 MLOAD PUSH2 0x1AB SWAP2 SWAP1 PUSH2 0x1593 JUMP JUMPDEST PUSH1 0x40 MLOAD DUP1 SWAP2 SUB SWAP1 RETURN JUMPDEST PUSH2 0x1BC PUSH2 0x46F JUMP JUMPDEST PUSH1 0x40 MLOAD PUSH2 0x1C9 SWAP2 SWAP1 PUSH2 0x163F JUMP JUMPDEST PUSH1 0x40 MLOAD DUP1 SWAP2 SUB SWAP1 RETURN JUMPDEST PUSH2 0x1EC PUSH1 0x4 DUP1 CALLDATASIZE SUB DUP2 ADD SWAP1 PUSH2 0x1E7 SWAP2 SWAP1 PUSH2 0x153B JUMP JUMPDEST PUSH2 0x477 JUMP JUMPDEST STOP JUMPDEST PUSH2 0x1F6 PUSH2 0x55C JUMP JUMPDEST STOP JUMPDEST PUSH2 0x212 PUSH1 0x4 DUP1 CALLDATASIZE SUB DUP2 ADD SWAP1 PUSH2 0x20D SWAP2 SWAP1 PUSH2 0x1784 JUMP JUMPDEST PUSH2 0x5F5 JUMP JUMPDEST STOP JUMPDEST PUSH2 0x21C PUSH2 0x769 JUMP JUMPDEST PUSH1 0x40 MLOAD PUSH2 0x229 SWAP2 SWAP1 PUSH2 0x1593 JUMP JUMPDEST PUSH1 0x40 MLOAD DUP1 SWAP2 SUB SWAP1 RETURN JUMPDEST PUSH2 0x24C PUSH1 0x4 DUP1 CALLDATASIZE SUB DUP2 ADD SWAP1 PUSH2 0x247 SWAP2 SWAP1 PUSH2 0x153B JUMP JUMPDEST PUSH2 0x77D JUMP JUMPDEST STOP JUMPDEST PUSH2 0x268 PUSH1 0x4 DUP1 CALLDATASIZE SUB DUP2 ADD SWAP1 PUSH2 0x263 SWAP2 SWAP1 PUSH2 0x17FA JUMP JUMPDEST PUSH2 0x7FC JUMP JUMPDEST PUSH1 0x40 MLOAD PUSH2 0x275 SWAP2 SWAP1 PUSH2 0x15BB JUMP JUMPDEST PUSH1 0x40 MLOAD DUP1 SWAP2 SUB SWAP1 RETURN JUMPDEST PUSH2 0x286 PUSH2 0x842 JUMP JUMPDEST STOP JUMPDEST PUSH2 0x290 PUSH2 0x85C JUMP JUMPDEST PUSH1 0x40 MLOAD PUSH2 0x29D SWAP2 SWAP1 PUSH2 0x1834 JUMP JUMPDEST PUSH1 0x40 MLOAD DUP1 SWAP2 SUB SWAP1 RETURN JUMPDEST PUSH2 0x2AE PUSH2 0x884 JUMP JUMPDEST PUSH1 0x40 MLOAD PUSH2 0x2BB SWAP2 SWAP1 PUSH2 0x147D JUMP JUMPDEST PUSH1 0x40 MLOAD DUP1 SWAP2 SUB SWAP1 RETURN JUMPDEST PUSH2 0x2DE PUSH1 0x4 DUP1 CALLDATASIZE SUB DUP2 ADD SWAP1 PUSH2 0x2D9 SWAP2 SWAP1 PUSH2 0x153B JUMP JUMPDEST PUSH2 0x914 JUMP JUMPDEST PUSH1 0x40 MLOAD PUSH2 0x2EB SWAP2 SWAP1 PUSH2 0x1593 JUMP JUMPDEST PUSH1 0x40 MLOAD DUP1 SWAP2 SUB SWAP1 RETURN JUMPDEST PUSH2 0x2FC PUSH2 0x972 JUMP JUMPDEST STOP JUMPDEST PUSH2 0x318 PUSH1 0x4 DUP1 CALLDATASIZE SUB DUP2 ADD SWAP1 PUSH2 0x313 SWAP2 SWAP1 PUSH2 0x184D JUMP JUMPDEST PUSH2 0xA0B JUMP JUMPDEST PUSH1 0x40 MLOAD PUSH2 0x325 SWAP2 SWAP1 PUSH2 0x15BB JUMP JUMPDEST PUSH1 0x40 MLOAD DUP1 SWAP2 SUB SWAP1 RETURN JUMPDEST PUSH2 0x348 PUSH1 0x4 DUP1 CALLDATASIZE SUB DUP2 ADD SWAP1 PUSH2 0x343 SWAP2 SWAP1 PUSH2 0x17FA JUMP JUMPDEST PUSH2 0xA8D JUMP JUMPDEST STOP JUMPDEST PUSH1 0x60 PUSH1 0x4 DUP1 SLOAD PUSH2 0x359 SWAP1 PUSH2 0x18B8 JUMP JUMPDEST DUP1 PUSH1 0x1F ADD PUSH1 0x20 DUP1 SWAP2 DIV MUL PUSH1 0x20 ADD PUSH1 0x40 MLOAD SWAP1 DUP2 ADD PUSH1 0x40 MSTORE DUP1 SWAP3 SWAP2 SWAP1 DUP2 DUP2 MSTORE PUSH1 0x20 ADD DUP3 DUP1 SLOAD PUSH2 0x385 SWAP1 PUSH2 0x18B8 JUMP JUMPDEST DUP1 ISZERO PUSH2 0x3D0 JUMPI DUP1 PUSH1 0x1F LT PUSH2 0x3A7 JUMPI PUSH2 0x100 DUP1 DUP4 SLOAD DIV MUL DUP4 MSTORE SWAP2 PUSH1 0x20 ADD SWAP2 PUSH2 0x3D0 JUMP JUMPDEST DUP3 ADD SWAP2 SWAP1 PUSH0 MSTORE PUSH1 0x20 PUSH0 KECCAK256 SWAP1 JUMPDEST DUP2 SLOAD DUP2 MSTORE SWAP1 PUSH1 0x1 ADD SWAP1 PUSH1 0x20 ADD DUP1 DUP4 GT PUSH2 0x3B3 JUMPI DUP3 SWAP1 SUB PUSH1 0x1F AND DUP3 ADD SWAP2 JUMPDEST POP POP POP POP POP SWAP1 POP SWAP1 JUMP JUMPDEST PUSH0 PUSH2 0x3E6 CALLER DUP5 DUP5 PUSH2 0xC48 JUMP JUMPDEST PUSH1 0x1 SWAP1 POP SWAP3 SWAP2 POP POP JUMP JUMPDEST PUSH0 PUSH1 0x3 SLOAD SWAP1 POP SWAP1 JUMP JUMPDEST PUSH0 PUSH2 0x402 PUSH2 0x769 JUMP JUMPDEST ISZERO PUSH2 0x442 JUMPI PUSH1 0x40 MLOAD PUSH32 0x8C379A000000000000000000000000000000000000000000000000000000000 DUP2 MSTORE PUSH1 0x4 ADD PUSH2 0x439 SWAP1 PUSH2 0x1932 JUMP JUMPDEST PUSH1 0x40 MLOAD DUP1 SWAP2 SUB SWAP1 REVERT JUMPDEST PUSH0 PUSH2 0x44B PUSH2 0xC5A JUMP JUMPDEST SWAP1 POP PUSH2 0x458 DUP6 DUP3 DUP6 PUSH2 0xC61 JUMP JUMPDEST PUSH2 0x463 DUP6 DUP6 DUP6 PUSH2 0xCF4 JUMP JUMPDEST PUSH1 0x1 SWAP2 POP POP SWAP4 SWAP3 POP POP POP JUMP JUMPDEST PUSH0 PUSH1 0x12 SWAP1 POP SWAP1 JUMP JUMPDEST PUSH1 0x6 PUSH0 SWAP1 SLOAD SWAP1 PUSH2 0x100 EXP SWAP1 DIV PUSH20 0xFFFFFFFFFFFFFFFFFFFFFFFFFFFFFFFFFFFFFFFF AND PUSH20 0xFFFFFFFFFFFFFFFFFFFFFFFFFFFFFFFFFFFFFFFF AND CALLER PUSH20 0xFFFFFFFFFFFFFFFFFFFFFFFFFFFFFFFFFFFFFFFF AND EQ PUSH2 0x506 JUMPI PUSH1 0x40 MLOAD PUSH32 0x8C379A000000000000000000000000000000000000000000000000000000000 DUP2 MSTORE PUSH1 0x4 ADD PUSH2 0x4FD SWAP1 PUSH2 0x19C0 JUMP JUMPDEST PUSH1 0x40 MLOAD DUP1 SWAP2 SUB SWAP1 REVERT JUMPDEST PUSH2 0x50E PUSH2 0x769 JUMP JUMPDEST ISZERO PUSH2 0x54E JUMPI PUSH1 0x40 MLOAD PUSH32 0x8C379A000000000000000000000000000000000000000000000000000000000 DUP2 MSTORE PUSH1 0x4 ADD PUSH2 0x545 SWAP1 PUSH2 0x1932 JUMP JUMPDEST PUSH1 0x40 MLOAD DUP1 SWAP2 SUB SWAP1 REVERT JUMPDEST PUSH2 0x558 DUP3 DUP3 PUSH2 0xDE4 JUMP JUMPDEST POP POP JUMP JUMPDEST PUSH1 0x6 PUSH0 SWAP1 SLOAD SWAP1 PUSH2 0x100 EXP SWAP1 DIV PUSH20 0xFFFFFFFFFFFFFFFFFFFFFFFFFFFFFFFFFFFFFFFF AND PUSH20 0xFFFFFFFFFFFFFFFFFFFFFFFFFFFFFFFFFFFFFFFF AND CALLER PUSH20 0xFFFFFFFFFFFFFFFFFFFFFFFFFFFFFFFFFFFFFFFF AND EQ PUSH2 0x5EB JUMPI PUSH1 0x40 MLOAD PUSH32 0x8C379A000000000000000000000000000000000000000000000000000000000 DUP2 MSTORE PUSH1 0x4 ADD PUSH2 0x5E2 SWAP1 PUSH2 0x19C0 JUMP JUMPDEST PUSH1 0x40 MLOAD DUP1 SWAP2 SUB SWAP1 REVERT JUMPDEST PUSH2 0x5F3 PUSH2 0xEC8 JUMP JUMPDEST JUMP JUMPDEST DUP2 PUSH1 0x4 SWAP1 DUP2 PUSH2 0x604 SWAP2 SWAP1 PUSH2 0x1B7B JUMP JUMPDEST POP DUP1 PUSH1 0x5 SWAP1 DUP2 PUSH2 0x614 SWAP2 SWAP1 PUSH2 0x1B7B JUMP JUMPDEST POP CALLER PUSH1 0x6 PUSH0 PUSH2 0x100 EXP DUP2 SLOAD DUP2 PUSH20 0xFFFFFFFFFFFFFFFFFFFFFFFFFFFFFFFFFFFFFFFF MUL NOT AND SWAP1 DUP4 PUSH20 0xFFFFFFFFFFFFFFFFFFFFFFFFFFFFFFFFFFFFFFFF AND MUL OR SWAP1 SSTORE POP PUSH1 0x12 PUSH1 0xA PUSH2 0x663 SWAP2 SWAP1 PUSH2 0x1DA6 JUMP JUMPDEST PUSH4 0x3B9ACA00 PUSH2 0x672 SWAP2 SWAP1 PUSH2 0x1DF0 JUMP JUMPDEST PUSH1 0x3 DUP2 SWAP1 SSTORE POP PUSH1 0x3 SLOAD PUSH1 0x1 PUSH0 PUSH1 0x6 PUSH0 SWAP1 SLOAD SWAP1 PUSH2 0x100 EXP SWAP1 DIV PUSH20 0xFFFFFFFFFFFFFFFFFFFFFFFFFFFFFFFFFFFFFFFF AND PUSH20 0xFFFFFFFFFFFFFFFFFFFFFFFFFFFFFFFFFFFFFFFF AND PUSH20 0xFFFFFFFFFFFFFFFFFFFFFFFFFFFFFFFFFFFFFFFF AND DUP2 MSTORE PUSH1 0x20 ADD SWAP1 DUP2 MSTORE PUSH1 0x20 ADD PUSH0 KECCAK256 DUP2 SWAP1 SSTORE POP PUSH1 0x6 PUSH0 SWAP1 SLOAD SWAP1 PUSH2 0x100 EXP SWAP1 DIV PUSH20 0xFFFFFFFFFFFFFFFFFFFFFFFFFFFFFFFFFFFFFFFF AND PUSH20 0xFFFFFFFFFFFFFFFFFFFFFFFFFFFFFFFFFFFFFFFF AND PUSH0 PUSH20 0xFFFFFFFFFFFFFFFFFFFFFFFFFFFFFFFFFFFFFFFF AND PUSH32 0xDDF252AD1BE2C89B69C2B068FC378DAA952BA7F163C4A11628F55A4DF523B3EF PUSH1 0x3 SLOAD PUSH1 0x40 MLOAD PUSH2 0x75D SWAP2 SWAP1 PUSH2 0x15BB JUMP JUMPDEST PUSH1 0x40 MLOAD DUP1 SWAP2 SUB SWAP1 LOG3 POP POP JUMP JUMPDEST PUSH0 DUP1 PUSH0 SWAP1 SLOAD SWAP1 PUSH2 0x100 EXP SWAP1 DIV PUSH1 0xFF AND SWAP1 POP SWAP1 JUMP JUMPDEST PUSH0 PUSH20 0xFFFFFFFFFFFFFFFFFFFFFFFFFFFFFFFFFFFFFFFF AND DUP3 PUSH20 0xFFFFFFFFFFFFFFFFFFFFFFFFFFFFFFFFFFFFFFFF AND SUB PUSH2 0x7ED JUMPI PUSH0 PUSH1 0x40 MLOAD PUSH32 0x96C6FD1E00000000000000000000000000000000000000000000000000000000 DUP2 MSTORE PUSH1 0x4 ADD PUSH2 0x7E4 SWAP2 SWAP1 PUSH2 0x1834 JUMP JUMPDEST PUSH1 0x40 MLOAD DUP1 SWAP2 SUB SWAP1 REVERT JUMPDEST PUSH2 0x7F8 DUP3 PUSH0 DUP4 PUSH2 0xF69 JUMP JUMPDEST POP POP JUMP JUMPDEST PUSH0 PUSH1 0x1 PUSH0 DUP4 PUSH20 0xFFFFFFFFFFFFFFFFFFFFFFFFFFFFFFFFFFFFFFFF AND PUSH20 0xFFFFFFFFFFFFFFFFFFFFFFFFFFFFFFFFFFFFFFFF AND DUP2 MSTORE PUSH1 0x20 ADD SWAP1 DUP2 MSTORE PUSH1 0x20 ADD PUSH0 KECCAK256 SLOAD SWAP1 POP SWAP2 SWAP1 POP JUMP JUMPDEST PUSH0 DUP1 PUSH0 PUSH2 0x100 EXP DUP2 SLOAD DUP2 PUSH1 0xFF MUL NOT AND SWAP1 DUP4 ISZERO ISZERO MUL OR SWAP1 SSTORE POP JUMP JUMPDEST PUSH0 PUSH1 0x6 PUSH0 SWAP1 SLOAD SWAP1 PUSH2 0x100 EXP SWAP1 DIV PUSH20 0xFFFFFFFFFFFFFFFFFFFFFFFFFFFFFFFFFFFFFFFF AND SWAP1 POP SWAP1 JUMP JUMPDEST PUSH1 0x60 PUSH1 0x5 DUP1 SLOAD PUSH2 0x893 SWAP1 PUSH2 0x18B8 JUMP JUMPDEST DUP1 PUSH1 0x1F ADD PUSH1 0x20 DUP1 SWAP2 DIV MUL PUSH1 0x20 ADD PUSH1 0x40 MLOAD SWAP1 DUP2 ADD PUSH1 0x40 MSTORE DUP1 SWAP3 SWAP2 SWAP1 DUP2 DUP2 MSTORE PUSH1 0x20 ADD DUP3 DUP1 SLOAD PUSH2 0x8BF SWAP1 PUSH2 0x18B8 JUMP JUMPDEST DUP1 ISZERO PUSH2 0x90A JUMPI DUP1 PUSH1 0x1F LT PUSH2 0x8E1 JUMPI PUSH2 0x100 DUP1 DUP4 SLOAD DIV MUL DUP4 MSTORE SWAP2 PUSH1 0x20 ADD SWAP2 PUSH2 0x90A JUMP JUMPDEST DUP3 ADD SWAP2 SWAP1 PUSH0 MSTORE PUSH1 0x20 PUSH0 KECCAK256 SWAP1 JUMPDEST DUP2 SLOAD DUP2 MSTORE SWAP1 PUSH1 0x1 ADD SWAP1 PUSH1 0x20 ADD DUP1 DUP4 GT PUSH2 0x8ED JUMPI DUP3 SWAP1 SUB PUSH1 0x1F AND DUP3 ADD SWAP2 JUMPDEST POP POP POP POP POP SWAP1 POP SWAP1 JUMP JUMPDEST PUSH0 PUSH2 0x91D PUSH2 0x769 JUMP JUMPDEST ISZERO PUSH2 0x95D JUMPI PUSH1 0x40 MLOAD PUSH32 0x8C379A000000000000000000000000000000000000000000000000000000000 DUP2 MSTORE PUSH1 0x4 ADD PUSH2 0x954 SWAP1 PUSH2 0x1932 JUMP JUMPDEST PUSH1 0x40 MLOAD DUP1 SWAP2 SUB SWAP1 REVERT JUMPDEST PUSH2 0x968 CALLER DUP5 DUP5 PUSH2 0xCF4 JUMP JUMPDEST PUSH1 0x1 SWAP1 POP SWAP3 SWAP2 POP POP JUMP JUMPDEST PUSH1 0x6 PUSH0 SWAP1 SLOAD SWAP1 PUSH2 0x100 EXP SWAP1 DIV PUSH20 0xFFFFFFFFFFFFFFFFFFFFFFFFFFFFFFFFFFFFFFFF AND PUSH20 0xFFFFFFFFFFFFFFFFFFFFFFFFFFFFFFFFFFFFFFFF AND CALLER PUSH20 0xFFFFFFFFFFFFFFFFFFFFFFFFFFFFFFFFFFFFFFFF AND EQ PUSH2 0xA01 JUMPI PUSH1 0x40 MLOAD PUSH32 0x8C379A000000000000000000000000000000000000000000000000000000000 DUP2 MSTORE PUSH1 0x4 ADD PUSH2 0x9F8 SWAP1 PUSH2 0x19C0 JUMP JUMPDEST PUSH1 0x40 MLOAD DUP1 SWAP2 SUB SWAP1 REVERT JUMPDEST PUSH2 0xA09 PUSH2 0x1185 JUMP JUMPDEST JUMP JUMPDEST PUSH0 PUSH1 0x2 PUSH0 DUP5 PUSH20 0xFFFFFFFFFFFFFFFFFFFFFFFFFFFFFFFFFFFFFFFF AND PUSH20 0xFFFFFFFFFFFFFFFFFFFFFFFFFFFFFFFFFFFFFFFF AND DUP2 MSTORE PUSH1 0x20 ADD SWAP1 DUP2 MSTORE PUSH1 0x20 ADD PUSH0 KECCAK256 PUSH0 DUP4 PUSH20 0xFFFFFFFFFFFFFFFFFFFFFFFFFFFFFFFFFFFFFFFF AND PUSH20 0xFFFFFFFFFFFFFFFFFFFFFFFFFFFFFFFFFFFFFFFF AND DUP2 MSTORE PUSH1 0x20 ADD SWAP1 DUP2 MSTORE PUSH1 0x20 ADD PUSH0 KECCAK256 SLOAD SWAP1 POP SWAP3 SWAP2 POP POP JUMP JUMPDEST PUSH1 0x6 PUSH0 SWAP1 SLOAD SWAP1 PUSH2 0x100 EXP SWAP1 DIV PUSH20 0xFFFFFFFFFFFFFFFFFFFFFFFFFFFFFFFFFFFFFFFF AND PUSH20 0xFFFFFFFFFFFFFFFFFFFFFFFFFFFFFFFFFFFFFFFF AND CALLER PUSH20 0xFFFFFFFFFFFFFFFFFFFFFFFFFFFFFFFFFFFFFFFF AND EQ PUSH2 0xB1C JUMPI PUSH1 0x40 MLOAD PUSH32 0x8C379A000000000000000000000000000000000000000000000000000000000 DUP2 MSTORE PUSH1 0x4 ADD PUSH2 0xB13 SWAP1 PUSH2 0x19C0 JUMP JUMPDEST PUSH1 0x40 MLOAD DUP1 SWAP2 SUB SWAP1 REVERT JUMPDEST PUSH0 PUSH20 0xFFFFFFFFFFFFFFFFFFFFFFFFFFFFFFFFFFFFFFFF AND DUP2 PUSH20 0xFFFFFFFFFFFFFFFFFFFFFFFFFFFFFFFFFFFFFFFF AND SUB PUSH2 0xB8A JUMPI PUSH1 0x40 MLOAD PUSH32 0x8C379A000000000000000000000000000000000000000000000000000000000 DUP2 MSTORE PUSH1 0x4 ADD PUSH2 0xB81 SWAP1 PUSH2 0x1E7B JUMP JUMPDEST PUSH1 0x40 MLOAD DUP1 SWAP2 SUB SWAP1 REVERT JUMPDEST DUP1 PUSH20 0xFFFFFFFFFFFFFFFFFFFFFFFFFFFFFFFFFFFFFFFF AND PUSH1 0x6 PUSH0 SWAP1 SLOAD SWAP1 PUSH2 0x100 EXP SWAP1 DIV PUSH20 0xFFFFFFFFFFFFFFFFFFFFFFFFFFFFFFFFFFFFFFFF AND PUSH20 0xFFFFFFFFFFFFFFFFFFFFFFFFFFFFFFFFFFFFFFFF AND PUSH32 0x8BE0079C531659141344CD1FD0A4F28419497F9722A3DAAFE3B4186F6B6457E0 PUSH1 0x40 MLOAD PUSH1 0x40 MLOAD DUP1 SWAP2 SUB SWAP1 LOG3 DUP1 PUSH1 0x6 PUSH0 PUSH2 0x100 EXP DUP2 SLOAD DUP2 PUSH20 0xFFFFFFFFFFFFFFFFFFFFFFFFFFFFFFFFFFFFFFFF MUL NOT AND SWAP1 DUP4 PUSH20 0xFFFFFFFFFFFFFFFFFFFFFFFFFFFFFFFFFFFFFFFF AND MUL OR SWAP1 SSTORE POP POP JUMP JUMPDEST PUSH2 0xC55 DUP4 DUP4 DUP4 PUSH1 0x1 PUSH2 0x1224 JUMP JUMPDEST POP POP POP JUMP JUMPDEST PUSH0 CALLER SWAP1 POP SWAP1 JUMP JUMPDEST PUSH0 PUSH2 0xC6C DUP5 DUP5 PUSH2 0xA0B JUMP JUMPDEST SWAP1 POP PUSH32 0xFFFFFFFFFFFFFFFFFFFFFFFFFFFFFFFFFFFFFFFFFFFFFFFFFFFFFFFFFFFFFFFF DUP2 LT ISZERO PUSH2 0xCEE JUMPI DUP2 DUP2 LT ISZERO PUSH2 0xCDF JUMPI DUP3 DUP2 DUP4 PUSH1 0x40 MLOAD PUSH32 0xFB8F41B200000000000000000000000000000000000000000000000000000000 DUP2 MSTORE PUSH1 0x4 ADD PUSH2 0xCD6 SWAP4 SWAP3 SWAP2 SWAP1 PUSH2 0x1E99 JUMP JUMPDEST PUSH1 0x40 MLOAD DUP1 SWAP2 SUB SWAP1 REVERT JUMPDEST PUSH2 0xCED DUP5 DUP5 DUP5 DUP5 SUB PUSH0 PUSH2 0x1224 JUMP JUMPDEST JUMPDEST POP POP POP POP JUMP JUMPDEST PUSH0 PUSH20 0xFFFFFFFFFFFFFFFFFFFFFFFFFFFFFFFFFFFFFFFF AND DUP4 PUSH20 0xFFFFFFFFFFFFFFFFFFFFFFFFFFFFFFFFFFFFFFFF AND SUB PUSH2 0xD64 JUMPI PUSH0 PUSH1 0x40 MLOAD PUSH32 0x96C6FD1E00000000000000000000000000000000000000000000000000000000 DUP2 MSTORE PUSH1 0x4 ADD PUSH2 0xD5B SWAP2 SWAP1 PUSH2 0x1834 JUMP JUMPDEST PUSH1 0x40 MLOAD DUP1 SWAP2 SUB SWAP1 REVERT JUMPDEST PUSH0 PUSH20 0xFFFFFFFFFFFFFFFFFFFFFFFFFFFFFFFFFFFFFFFF AND DUP3 PUSH20 0xFFFFFFFFFFFFFFFFFFFFFFFFFFFFFFFFFFFFFFFF AND SUB PUSH2 0xDD4 JUMPI PUSH0 PUSH1 0x40 MLOAD PUSH32 0xEC442F0500000000000000000000000000000000000000000000000000000000 DUP2 MSTORE PUSH1 0x4 ADD PUSH2 0xDCB SWAP2 SWAP1 PUSH2 0x1834 JUMP JUMPDEST PUSH1 0x40 MLOAD DUP1 SWAP2 SUB SWAP1 REVERT JUMPDEST PUSH2 0xDDF DUP4 DUP4 DUP4 PUSH2 0xF69 JUMP JUMPDEST POP POP POP JUMP JUMPDEST PUSH0 PUSH20 0xFFFFFFFFFFFFFFFFFFFFFFFFFFFFFFFFFFFFFFFF AND DUP3 PUSH20 0xFFFFFFFFFFFFFFFFFFFFFFFFFFFFFFFFFFFFFFFF AND SUB PUSH2 0xE54 JUMPI PUSH0 PUSH1 0x40 MLOAD PUSH32 0xEC442F0500000000000000000000000000000000000000000000000000000000 DUP2 MSTORE PUSH1 0x4 ADD PUSH2 0xE4B SWAP2 SWAP1 PUSH2 0x1834 JUMP JUMPDEST PUSH1 0x40 MLOAD DUP1 SWAP2 SUB SWAP1 REVERT JUMPDEST PUSH2 0xE5F PUSH0 DUP4 DUP4 PUSH2 0xF69 JUMP JUMPDEST DUP2 PUSH20 0xFFFFFFFFFFFFFFFFFFFFFFFFFFFFFFFFFFFFFFFF AND PUSH0 PUSH20 0xFFFFFFFFFFFFFFFFFFFFFFFFFFFFFFFFFFFFFFFF AND PUSH32 0xDDF252AD1BE2C89B69C2B068FC378DAA952BA7F163C4A11628F55A4DF523B3EF DUP4 PUSH1 0x40 MLOAD PUSH2 0xEBC SWAP2 SWAP1 PUSH2 0x15BB JUMP JUMPDEST PUSH1 0x40 MLOAD DUP1 SWAP2 SUB SWAP1 LOG3 POP POP JUMP JUMPDEST PUSH2 0xED0 PUSH2 0x769 JUMP JUMPDEST ISZERO PUSH2 0xF10 JUMPI PUSH1 0x40 MLOAD PUSH32 0x8C379A000000000000000000000000000000000000000000000000000000000 DUP2 MSTORE PUSH1 0x4 ADD PUSH2 0xF07 SWAP1 PUSH2 0x1932 JUMP JUMPDEST PUSH1 0x40 MLOAD DUP1 SWAP2 SUB SWAP1 REVERT JUMPDEST PUSH1 0x1 PUSH0 DUP1 PUSH2 0x100 EXP DUP2 SLOAD DUP2 PUSH1 0xFF MUL NOT AND SWAP1 DUP4 ISZERO ISZERO MUL OR SWAP1 SSTORE POP PUSH32 0x62E78CEA01BEE320CD4E420270B5EA74000D11B0C9F74754EBDBFC544B05A258 PUSH2 0xF52 PUSH2 0xC5A JUMP JUMPDEST PUSH1 0x40 MLOAD PUSH2 0xF5F SWAP2 SWAP1 PUSH2 0x1834 JUMP JUMPDEST PUSH1 0x40 MLOAD DUP1 SWAP2 SUB SWAP1 LOG1 JUMP JUMPDEST PUSH0 PUSH20 0xFFFFFFFFFFFFFFFFFFFFFFFFFFFFFFFFFFFFFFFF AND DUP4 PUSH20 0xFFFFFFFFFFFFFFFFFFFFFFFFFFFFFFFFFFFFFFFF AND SUB PUSH2 0xFB9 JUMPI DUP1 PUSH1 0x3 PUSH0 DUP3 DUP3 SLOAD PUSH2 0xFAD SWAP2 SWAP1 PUSH2 0x1ECE JUMP JUMPDEST SWAP3 POP POP DUP2 SWAP1 SSTORE POP PUSH2 0x1089 JUMP JUMPDEST PUSH0 PUSH1 0x1 PUSH0 DUP6 PUSH20 0xFFFFFFFFFFFFFFFFFFFFFFFFFFFFFFFFFFFFFFFF AND PUSH20 0xFFFFFFFFFFFFFFFFFFFFFFFFFFFFFFFFFFFFFFFF AND DUP2 MSTORE PUSH1 0x20 ADD SWAP1 DUP2 MSTORE PUSH1 0x20 ADD PUSH0 KECCAK256 SLOAD SWAP1 POP DUP2 DUP2 LT ISZERO PUSH2 0x1043 JUMPI DUP4 DUP2 DUP4 PUSH1 0x40 MLOAD PUSH32 0xE450D38C00000000000000000000000000000000000000000000000000000000 DUP2 MSTORE PUSH1 0x4 ADD PUSH2 0x103A SWAP4 SWAP3 SWAP2 SWAP1 PUSH2 0x1E99 JUMP JUMPDEST PUSH1 0x40 MLOAD DUP1 SWAP2 SUB SWAP1 REVERT JUMPDEST DUP2 DUP2 SUB PUSH1 0x1 PUSH0 DUP7 PUSH20 0xFFFFFFFFFFFFFFFFFFFFFFFFFFFFFFFFFFFFFFFF AND PUSH20 0xFFFFFFFFFFFFFFFFFFFFFFFFFFFFFFFFFFFFFFFF AND DUP2 MSTORE PUSH1 0x20 ADD SWAP1 DUP2 MSTORE PUSH1 0x20 ADD PUSH0 KECCAK256 DUP2 SWAP1 SSTORE POP POP JUMPDEST PUSH0 PUSH20 0xFFFFFFFFFFFFFFFFFFFFFFFFFFFFFFFFFFFFFFFF AND DUP3 PUSH20 0xFFFFFFFFFFFFFFFFFFFFFFFFFFFFFFFFFFFFFFFF AND SUB PUSH2 0x10D0 JUMPI DUP1 PUSH1 0x3 PUSH0 DUP3 DUP3 SLOAD SUB SWAP3 POP POP DUP2 SWAP1 SSTORE POP PUSH2 0x111B JUMP JUMPDEST DUP1 PUSH1 0x1 PUSH0 DUP5 PUSH20 0xFFFFFFFFFFFFFFFFFFFFFFFFFFFFFFFFFFFFFFFF AND PUSH20 0xFFFFFFFFFFFFFFFFFFFFFFFFFFFFFFFFFFFFFFFF AND DUP2 MSTORE PUSH1 0x20 ADD SWAP1 DUP2 MSTORE PUSH1 0x20 ADD PUSH0 KECCAK256 PUSH0 DUP3 DUP3 SLOAD ADD SWAP3 POP POP DUP2 SWAP1 SSTORE POP JUMPDEST DUP2 PUSH20 0xFFFFFFFFFFFFFFFFFFFFFFFFFFFFFFFFFFFFFFFF AND DUP4 PUSH20 0xFFFFFFFFFFFFFFFFFFFFFFFFFFFFFFFFFFFFFFFF AND PUSH32 0xDDF252AD1BE2C89B69C2B068FC378DAA952BA7F163C4A11628F55A4DF523B3EF DUP4 PUSH1 0x40 MLOAD PUSH2 0x1178 SWAP2 SWAP1 PUSH2 0x15BB JUMP JUMPDEST PUSH1 0x40 MLOAD DUP1 SWAP2 SUB SWAP1 LOG3 POP POP POP JUMP JUMPDEST PUSH2 0x118D PUSH2 0x769 JUMP JUMPDEST PUSH2 0x11CC JUMPI PUSH1 0x40 MLOAD PUSH32 0x8C379A000000000000000000000000000000000000000000000000000000000 DUP2 MSTORE PUSH1 0x4 ADD PUSH2 0x11C3 SWAP1 PUSH2 0x1F4B JUMP JUMPDEST PUSH1 0x40 MLOAD DUP1 SWAP2 SUB SWAP1 REVERT JUMPDEST PUSH0 DUP1 PUSH0 PUSH2 0x100 EXP DUP2 SLOAD DUP2 PUSH1 0xFF MUL NOT AND SWAP1 DUP4 ISZERO ISZERO MUL OR SWAP1 SSTORE POP PUSH32 0x5DB9EE0A495BF2E6FF9C91A7834C1BA4FDD244A5E8AA4E537BD38AEAE4B073AA PUSH2 0x120D PUSH2 0xC5A JUMP JUMPDEST PUSH1 0x40 MLOAD PUSH2 0x121A SWAP2 SWAP1 PUSH2 0x1834 JUMP JUMPDEST PUSH1 0x40 MLOAD DUP1 SWAP2 SUB SWAP1 LOG1 JUMP JUMPDEST PUSH0 PUSH20 0xFFFFFFFFFFFFFFFFFFFFFFFFFFFFFFFFFFFFFFFF AND DUP5 PUSH20 0xFFFFFFFFFFFFFFFFFFFFFFFFFFFFFFFFFFFFFFFF AND SUB PUSH2 0x1294 JUMPI PUSH0 PUSH1 0x40 MLOAD PUSH32 0xE602DF0500000000000000000000000000000000000000000000000000000000 DUP2 MSTORE PUSH1 0x4 ADD PUSH2 0x128B SWAP2 SWAP1 PUSH2 0x1834 JUMP JUMPDEST PUSH1 0x40 MLOAD DUP1 SWAP2 SUB SWAP1 REVERT JUMPDEST PUSH0 PUSH20 0xFFFFFFFFFFFFFFFFFFFFFFFFFFFFFFFFFFFFFFFF AND DUP4 PUSH20 0xFFFFFFFFFFFFFFFFFFFFFFFFFFFFFFFFFFFFFFFF AND SUB PUSH2 0x1304 JUMPI PUSH0 PUSH1 0x40 MLOAD PUSH32 0x94280D6200000000000000000000000000000000000000000000000000000000 DUP2 MSTORE PUSH1 0x4 ADD PUSH2 0x12FB SWAP2 SWAP1 PUSH2 0x1834 JUMP JUMPDEST PUSH1 0x40 MLOAD DUP1 SWAP2 SUB SWAP1 REVERT JUMPDEST DUP2 PUSH1 0x2 PUSH0 DUP7 PUSH20 0xFFFFFFFFFFFFFFFFFFFFFFFFFFFFFFFFFFFFFFFF AND PUSH20 0xFFFFFFFFFFFFFFFFFFFFFFFFFFFFFFFFFFFFFFFF AND DUP2 MSTORE PUSH1 0x20 ADD SWAP1 DUP2 MSTORE PUSH1 0x20 ADD PUSH0 KECCAK256 PUSH0 DUP6 PUSH20 0xFFFFFFFFFFFFFFFFFFFFFFFFFFFFFFFFFFFFFFFF AND PUSH20 0xFFFFFFFFFFFFFFFFFFFFFFFFFFFFFFFFFFFFFFFF AND DUP2 MSTORE PUSH1 0x20 ADD SWAP1 DUP2 MSTORE PUSH1 0x20 ADD PUSH0 KECCAK256 DUP2 SWAP1 SSTORE POP DUP1 ISZERO PUSH2 0x13ED JUMPI DUP3 PUSH20 0xFFFFFFFFFFFFFFFFFFFFFFFFFFFFFFFFFFFFFFFF AND DUP5 PUSH20 0xFFFFFFFFFFFFFFFFFFFFFFFFFFFFFFFFFFFFFFFF AND PUSH32 0x8C5BE1E5EBEC7D5BD14F71427D1E84F3DD0314C0F7B2291E5B200AC8C7C3B925 DUP5 PUSH1 0x40 MLOAD PUSH2 0x13E4 SWAP2 SWAP1 PUSH2 0x15BB JUMP JUMPDEST PUSH1 0x40 MLOAD DUP1 SWAP2 SUB SWAP1 LOG3 JUMPDEST POP POP POP POP JUMP JUMPDEST PUSH0 DUP2 MLOAD SWAP1 POP SWAP2 SWAP1 POP JUMP JUMPDEST PUSH0 DUP3 DUP3 MSTORE PUSH1 0x20 DUP3 ADD SWAP1 POP SWAP3 SWAP2 POP POP JUMP JUMPDEST PUSH0 JUMPDEST DUP4 DUP2 LT ISZERO PUSH2 0x142A JUMPI DUP1 DUP3 ADD MLOAD DUP2 DUP5 ADD MSTORE PUSH1 0x20 DUP2 ADD SWAP1 POP PUSH2 0x140F JUMP JUMPDEST PUSH0 DUP5 DUP5 ADD MSTORE POP POP POP POP JUMP JUMPDEST PUSH0 PUSH1 0x1F NOT PUSH1 0x1F DUP4 ADD AND SWAP1 POP SWAP2 SWAP1 POP JUMP JUMPDEST PUSH0 PUSH2 0x144F DUP3 PUSH2 0x13F3 JUMP JUMPDEST PUSH2 0x1459 DUP2 DUP6 PUSH2 0x13FD JUMP JUMPDEST SWAP4 POP PUSH2 0x1469 DUP2 DUP6 PUSH1 0x20 DUP7 ADD PUSH2 0x140D JUMP JUMPDEST PUSH2 0x1472 DUP2 PUSH2 0x1435 JUMP JUMPDEST DUP5 ADD SWAP2 POP POP SWAP3 SWAP2 POP POP JUMP JUMPDEST PUSH0 PUSH1 0x20 DUP3 ADD SWAP1 POP DUP2 DUP2 SUB PUSH0 DUP4 ADD MSTORE PUSH2 0x1495 DUP2 DUP5 PUSH2 0x1445 JUMP JUMPDEST SWAP1 POP SWAP3 SWAP2 POP POP JUMP JUMPDEST PUSH0 PUSH1 0x40 MLOAD SWAP1 POP SWAP1 JUMP JUMPDEST PUSH0 DUP1 REVERT JUMPDEST PUSH0 DUP1 REVERT JUMPDEST PUSH0 PUSH20 0xFFFFFFFFFFFFFFFFFFFFFFFFFFFFFFFFFFFFFFFF DUP3 AND SWAP1 POP SWAP2 SWAP1 POP JUMP JUMPDEST PUSH0 PUSH2 0x14D7 DUP3 PUSH2 0x14AE JUMP JUMPDEST SWAP1 POP SWAP2 SWAP1 POP JUMP JUMPDEST PUSH2 0x14E7 DUP2 PUSH2 0x14CD JUMP JUMPDEST DUP2 EQ PUSH2 0x14F1 JUMPI PUSH0 DUP1 REVERT JUMPDEST POP JUMP JUMPDEST PUSH0 DUP2 CALLDATALOAD SWAP1 POP PUSH2 0x1502 DUP2 PUSH2 0x14DE JUMP JUMPDEST SWAP3 SWAP2 POP POP JUMP JUMPDEST PUSH0 DUP2 SWAP1 POP SWAP2 SWAP1 POP JUMP JUMPDEST PUSH2 0x151A DUP2 PUSH2 0x1508 JUMP JUMPDEST DUP2 EQ PUSH2 0x1524 JUMPI PUSH0 DUP1 REVERT JUMPDEST POP JUMP JUMPDEST PUSH0 DUP2 CALLDATALOAD SWAP1 POP PUSH2 0x1535 DUP2 PUSH2 0x1511 JUMP JUMPDEST SWAP3 SWAP2 POP POP JUMP JUMPDEST PUSH0 DUP1 PUSH1 0x40 DUP4 DUP6 SUB SLT ISZERO PUSH2 0x1551 JUMPI PUSH2 0x1550 PUSH2 0x14A6 JUMP JUMPDEST JUMPDEST PUSH0 PUSH2 0x155E DUP6 DUP3 DUP7 ADD PUSH2 0x14F4 JUMP JUMPDEST SWAP3 POP POP PUSH1 0x20 PUSH2 0x156F DUP6 DUP3 DUP7 ADD PUSH2 0x1527 JUMP JUMPDEST SWAP2 POP POP SWAP3 POP SWAP3 SWAP1 POP JUMP JUMPDEST PUSH0 DUP2 ISZERO ISZERO SWAP1 POP SWAP2 SWAP1 POP JUMP JUMPDEST PUSH2 0x158D DUP2 PUSH2 0x1579 JUMP JUMPDEST DUP3 MSTORE POP POP JUMP JUMPDEST PUSH0 PUSH1 0x20 DUP3 ADD SWAP1 POP PUSH2 0x15A6 PUSH0 DUP4 ADD DUP5 PUSH2 0x1584 JUMP JUMPDEST SWAP3 SWAP2 POP POP JUMP JUMPDEST PUSH2 0x15B5 DUP2 PUSH2 0x1508 JUMP JUMPDEST DUP3 MSTORE POP POP JUMP JUMPDEST PUSH0 PUSH1 0x20 DUP3 ADD SWAP1 POP PUSH2 0x15CE PUSH0 DUP4 ADD DUP5 PUSH2 0x15AC JUMP JUMPDEST SWAP3 SWAP2 POP POP JUMP JUMPDEST PUSH0 DUP1 PUSH0 PUSH1 0x60 DUP5 DUP7 SUB SLT ISZERO PUSH2 0x15EB JUMPI PUSH2 0x15EA PUSH2 0x14A6 JUMP JUMPDEST JUMPDEST PUSH0 PUSH2 0x15F8 DUP7 DUP3 DUP8 ADD PUSH2 0x14F4 JUMP JUMPDEST SWAP4 POP POP PUSH1 0x20 PUSH2 0x1609 DUP7 DUP3 DUP8 ADD PUSH2 0x14F4 JUMP JUMPDEST SWAP3 POP POP PUSH1 0x40 PUSH2 0x161A DUP7 DUP3 DUP8 ADD PUSH2 0x1527 JUMP JUMPDEST SWAP2 POP POP SWAP3 POP SWAP3 POP SWAP3 JUMP JUMPDEST PUSH0 PUSH1 0xFF DUP3 AND SWAP1 POP SWAP2 SWAP1 POP JUMP JUMPDEST PUSH2 0x1639 DUP2 PUSH2 0x1624 JUMP JUMPDEST DUP3 MSTORE POP POP JUMP JUMPDEST PUSH0 PUSH1 0x20 DUP3 ADD SWAP1 POP PUSH2 0x1652 PUSH0 DUP4 ADD DUP5 PUSH2 0x1630 JUMP JUMPDEST SWAP3 SWAP2 POP POP JUMP JUMPDEST PUSH0 DUP1 REVERT JUMPDEST PUSH0 DUP1 REVERT JUMPDEST PUSH32 0x4E487B7100000000000000000000000000000000000000000000000000000000 PUSH0 MSTORE PUSH1 0x41 PUSH1 0x4 MSTORE PUSH1 0x24 PUSH0 REVERT JUMPDEST PUSH2 0x1696 DUP3 PUSH2 0x1435 JUMP JUMPDEST DUP2 ADD DUP2 DUP2 LT PUSH8 0xFFFFFFFFFFFFFFFF DUP3 GT OR ISZERO PUSH2 0x16B5 JUMPI PUSH2 0x16B4 PUSH2 0x1660 JUMP JUMPDEST JUMPDEST DUP1 PUSH1 0x40 MSTORE POP POP POP JUMP JUMPDEST PUSH0 PUSH2 0x16C7 PUSH2 0x149D JUMP JUMPDEST SWAP1 POP PUSH2 0x16D3 DUP3 DUP3 PUSH2 0x168D JUMP JUMPDEST SWAP2 SWAP1 POP JUMP JUMPDEST PUSH0 PUSH8 0xFFFFFFFFFFFFFFFF DUP3 GT ISZERO PUSH2 0x16F2 JUMPI PUSH2 0x16F1 PUSH2 0x1660 JUMP JUMPDEST JUMPDEST PUSH2 0x16FB DUP3 PUSH2 0x1435 JUMP JUMPDEST SWAP1 POP PUSH1 0x20 DUP2 ADD SWAP1 POP SWAP2 SWAP1 POP JUMP JUMPDEST DUP3 DUP2 DUP4 CALLDATACOPY PUSH0 DUP4 DUP4 ADD MSTORE POP POP POP JUMP JUMPDEST PUSH0 PUSH2 0x1728 PUSH2 0x1723 DUP5 PUSH2 0x16D8 JUMP JUMPDEST PUSH2 0x16BE JUMP JUMPDEST SWAP1 POP DUP3 DUP2 MSTORE PUSH1 0x20 DUP2 ADD DUP5 DUP5 DUP5 ADD GT ISZERO PUSH2 0x1744 JUMPI PUSH2 0x1743 PUSH2 0x165C JUMP JUMPDEST JUMPDEST PUSH2 0x174F DUP5 DUP3 DUP6 PUSH2 0x1708 JUMP JUMPDEST POP SWAP4 SWAP3 POP POP POP JUMP JUMPDEST PUSH0 DUP3 PUSH1 0x1F DUP4 ADD SLT PUSH2 0x176B JUMPI PUSH2 0x176A PUSH2 0x1658 JUMP JUMPDEST JUMPDEST DUP2 CALLDATALOAD PUSH2 0x177B DUP5 DUP3 PUSH1 0x20 DUP7 ADD PUSH2 0x1716 JUMP JUMPDEST SWAP2 POP POP SWAP3 SWAP2 POP POP JUMP JUMPDEST PUSH0 DUP1 PUSH1 0x40 DUP4 DUP6 SUB SLT ISZERO PUSH2 0x179A JUMPI PUSH2 0x1799 PUSH2 0x14A6 JUMP JUMPDEST JUMPDEST PUSH0 DUP4 ADD CALLDATALOAD PUSH8 0xFFFFFFFFFFFFFFFF DUP2 GT ISZERO PUSH2 0x17B7 JUMPI PUSH2 0x17B6 PUSH2 0x14AA JUMP JUMPDEST JUMPDEST PUSH2 0x17C3 DUP6 DUP3 DUP7 ADD PUSH2 0x1757 JUMP JUMPDEST SWAP3 POP POP PUSH1 0x20 DUP4 ADD CALLDATALOAD PUSH8 0xFFFFFFFFFFFFFFFF DUP2 GT ISZERO PUSH2 0x17E4 JUMPI PUSH2 0x17E3 PUSH2 0x14AA JUMP JUMPDEST JUMPDEST PUSH2 0x17F0 DUP6 DUP3 DUP7 ADD PUSH2 0x1757 JUMP JUMPDEST SWAP2 POP POP SWAP3 POP SWAP3 SWAP1 POP JUMP JUMPDEST PUSH0 PUSH1 0x20 DUP3 DUP5 SUB SLT ISZERO PUSH2 0x180F JUMPI PUSH2 0x180E PUSH2 0x14A6 JUMP JUMPDEST JUMPDEST PUSH0 PUSH2 0x181C DUP5 DUP3 DUP6 ADD PUSH2 0x14F4 JUMP JUMPDEST SWAP2 POP POP SWAP3 SWAP2 POP POP JUMP JUMPDEST PUSH2 0x182E DUP2 PUSH2 0x14CD JUMP JUMPDEST DUP3 MSTORE POP POP JUMP JUMPDEST PUSH0 PUSH1 0x20 DUP3 ADD SWAP1 POP PUSH2 0x1847 PUSH0 DUP4 ADD DUP5 PUSH2 0x1825 JUMP JUMPDEST SWAP3 SWAP2 POP POP JUMP JUMPDEST PUSH0 DUP1 PUSH1 0x40 DUP4 DUP6 SUB SLT ISZERO PUSH2 0x1863 JUMPI PUSH2 0x1862 PUSH2 0x14A6 JUMP JUMPDEST JUMPDEST PUSH0 PUSH2 0x1870 DUP6 DUP3 DUP7 ADD PUSH2 0x14F4 JUMP JUMPDEST SWAP3 POP POP PUSH1 0x20 PUSH2 0x1881 DUP6 DUP3 DUP7 ADD PUSH2 0x14F4 JUMP JUMPDEST SWAP2 POP POP SWAP3 POP SWAP3 SWAP1 POP JUMP JUMPDEST PUSH32 0x4E487B7100000000000000000000000000000000000000000000000000000000 PUSH0 MSTORE PUSH1 0x22 PUSH1 0x4 MSTORE PUSH1 0x24 PUSH0 REVERT JUMPDEST PUSH0 PUSH1 0x2 DUP3 DIV SWAP1 POP PUSH1 0x1 DUP3 AND DUP1 PUSH2 0x18CF JUMPI PUSH1 0x7F DUP3 AND SWAP2 POP JUMPDEST PUSH1 0x20 DUP3 LT DUP2 SUB PUSH2 0x18E2 JUMPI PUSH2 0x18E1 PUSH2 0x188B JUMP JUMPDEST JUMPDEST POP SWAP2 SWAP1 POP JUMP JUMPDEST PUSH32 0x5061757361626C653A2070617573656400000000000000000000000000000000 PUSH0 DUP3 ADD MSTORE POP JUMP JUMPDEST PUSH0 PUSH2 0x191C PUSH1 0x10 DUP4 PUSH2 0x13FD JUMP JUMPDEST SWAP2 POP PUSH2 0x1927 DUP3 PUSH2 0x18E8 JUMP JUMPDEST PUSH1 0x20 DUP3 ADD SWAP1 POP SWAP2 SWAP1 POP JUMP JUMPDEST PUSH0 PUSH1 0x20 DUP3 ADD SWAP1 POP DUP2 DUP2 SUB PUSH0 DUP4 ADD MSTORE PUSH2 0x1949 DUP2 PUSH2 0x1910 JUMP JUMPDEST SWAP1 POP SWAP2 SWAP1 POP JUMP JUMPDEST PUSH32 0x4F6E6C79206F776E65722063616E2063616C6C20746869732066756E6374696F PUSH0 DUP3 ADD MSTORE PUSH32 0x6E00000000000000000000000000000000000000000000000000000000000000 PUSH1 0x20 DUP3 ADD MSTORE POP JUMP JUMPDEST PUSH0 PUSH2 0x19AA PUSH1 0x21 DUP4 PUSH2 0x13FD JUMP JUMPDEST SWAP2 POP PUSH2 0x19B5 DUP3 PUSH2 0x1950 JUMP JUMPDEST PUSH1 0x40 DUP3 ADD SWAP1 POP SWAP2 SWAP1 POP JUMP JUMPDEST PUSH0 PUSH1 0x20 DUP3 ADD SWAP1 POP DUP2 DUP2 SUB PUSH0 DUP4 ADD MSTORE PUSH2 0x19D7 DUP2 PUSH2 0x199E JUMP JUMPDEST SWAP1 POP SWAP2 SWAP1 POP JUMP JUMPDEST PUSH0 DUP2 SWAP1 POP DUP2 PUSH0 MSTORE PUSH1 0x20 PUSH0 KECCAK256 SWAP1 POP SWAP2 SWAP1 POP JUMP JUMPDEST PUSH0 PUSH1 0x20 PUSH1 0x1F DUP4 ADD DIV SWAP1 POP SWAP2 SWAP1 POP JUMP JUMPDEST PUSH0 DUP3 DUP3 SHL SWAP1 POP SWAP3 SWAP2 POP POP JUMP JUMPDEST PUSH0 PUSH1 0x8 DUP4 MUL PUSH2 0x1A3A PUSH32 0xFFFFFFFFFFFFFFFFFFFFFFFFFFFFFFFFFFFFFFFFFFFFFFFFFFFFFFFFFFFFFFFF DUP3 PUSH2 0x19FF JUMP JUMPDEST PUSH2 0x1A44 DUP7 DUP4 PUSH2 0x19FF JUMP JUMPDEST SWAP6 POP DUP1 NOT DUP5 AND SWAP4 POP DUP1 DUP7 AND DUP5 OR SWAP3 POP POP POP SWAP4 SWAP3 POP POP POP JUMP JUMPDEST PUSH0 DUP2 SWAP1 POP SWAP2 SWAP1 POP JUMP JUMPDEST PUSH0 PUSH2 0x1A7F PUSH2 0x1A7A PUSH2 0x1A75 DUP5 PUSH2 0x1508 JUMP JUMPDEST PUSH2 0x1A5C JUMP JUMPDEST PUSH2 0x1508 JUMP JUMPDEST SWAP1 POP SWAP2 SWAP1 POP JUMP JUMPDEST PUSH0 DUP2 SWAP1 POP SWAP2 SWAP1 POP JUMP JUMPDEST PUSH2 0x1A98 DUP4 PUSH2 0x1A65 JUMP JUMPDEST PUSH2 0x1AAC PUSH2 0x1AA4 DUP3 PUSH2 0x1A86 JUMP JUMPDEST DUP5 DUP5 SLOAD PUSH2 0x1A0B JUMP JUMPDEST DUP3 SSTORE POP POP POP POP JUMP JUMPDEST PUSH0 SWAP1 JUMP JUMPDEST PUSH2 0x1AC0 PUSH2 0x1AB4 JUMP JUMPDEST PUSH2 0x1ACB DUP2 DUP5 DUP5 PUSH2 0x1A8F JUMP JUMPDEST POP POP POP JUMP JUMPDEST JUMPDEST DUP2 DUP2 LT ISZERO PUSH2 0x1AEE JUMPI PUSH2 0x1AE3 PUSH0 DUP3 PUSH2 0x1AB8 JUMP JUMPDEST PUSH1 0x1 DUP2 ADD SWAP1 POP PUSH2 0x1AD1 JUMP JUMPDEST POP POP JUMP JUMPDEST PUSH1 0x1F DUP3 GT ISZERO PUSH2 0x1B33 JUMPI PUSH2 0x1B04 DUP2 PUSH2 0x19DE JUMP JUMPDEST PUSH2 0x1B0D DUP5 PUSH2 0x19F0 JUMP JUMPDEST DUP2 ADD PUSH1 0x20 DUP6 LT ISZERO PUSH2 0x1B1C JUMPI DUP2 SWAP1 POP JUMPDEST PUSH2 0x1B30 PUSH2 0x1B28 DUP6 PUSH2 0x19F0 JUMP JUMPDEST DUP4 ADD DUP3 PUSH2 0x1AD0 JUMP JUMPDEST POP POP JUMPDEST POP POP POP JUMP JUMPDEST PUSH0 DUP3 DUP3 SHR SWAP1 POP SWAP3 SWAP2 POP POP JUMP JUMPDEST PUSH0 PUSH2 0x1B53 PUSH0 NOT DUP5 PUSH1 0x8 MUL PUSH2 0x1B38 JUMP JUMPDEST NOT DUP1 DUP4 AND SWAP2 POP POP SWAP3 SWAP2 POP POP JUMP JUMPDEST PUSH0 PUSH2 0x1B6B DUP4 DUP4 PUSH2 0x1B44 JUMP JUMPDEST SWAP2 POP DUP3 PUSH1 0x2 MUL DUP3 OR SWAP1 POP SWAP3 SWAP2 POP POP JUMP JUMPDEST PUSH2 0x1B84 DUP3 PUSH2 0x13F3 JUMP JUMPDEST PUSH8 0xFFFFFFFFFFFFFFFF DUP2 GT ISZERO PUSH2 0x1B9D JUMPI PUSH2 0x1B9C PUSH2 0x1660 JUMP JUMPDEST JUMPDEST PUSH2 0x1BA7 DUP3 SLOAD PUSH2 0x18B8 JUMP JUMPDEST PUSH2 0x1BB2 DUP3 DUP3 DUP6 PUSH2 0x1AF2 JUMP JUMPDEST PUSH0 PUSH1 0x20 SWAP1 POP PUSH1 0x1F DUP4 GT PUSH1 0x1 DUP2 EQ PUSH2 0x1BE3 JUMPI PUSH0 DUP5 ISZERO PUSH2 0x1BD1 JUMPI DUP3 DUP8 ADD MLOAD SWAP1 POP JUMPDEST PUSH2 0x1BDB DUP6 DUP3 PUSH2 0x1B60 JUMP JUMPDEST DUP7 SSTORE POP PUSH2 0x1C42 JUMP JUMPDEST PUSH1 0x1F NOT DUP5 AND PUSH2 0x1BF1 DUP7 PUSH2 0x19DE JUMP JUMPDEST PUSH0 JUMPDEST DUP3 DUP2 LT ISZERO PUSH2 0x1C18 JUMPI DUP5 DUP10 ADD MLOAD DUP3 SSTORE PUSH1 0x1 DUP3 ADD SWAP2 POP PUSH1 0x20 DUP6 ADD SWAP5 POP PUSH1 0x20 DUP2 ADD SWAP1 POP PUSH2 0x1BF3 JUMP JUMPDEST DUP7 DUP4 LT ISZERO PUSH2 0x1C35 JUMPI DUP5 DUP10 ADD MLOAD PUSH2 0x1C31 PUSH1 0x1F DUP10 AND DUP3 PUSH2 0x1B44 JUMP JUMPDEST DUP4 SSTORE POP JUMPDEST PUSH1 0x1 PUSH1 0x2 DUP9 MUL ADD DUP9 SSTORE POP POP POP JUMPDEST POP POP POP POP POP POP JUMP JUMPDEST PUSH32 0x4E487B7100000000000000000000000000000000000000000000000000000000 PUSH0 MSTORE PUSH1 0x11 PUSH1 0x4 MSTORE PUSH1 0x24 PUSH0 REVERT JUMPDEST PUSH0 DUP2 PUSH1 0x1 SHR SWAP1 POP SWAP2 SWAP1 POP JUMP JUMPDEST PUSH0 DUP1 DUP3 SWAP2 POP DUP4 SWAP1 POP JUMPDEST PUSH1 0x1 DUP6 GT ISZERO PUSH2 0x1CCC JUMPI DUP1 DUP7 DIV DUP2 GT ISZERO PUSH2 0x1CA8 JUMPI PUSH2 0x1CA7 PUSH2 0x1C4A JUMP JUMPDEST JUMPDEST PUSH1 0x1 DUP6 AND ISZERO PUSH2 0x1CB7 JUMPI DUP1 DUP3 MUL SWAP2 POP JUMPDEST DUP1 DUP2 MUL SWAP1 POP PUSH2 0x1CC5 DUP6 PUSH2 0x1C77 JUMP JUMPDEST SWAP5 POP PUSH2 0x1C8C JUMP JUMPDEST SWAP5 POP SWAP5 SWAP3 POP POP POP JUMP JUMPDEST PUSH0 DUP3 PUSH2 0x1CE4 JUMPI PUSH1 0x1 SWAP1 POP PUSH2 0x1D9F JUMP JUMPDEST DUP2 PUSH2 0x1CF1 JUMPI PUSH0 SWAP1 POP PUSH2 0x1D9F JUMP JUMPDEST DUP2 PUSH1 0x1 DUP2 EQ PUSH2 0x1D07 JUMPI PUSH1 0x2 DUP2 EQ PUSH2 0x1D11 JUMPI PUSH2 0x1D40 JUMP JUMPDEST PUSH1 0x1 SWAP2 POP POP PUSH2 0x1D9F JUMP JUMPDEST PUSH1 0xFF DUP5 GT ISZERO PUSH2 0x1D23 JUMPI PUSH2 0x1D22 PUSH2 0x1C4A JUMP JUMPDEST JUMPDEST DUP4 PUSH1 0x2 EXP SWAP2 POP DUP5 DUP3 GT ISZERO PUSH2 0x1D3A JUMPI PUSH2 0x1D39 PUSH2 0x1C4A JUMP JUMPDEST JUMPDEST POP PUSH2 0x1D9F JUMP JUMPDEST POP PUSH1 0x20 DUP4 LT PUSH2 0x133 DUP4 LT AND PUSH1 0x4E DUP5 LT PUSH1 0xB DUP5 LT AND OR ISZERO PUSH2 0x1D75 JUMPI DUP3 DUP3 EXP SWAP1 POP DUP4 DUP2 GT ISZERO PUSH2 0x1D70 JUMPI PUSH2 0x1D6F PUSH2 0x1C4A JUMP JUMPDEST JUMPDEST PUSH2 0x1D9F JUMP JUMPDEST PUSH2 0x1D82 DUP5 DUP5 DUP5 PUSH1 0x1 PUSH2 0x1C83 JUMP JUMPDEST SWAP3 POP SWAP1 POP DUP2 DUP5 DIV DUP2 GT ISZERO PUSH2 0x1D99 JUMPI PUSH2 0x1D98 PUSH2 0x1C4A JUMP JUMPDEST JUMPDEST DUP2 DUP2 MUL SWAP1 POP JUMPDEST SWAP4 SWAP3 POP POP POP JUMP JUMPDEST PUSH0 PUSH2 0x1DB0 DUP3 PUSH2 0x1508 JUMP JUMPDEST SWAP2 POP PUSH2 0x1DBB DUP4 PUSH2 0x1624 JUMP JUMPDEST SWAP3 POP PUSH2 0x1DE8 PUSH32 0xFFFFFFFFFFFFFFFFFFFFFFFFFFFFFFFFFFFFFFFFFFFFFFFFFFFFFFFFFFFFFFFF DUP5 DUP5 PUSH2 0x1CD5 JUMP JUMPDEST SWAP1 POP SWAP3 SWAP2 POP POP JUMP JUMPDEST PUSH0 PUSH2 0x1DFA DUP3 PUSH2 0x1508 JUMP JUMPDEST SWAP2 POP PUSH2 0x1E05 DUP4 PUSH2 0x1508 JUMP JUMPDEST SWAP3 POP DUP3 DUP3 MUL PUSH2 0x1E13 DUP2 PUSH2 0x1508 JUMP JUMPDEST SWAP2 POP DUP3 DUP3 DIV DUP5 EQ DUP4 ISZERO OR PUSH2 0x1E2A JUMPI PUSH2 0x1E29 PUSH2 0x1C4A JUMP JUMPDEST JUMPDEST POP SWAP3 SWAP2 POP POP JUMP JUMPDEST PUSH32 0x4E6577206F776E657220697320746865207A65726F2061646472657373000000 PUSH0 DUP3 ADD MSTORE POP JUMP JUMPDEST PUSH0 PUSH2 0x1E65 PUSH1 0x1D DUP4 PUSH2 0x13FD JUMP JUMPDEST SWAP2 POP PUSH2 0x1E70 DUP3 PUSH2 0x1E31 JUMP JUMPDEST PUSH1 0x20 DUP3 ADD SWAP1 POP SWAP2 SWAP1 POP JUMP JUMPDEST PUSH0 PUSH1 0x20 DUP3 ADD SWAP1 POP DUP2 DUP2 SUB PUSH0 DUP4 ADD MSTORE PUSH2 0x1E92 DUP2 PUSH2 0x1E59 JUMP JUMPDEST SWAP1 POP SWAP2 SWAP1 POP JUMP JUMPDEST PUSH0 PUSH1 0x60 DUP3 ADD SWAP1 POP PUSH2 0x1EAC PUSH0 DUP4 ADD DUP7 PUSH2 0x1825 JUMP JUMPDEST PUSH2 0x1EB9 PUSH1 0x20 DUP4 ADD DUP6 PUSH2 0x15AC JUMP JUMPDEST PUSH2 0x1EC6 PUSH1 0x40 DUP4 ADD DUP5 PUSH2 0x15AC JUMP JUMPDEST SWAP5 SWAP4 POP POP POP POP JUMP JUMPDEST PUSH0 PUSH2 0x1ED8 DUP3 PUSH2 0x1508 JUMP JUMPDEST SWAP2 POP PUSH2 0x1EE3 DUP4 PUSH2 0x1508 JUMP JUMPDEST SWAP3 POP DUP3 DUP3 ADD SWAP1 POP DUP1 DUP3 GT ISZERO PUSH2 0x1EFB JUMPI PUSH2 0x1EFA PUSH2 0x1C4A JUMP JUMPDEST JUMPDEST SWAP3 SWAP2 POP POP JUMP JUMPDEST PUSH32 0x5061757361626C653A206E6F7420706175736564000000000000000000000000 PUSH0 DUP3 ADD MSTORE POP JUMP JUMPDEST PUSH0 PUSH2 0x1F35 PUSH1 0x14 DUP4 PUSH2 0x13FD JUMP JUMPDEST SWAP2 POP PUSH2 0x1F40 DUP3 PUSH2 0x1F01 JUMP JUMPDEST PUSH1 0x20 DUP3 ADD SWAP1 POP SWAP2 SWAP1 POP JUMP JUMPDEST PUSH0 PUSH1 0x20 DUP3 ADD SWAP1 POP DUP2 DUP2 SUB PUSH0 DUP4 ADD MSTORE PUSH2 0x1F62 DUP2 PUSH2 0x1F29 JUMP JUMPDEST SWAP1 POP SWAP2 SWAP1 POP JUMP INVALID LOG2 PUSH5 0x6970667358 0x22 SLT KECCAK256 DUP14 0xD5 LOG1 0x27 GASPRICE 0xC5 0xD GAS 0x26 0xE1 0xCC CALL 0xD2 0xE2 0xF8 0xD5 SWAP4 KECCAK256 SIGNEXTEND PUSH31 0xB49C9BE587A86F0975D9CB2864736F6C634300081600330000000000000000 "
				},
				"gasEstimates": {
					"creation": {
						"codeDepositCost": "1619000",
						"executionCost": "1692",
						"totalCost": "1620692"
					},
					"external": {
						"_burn(address,uint256)": "infinite",
						"allowance(address,address)": "infinite",
						"approve(address,uint256)": "infinite",
						"balanceOf(address)": "2874",
						"decimals()": "361",
						"initialize()": "24475",
						"initialize(string,string)": "infinite",
						"mint(address,uint256)": "infinite",
						"name()": "infinite",
						"owner()": "2604",
						"pauseContract()": "30127",
						"paused()": "2584",
						"symbol()": "infinite",
						"totalSupply()": "2500",
						"transfer(address,uint256)": "infinite",
						"transferFrom(address,address,uint256)": "infinite",
						"transferOwnership(address)": "30708",
						"unpauseContract()": "30122"
					},
					"internal": {
						"_approve(address,address,uint256)": "infinite",
						"_approve(address,address,uint256,bool)": "infinite",
						"_mint(address,uint256)": "infinite",
						"_spendAllowance(address,address,uint256)": "infinite",
						"_transfer(address,address,uint256)": "infinite",
						"_update(address,address,uint256)": "infinite"
					}
				},
				"methodIdentifiers": {
					"_burn(address,uint256)": "6161eb18",
					"allowance(address,address)": "dd62ed3e",
					"approve(address,uint256)": "095ea7b3",
					"balanceOf(address)": "70a08231",
					"decimals()": "313ce567",
					"initialize()": "8129fc1c",
					"initialize(string,string)": "4cd88b76",
					"mint(address,uint256)": "40c10f19",
					"name()": "06fdde03",
					"owner()": "8da5cb5b",
					"pauseContract()": "439766ce",
					"paused()": "5c975abb",
					"symbol()": "95d89b41",
					"totalSupply()": "18160ddd",
					"transfer(address,uint256)": "a9059cbb",
					"transferFrom(address,address,uint256)": "23b872dd",
					"transferOwnership(address)": "f2fde38b",
					"unpauseContract()": "b33712c5"
				}
			},
			"storageLayout": {
				"storage": [
					{
						"astId": 583,
						"contract": "contracts/nabla.sol:NABLASYSTEMS",
						"label": "_paused",
						"offset": 0,
						"slot": "0",
						"type": "t_bool"
					},
					{
						"astId": 821,
						"contract": "contracts/nabla.sol:NABLASYSTEMS",
						"label": "_balances",
						"offset": 0,
						"slot": "1",
						"type": "t_mapping(t_address,t_uint256)"
					},
					{
						"astId": 827,
						"contract": "contracts/nabla.sol:NABLASYSTEMS",
						"label": "_allowances",
						"offset": 0,
						"slot": "2",
						"type": "t_mapping(t_address,t_mapping(t_address,t_uint256))"
					},
					{
						"astId": 832,
						"contract": "contracts/nabla.sol:NABLASYSTEMS",
						"label": "_totalSupply",
						"offset": 0,
						"slot": "3",
						"type": "t_uint256"
					},
					{
						"astId": 834,
						"contract": "contracts/nabla.sol:NABLASYSTEMS",
						"label": "_name",
						"offset": 0,
						"slot": "4",
						"type": "t_string_storage"
					},
					{
						"astId": 836,
						"contract": "contracts/nabla.sol:NABLASYSTEMS",
						"label": "_symbol",
						"offset": 0,
						"slot": "5",
						"type": "t_string_storage"
					},
					{
						"astId": 838,
						"contract": "contracts/nabla.sol:NABLASYSTEMS",
						"label": "_owner",
						"offset": 0,
						"slot": "6",
						"type": "t_address"
					}
				],
				"types": {
					"t_address": {
						"encoding": "inplace",
						"label": "address",
						"numberOfBytes": "20"
					},
					"t_bool": {
						"encoding": "inplace",
						"label": "bool",
						"numberOfBytes": "1"
					},
					"t_mapping(t_address,t_mapping(t_address,t_uint256))": {
						"encoding": "mapping",
						"key": "t_address",
						"label": "mapping(address => mapping(address => uint256))",
						"numberOfBytes": "32",
						"value": "t_mapping(t_address,t_uint256)"
					},
					"t_mapping(t_address,t_uint256)": {
						"encoding": "mapping",
						"key": "t_address",
						"label": "mapping(address => uint256)",
						"numberOfBytes": "32",
						"value": "t_uint256"
					},
					"t_string_storage": {
						"encoding": "bytes",
						"label": "string",
						"numberOfBytes": "32"
					},
					"t_uint256": {
						"encoding": "inplace",
						"label": "uint256",
						"numberOfBytes": "32"
					}
				}
			},
			"userdoc": {
				"kind": "user",
				"methods": {},
				"version": 1
			}
		}
	}
}