{
	"contracts/swap_core.sol": {
		"swap_core": {
			"abi": [
				{
					"inputs": [],
					"stateMutability": "nonpayable",
					"type": "constructor"
				},
				{
					"inputs": [],
					"name": "fund",
					"outputs": [],
					"stateMutability": "payable",
					"type": "function"
				},
				{
					"inputs": [],
					"name": "getChainlinkDataFeedLatestAnswer",
					"outputs": [
						{
							"internalType": "int256",
							"name": "",
							"type": "int256"
						}
					],
					"stateMutability": "view",
					"type": "function"
				},
				{
					"inputs": [],
					"name": "getConversationRate",
					"outputs": [],
					"stateMutability": "nonpayable",
					"type": "function"
				},
				{
					"inputs": [],
					"name": "getPrice",
					"outputs": [],
					"stateMutability": "view",
					"type": "function"
				},
				{
					"inputs": [],
					"name": "minimumUsd",
					"outputs": [
						{
							"internalType": "uint256",
							"name": "",
							"type": "uint256"
						}
					],
					"stateMutability": "view",
					"type": "function"
				}
			],
			"devdoc": {
				"kind": "dev",
				"methods": {},
				"version": 1
			},
			"evm": {
				"assembly": "    /* \"contracts/swap_core.sol\":179:1143  contract swap_core {... */\n  mstore(0x40, 0x80)\n    /* \"contracts/swap_core.sol\":551:552  5 */\n  0x05\n    /* \"contracts/swap_core.sol\":523:552  uint256 public minimumUsd = 5 */\n  0x01\n  sstore\n    /* \"contracts/swap_core.sol\":384:517  constructor() {... */\n  callvalue\n  dup1\n  iszero\n  tag_1\n  jumpi\n  revert(0x00, 0x00)\ntag_1:\n  pop\n    /* \"contracts/swap_core.sol\":456:498  0x1b44F3514812d835EB1BDB0acB33d3fA3351Ee43 */\n  0x1b44f3514812d835eb1bdb0acb33d3fa3351ee43\n    /* \"contracts/swap_core.sol\":409:417  dataFeed */\n  0x00\n  0x00\n    /* \"contracts/swap_core.sol\":409:509  dataFeed = AggregatorV3Interface(... */\n  0x0100\n  exp\n  dup2\n  sload\n  dup2\n  0xffffffffffffffffffffffffffffffffffffffff\n  mul\n  not\n  and\n  swap1\n  dup4\n  0xffffffffffffffffffffffffffffffffffffffff\n  and\n  mul\n  or\n  swap1\n  sstore\n  pop\n    /* \"contracts/swap_core.sol\":179:1143  contract swap_core {... */\n  dataSize(sub_0)\n  dup1\n  dataOffset(sub_0)\n  0x00\n  codecopy\n  0x00\n  return\nstop\n\nsub_0: assembly {\n        /* \"contracts/swap_core.sol\":179:1143  contract swap_core {... */\n      mstore(0x40, 0x80)\n      jumpi(tag_1, lt(calldatasize, 0x04))\n      shr(0xe0, calldataload(0x00))\n      dup1\n      0x098de820\n      eq\n      tag_2\n      jumpi\n      dup1\n      0x50ce2420\n      eq\n      tag_3\n      jumpi\n      dup1\n      0x98d5fdca\n      eq\n      tag_4\n      jumpi\n      dup1\n      0xb60d4288\n      eq\n      tag_5\n      jumpi\n      dup1\n      0xbea4dfb5\n      eq\n      tag_6\n      jumpi\n    tag_1:\n      revert(0x00, 0x00)\n        /* \"contracts/swap_core.sol\":523:552  uint256 public minimumUsd = 5 */\n    tag_2:\n      callvalue\n      dup1\n      iszero\n      tag_7\n      jumpi\n      revert(0x00, 0x00)\n    tag_7:\n      pop\n      tag_8\n      tag_9\n      jump\t// in\n    tag_8:\n      mload(0x40)\n      tag_10\n      swap2\n      swap1\n      tag_11\n      jump\t// in\n    tag_10:\n      mload(0x40)\n      dup1\n      swap2\n      sub\n      swap1\n      return\n        /* \"contracts/swap_core.sol\":730:770  function getConversationRate() public {} */\n    tag_3:\n      callvalue\n      dup1\n      iszero\n      tag_12\n      jumpi\n      revert(0x00, 0x00)\n    tag_12:\n      pop\n      tag_13\n      tag_14\n      jump\t// in\n    tag_13:\n      stop\n        /* \"contracts/swap_core.sol\":688:722  function getPrice() public view {} */\n    tag_4:\n      callvalue\n      dup1\n      iszero\n      tag_15\n      jumpi\n      revert(0x00, 0x00)\n    tag_15:\n      pop\n      tag_16\n      tag_17\n      jump\t// in\n    tag_16:\n      stop\n        /* \"contracts/swap_core.sol\":561:682  function fund() public payable {... */\n    tag_5:\n      tag_18\n      tag_19\n      jump\t// in\n    tag_18:\n      stop\n        /* \"contracts/swap_core.sol\":780:1128  function getChainlinkDataFeedLatestAnswer() public view returns (int) {... */\n    tag_6:\n      callvalue\n      dup1\n      iszero\n      tag_20\n      jumpi\n      revert(0x00, 0x00)\n    tag_20:\n      pop\n      tag_21\n      tag_22\n      jump\t// in\n    tag_21:\n      mload(0x40)\n      tag_23\n      swap2\n      swap1\n      tag_24\n      jump\t// in\n    tag_23:\n      mload(0x40)\n      dup1\n      swap2\n      sub\n      swap1\n      return\n        /* \"contracts/swap_core.sol\":523:552  uint256 public minimumUsd = 5 */\n    tag_9:\n      sload(0x01)\n      dup2\n      jump\t// out\n        /* \"contracts/swap_core.sol\":730:770  function getConversationRate() public {} */\n    tag_14:\n      jump\t// out\n        /* \"contracts/swap_core.sol\":688:722  function getPrice() public view {} */\n    tag_17:\n      jump\t// out\n        /* \"contracts/swap_core.sol\":561:682  function fund() public payable {... */\n    tag_19:\n        /* \"contracts/swap_core.sol\":626:636  minimumUsd */\n      sload(0x01)\n        /* \"contracts/swap_core.sol\":613:622  msg.value */\n      callvalue\n        /* \"contracts/swap_core.sol\":613:636  msg.value >= minimumUsd */\n      lt\n      iszero\n        /* \"contracts/swap_core.sol\":605:663  require(msg.value >= minimumUsd, \"didn't send enough ETH\") */\n      tag_28\n      jumpi\n      mload(0x40)\n      0x08c379a000000000000000000000000000000000000000000000000000000000\n      dup2\n      mstore\n      0x04\n      add\n      tag_29\n      swap1\n      tag_30\n      jump\t// in\n    tag_29:\n      mload(0x40)\n      dup1\n      swap2\n      sub\n      swap1\n      revert\n    tag_28:\n        /* \"contracts/swap_core.sol\":561:682  function fund() public payable {... */\n      jump\t// out\n        /* \"contracts/swap_core.sol\":780:1128  function getChainlinkDataFeedLatestAnswer() public view returns (int) {... */\n    tag_22:\n        /* \"contracts/swap_core.sol\":845:848  int */\n      0x00\n        /* \"contracts/swap_core.sol\":939:949  int answer */\n      0x00\n        /* \"contracts/swap_core.sol\":1070:1078  dataFeed */\n      0x00\n      0x00\n      swap1\n      sload\n      swap1\n      0x0100\n      exp\n      swap1\n      div\n      0xffffffffffffffffffffffffffffffffffffffff\n      and\n        /* \"contracts/swap_core.sol\":1070:1094  dataFeed.latestRoundData */\n      0xffffffffffffffffffffffffffffffffffffffff\n      and\n      0xfeaf968c\n        /* \"contracts/swap_core.sol\":1070:1096  dataFeed.latestRoundData() */\n      mload(0x40)\n      dup2\n      0xffffffff\n      and\n      0xe0\n      shl\n      dup2\n      mstore\n      0x04\n      add\n      0xa0\n      mload(0x40)\n      dup1\n      dup4\n      sub\n      dup2\n      dup7\n      gas\n      staticcall\n      iszero\n      dup1\n      iszero\n      tag_33\n      jumpi\n      returndatacopy(0x00, 0x00, returndatasize)\n      revert(0x00, returndatasize)\n    tag_33:\n      pop\n      pop\n      pop\n      pop\n      mload(0x40)\n      returndatasize\n      not(0x1f)\n      0x1f\n      dup3\n      add\n      and\n      dup3\n      add\n      dup1\n      0x40\n      mstore\n      pop\n      dup2\n      add\n      swap1\n      tag_34\n      swap2\n      swap1\n      tag_35\n      jump\t// in\n    tag_34:\n        /* \"contracts/swap_core.sol\":889:1096  (... */\n      pop\n      pop\n      pop\n      swap2\n      pop\n      pop\n        /* \"contracts/swap_core.sol\":1114:1120  answer */\n      dup1\n        /* \"contracts/swap_core.sol\":1107:1120  return answer */\n      swap2\n      pop\n      pop\n        /* \"contracts/swap_core.sol\":780:1128  function getChainlinkDataFeedLatestAnswer() public view returns (int) {... */\n      swap1\n      jump\t// out\n        /* \"#utility.yul\":7:84   */\n    tag_36:\n        /* \"#utility.yul\":44:51   */\n      0x00\n        /* \"#utility.yul\":73:78   */\n      dup2\n        /* \"#utility.yul\":62:78   */\n      swap1\n      pop\n        /* \"#utility.yul\":7:84   */\n      swap2\n      swap1\n      pop\n      jump\t// out\n        /* \"#utility.yul\":90:208   */\n    tag_37:\n        /* \"#utility.yul\":177:201   */\n      tag_56\n        /* \"#utility.yul\":195:200   */\n      dup2\n        /* \"#utility.yul\":177:201   */\n      tag_36\n      jump\t// in\n    tag_56:\n        /* \"#utility.yul\":172:175   */\n      dup3\n        /* \"#utility.yul\":165:202   */\n      mstore\n        /* \"#utility.yul\":90:208   */\n      pop\n      pop\n      jump\t// out\n        /* \"#utility.yul\":214:436   */\n    tag_11:\n        /* \"#utility.yul\":307:311   */\n      0x00\n        /* \"#utility.yul\":345:347   */\n      0x20\n        /* \"#utility.yul\":334:343   */\n      dup3\n        /* \"#utility.yul\":330:348   */\n      add\n        /* \"#utility.yul\":322:348   */\n      swap1\n      pop\n        /* \"#utility.yul\":358:429   */\n      tag_58\n        /* \"#utility.yul\":426:427   */\n      0x00\n        /* \"#utility.yul\":415:424   */\n      dup4\n        /* \"#utility.yul\":411:428   */\n      add\n        /* \"#utility.yul\":402:408   */\n      dup5\n        /* \"#utility.yul\":358:429   */\n      tag_37\n      jump\t// in\n    tag_58:\n        /* \"#utility.yul\":214:436   */\n      swap3\n      swap2\n      pop\n      pop\n      jump\t// out\n        /* \"#utility.yul\":442:518   */\n    tag_38:\n        /* \"#utility.yul\":478:485   */\n      0x00\n        /* \"#utility.yul\":507:512   */\n      dup2\n        /* \"#utility.yul\":496:512   */\n      swap1\n      pop\n        /* \"#utility.yul\":442:518   */\n      swap2\n      swap1\n      pop\n      jump\t// out\n        /* \"#utility.yul\":524:639   */\n    tag_39:\n        /* \"#utility.yul\":609:632   */\n      tag_61\n        /* \"#utility.yul\":626:631   */\n      dup2\n        /* \"#utility.yul\":609:632   */\n      tag_38\n      jump\t// in\n    tag_61:\n        /* \"#utility.yul\":604:607   */\n      dup3\n        /* \"#utility.yul\":597:633   */\n      mstore\n        /* \"#utility.yul\":524:639   */\n      pop\n      pop\n      jump\t// out\n        /* \"#utility.yul\":645:863   */\n    tag_24:\n        /* \"#utility.yul\":736:740   */\n      0x00\n        /* \"#utility.yul\":774:776   */\n      0x20\n        /* \"#utility.yul\":763:772   */\n      dup3\n        /* \"#utility.yul\":759:777   */\n      add\n        /* \"#utility.yul\":751:777   */\n      swap1\n      pop\n        /* \"#utility.yul\":787:856   */\n      tag_63\n        /* \"#utility.yul\":853:854   */\n      0x00\n        /* \"#utility.yul\":842:851   */\n      dup4\n        /* \"#utility.yul\":838:855   */\n      add\n        /* \"#utility.yul\":829:835   */\n      dup5\n        /* \"#utility.yul\":787:856   */\n      tag_39\n      jump\t// in\n    tag_63:\n        /* \"#utility.yul\":645:863   */\n      swap3\n      swap2\n      pop\n      pop\n      jump\t// out\n        /* \"#utility.yul\":869:1038   */\n    tag_40:\n        /* \"#utility.yul\":953:964   */\n      0x00\n        /* \"#utility.yul\":987:993   */\n      dup3\n        /* \"#utility.yul\":982:985   */\n      dup3\n        /* \"#utility.yul\":975:994   */\n      mstore\n        /* \"#utility.yul\":1027:1031   */\n      0x20\n        /* \"#utility.yul\":1022:1025   */\n      dup3\n        /* \"#utility.yul\":1018:1032   */\n      add\n        /* \"#utility.yul\":1003:1032   */\n      swap1\n      pop\n        /* \"#utility.yul\":869:1038   */\n      swap3\n      swap2\n      pop\n      pop\n      jump\t// out\n        /* \"#utility.yul\":1044:1216   */\n    tag_41:\n        /* \"#utility.yul\":1184:1208   */\n      0x6469646e27742073656e6420656e6f7567682045544800000000000000000000\n        /* \"#utility.yul\":1180:1181   */\n      0x00\n        /* \"#utility.yul\":1172:1178   */\n      dup3\n        /* \"#utility.yul\":1168:1182   */\n      add\n        /* \"#utility.yul\":1161:1209   */\n      mstore\n        /* \"#utility.yul\":1044:1216   */\n      pop\n      jump\t// out\n        /* \"#utility.yul\":1222:1588   */\n    tag_42:\n        /* \"#utility.yul\":1364:1367   */\n      0x00\n        /* \"#utility.yul\":1385:1452   */\n      tag_67\n        /* \"#utility.yul\":1449:1451   */\n      0x16\n        /* \"#utility.yul\":1444:1447   */\n      dup4\n        /* \"#utility.yul\":1385:1452   */\n      tag_40\n      jump\t// in\n    tag_67:\n        /* \"#utility.yul\":1378:1452   */\n      swap2\n      pop\n        /* \"#utility.yul\":1461:1554   */\n      tag_68\n        /* \"#utility.yul\":1550:1553   */\n      dup3\n        /* \"#utility.yul\":1461:1554   */\n      tag_41\n      jump\t// in\n    tag_68:\n        /* \"#utility.yul\":1579:1581   */\n      0x20\n        /* \"#utility.yul\":1574:1577   */\n      dup3\n        /* \"#utility.yul\":1570:1582   */\n      add\n        /* \"#utility.yul\":1563:1582   */\n      swap1\n      pop\n        /* \"#utility.yul\":1222:1588   */\n      swap2\n      swap1\n      pop\n      jump\t// out\n        /* \"#utility.yul\":1594:2013   */\n    tag_30:\n        /* \"#utility.yul\":1760:1764   */\n      0x00\n        /* \"#utility.yul\":1798:1800   */\n      0x20\n        /* \"#utility.yul\":1787:1796   */\n      dup3\n        /* \"#utility.yul\":1783:1801   */\n      add\n        /* \"#utility.yul\":1775:1801   */\n      swap1\n      pop\n        /* \"#utility.yul\":1847:1856   */\n      dup2\n        /* \"#utility.yul\":1841:1845   */\n      dup2\n        /* \"#utility.yul\":1837:1857   */\n      sub\n        /* \"#utility.yul\":1833:1834   */\n      0x00\n        /* \"#utility.yul\":1822:1831   */\n      dup4\n        /* \"#utility.yul\":1818:1835   */\n      add\n        /* \"#utility.yul\":1811:1858   */\n      mstore\n        /* \"#utility.yul\":1875:2006   */\n      tag_70\n        /* \"#utility.yul\":2001:2005   */\n      dup2\n        /* \"#utility.yul\":1875:2006   */\n      tag_42\n      jump\t// in\n    tag_70:\n        /* \"#utility.yul\":1867:2006   */\n      swap1\n      pop\n        /* \"#utility.yul\":1594:2013   */\n      swap2\n      swap1\n      pop\n      jump\t// out\n        /* \"#utility.yul\":2100:2217   */\n    tag_44:\n        /* \"#utility.yul\":2209:2210   */\n      0x00\n        /* \"#utility.yul\":2206:2207   */\n      0x00\n        /* \"#utility.yul\":2199:2211   */\n      revert\n        /* \"#utility.yul\":2346:2451   */\n    tag_46:\n        /* \"#utility.yul\":2382:2389   */\n      0x00\n        /* \"#utility.yul\":2422:2444   */\n      0xffffffffffffffffffff\n        /* \"#utility.yul\":2415:2420   */\n      dup3\n        /* \"#utility.yul\":2411:2445   */\n      and\n        /* \"#utility.yul\":2400:2445   */\n      swap1\n      pop\n        /* \"#utility.yul\":2346:2451   */\n      swap2\n      swap1\n      pop\n      jump\t// out\n        /* \"#utility.yul\":2457:2577   */\n    tag_47:\n        /* \"#utility.yul\":2529:2552   */\n      tag_76\n        /* \"#utility.yul\":2546:2551   */\n      dup2\n        /* \"#utility.yul\":2529:2552   */\n      tag_46\n      jump\t// in\n    tag_76:\n        /* \"#utility.yul\":2522:2527   */\n      dup2\n        /* \"#utility.yul\":2519:2553   */\n      eq\n        /* \"#utility.yul\":2509:2571   */\n      tag_77\n      jumpi\n        /* \"#utility.yul\":2567:2568   */\n      0x00\n        /* \"#utility.yul\":2564:2565   */\n      0x00\n        /* \"#utility.yul\":2557:2569   */\n      revert\n        /* \"#utility.yul\":2509:2571   */\n    tag_77:\n        /* \"#utility.yul\":2457:2577   */\n      pop\n      jump\t// out\n        /* \"#utility.yul\":2583:2724   */\n    tag_48:\n        /* \"#utility.yul\":2639:2644   */\n      0x00\n        /* \"#utility.yul\":2670:2676   */\n      dup2\n        /* \"#utility.yul\":2664:2677   */\n      mload\n        /* \"#utility.yul\":2655:2677   */\n      swap1\n      pop\n        /* \"#utility.yul\":2686:2718   */\n      tag_79\n        /* \"#utility.yul\":2712:2717   */\n      dup2\n        /* \"#utility.yul\":2686:2718   */\n      tag_47\n      jump\t// in\n    tag_79:\n        /* \"#utility.yul\":2583:2724   */\n      swap3\n      swap2\n      pop\n      pop\n      jump\t// out\n        /* \"#utility.yul\":2730:2850   */\n    tag_49:\n        /* \"#utility.yul\":2802:2825   */\n      tag_81\n        /* \"#utility.yul\":2819:2824   */\n      dup2\n        /* \"#utility.yul\":2802:2825   */\n      tag_38\n      jump\t// in\n    tag_81:\n        /* \"#utility.yul\":2795:2800   */\n      dup2\n        /* \"#utility.yul\":2792:2826   */\n      eq\n        /* \"#utility.yul\":2782:2844   */\n      tag_82\n      jumpi\n        /* \"#utility.yul\":2840:2841   */\n      0x00\n        /* \"#utility.yul\":2837:2838   */\n      0x00\n        /* \"#utility.yul\":2830:2842   */\n      revert\n        /* \"#utility.yul\":2782:2844   */\n    tag_82:\n        /* \"#utility.yul\":2730:2850   */\n      pop\n      jump\t// out\n        /* \"#utility.yul\":2856:2997   */\n    tag_50:\n        /* \"#utility.yul\":2912:2917   */\n      0x00\n        /* \"#utility.yul\":2943:2949   */\n      dup2\n        /* \"#utility.yul\":2937:2950   */\n      mload\n        /* \"#utility.yul\":2928:2950   */\n      swap1\n      pop\n        /* \"#utility.yul\":2959:2991   */\n      tag_84\n        /* \"#utility.yul\":2985:2990   */\n      dup2\n        /* \"#utility.yul\":2959:2991   */\n      tag_49\n      jump\t// in\n    tag_84:\n        /* \"#utility.yul\":2856:2997   */\n      swap3\n      swap2\n      pop\n      pop\n      jump\t// out\n        /* \"#utility.yul\":3003:3125   */\n    tag_51:\n        /* \"#utility.yul\":3076:3100   */\n      tag_86\n        /* \"#utility.yul\":3094:3099   */\n      dup2\n        /* \"#utility.yul\":3076:3100   */\n      tag_36\n      jump\t// in\n    tag_86:\n        /* \"#utility.yul\":3069:3074   */\n      dup2\n        /* \"#utility.yul\":3066:3101   */\n      eq\n        /* \"#utility.yul\":3056:3119   */\n      tag_87\n      jumpi\n        /* \"#utility.yul\":3115:3116   */\n      0x00\n        /* \"#utility.yul\":3112:3113   */\n      0x00\n        /* \"#utility.yul\":3105:3117   */\n      revert\n        /* \"#utility.yul\":3056:3119   */\n    tag_87:\n        /* \"#utility.yul\":3003:3125   */\n      pop\n      jump\t// out\n        /* \"#utility.yul\":3131:3274   */\n    tag_52:\n        /* \"#utility.yul\":3188:3193   */\n      0x00\n        /* \"#utility.yul\":3219:3225   */\n      dup2\n        /* \"#utility.yul\":3213:3226   */\n      mload\n        /* \"#utility.yul\":3204:3226   */\n      swap1\n      pop\n        /* \"#utility.yul\":3235:3268   */\n      tag_89\n        /* \"#utility.yul\":3262:3267   */\n      dup2\n        /* \"#utility.yul\":3235:3268   */\n      tag_51\n      jump\t// in\n    tag_89:\n        /* \"#utility.yul\":3131:3274   */\n      swap3\n      swap2\n      pop\n      pop\n      jump\t// out\n        /* \"#utility.yul\":3280:4251   */\n    tag_35:\n        /* \"#utility.yul\":3383:3389   */\n      0x00\n        /* \"#utility.yul\":3391:3397   */\n      0x00\n        /* \"#utility.yul\":3399:3405   */\n      0x00\n        /* \"#utility.yul\":3407:3413   */\n      0x00\n        /* \"#utility.yul\":3415:3421   */\n      0x00\n        /* \"#utility.yul\":3464:3467   */\n      0xa0\n        /* \"#utility.yul\":3452:3461   */\n      dup7\n        /* \"#utility.yul\":3443:3450   */\n      dup9\n        /* \"#utility.yul\":3439:3462   */\n      sub\n        /* \"#utility.yul\":3435:3468   */\n      slt\n        /* \"#utility.yul\":3432:3552   */\n      iszero\n      tag_91\n      jumpi\n        /* \"#utility.yul\":3471:3550   */\n      tag_92\n      tag_44\n      jump\t// in\n    tag_92:\n        /* \"#utility.yul\":3432:3552   */\n    tag_91:\n        /* \"#utility.yul\":3591:3592   */\n      0x00\n        /* \"#utility.yul\":3616:3679   */\n      tag_93\n        /* \"#utility.yul\":3671:3678   */\n      dup9\n        /* \"#utility.yul\":3662:3668   */\n      dup3\n        /* \"#utility.yul\":3651:3660   */\n      dup10\n        /* \"#utility.yul\":3647:3669   */\n      add\n        /* \"#utility.yul\":3616:3679   */\n      tag_48\n      jump\t// in\n    tag_93:\n        /* \"#utility.yul\":3606:3679   */\n      swap6\n      pop\n        /* \"#utility.yul\":3562:3689   */\n      pop\n        /* \"#utility.yul\":3728:3730   */\n      0x20\n        /* \"#utility.yul\":3754:3817   */\n      tag_94\n        /* \"#utility.yul\":3809:3816   */\n      dup9\n        /* \"#utility.yul\":3800:3806   */\n      dup3\n        /* \"#utility.yul\":3789:3798   */\n      dup10\n        /* \"#utility.yul\":3785:3807   */\n      add\n        /* \"#utility.yul\":3754:3817   */\n      tag_50\n      jump\t// in\n    tag_94:\n        /* \"#utility.yul\":3744:3817   */\n      swap5\n      pop\n        /* \"#utility.yul\":3699:3827   */\n      pop\n        /* \"#utility.yul\":3866:3868   */\n      0x40\n        /* \"#utility.yul\":3892:3956   */\n      tag_95\n        /* \"#utility.yul\":3948:3955   */\n      dup9\n        /* \"#utility.yul\":3939:3945   */\n      dup3\n        /* \"#utility.yul\":3928:3937   */\n      dup10\n        /* \"#utility.yul\":3924:3946   */\n      add\n        /* \"#utility.yul\":3892:3956   */\n      tag_52\n      jump\t// in\n    tag_95:\n        /* \"#utility.yul\":3882:3956   */\n      swap4\n      pop\n        /* \"#utility.yul\":3837:3966   */\n      pop\n        /* \"#utility.yul\":4005:4007   */\n      0x60\n        /* \"#utility.yul\":4031:4095   */\n      tag_96\n        /* \"#utility.yul\":4087:4094   */\n      dup9\n        /* \"#utility.yul\":4078:4084   */\n      dup3\n        /* \"#utility.yul\":4067:4076   */\n      dup10\n        /* \"#utility.yul\":4063:4085   */\n      add\n        /* \"#utility.yul\":4031:4095   */\n      tag_52\n      jump\t// in\n    tag_96:\n        /* \"#utility.yul\":4021:4095   */\n      swap3\n      pop\n        /* \"#utility.yul\":3976:4105   */\n      pop\n        /* \"#utility.yul\":4144:4147   */\n      0x80\n        /* \"#utility.yul\":4171:4234   */\n      tag_97\n        /* \"#utility.yul\":4226:4233   */\n      dup9\n        /* \"#utility.yul\":4217:4223   */\n      dup3\n        /* \"#utility.yul\":4206:4215   */\n      dup10\n        /* \"#utility.yul\":4202:4224   */\n      add\n        /* \"#utility.yul\":4171:4234   */\n      tag_48\n      jump\t// in\n    tag_97:\n        /* \"#utility.yul\":4161:4234   */\n      swap2\n      pop\n        /* \"#utility.yul\":4115:4244   */\n      pop\n        /* \"#utility.yul\":3280:4251   */\n      swap3\n      swap6\n      pop\n      swap3\n      swap6\n      swap1\n      swap4\n      pop\n      jump\t// out\n\n    auxdata: 0xa2646970667358221220678a230d70828648944cd7f2a57ce159153abf459d4a410a0bf2ed69c35a6e4764736f6c634300081c0033\n}\n",
				"bytecode": {
					"linkReferences": {},
					"object": "608060405260056001553480156013575f5ffd5b50731b44f3514812d835eb1bdb0acb33d3fa3351ee435f5f6101000a81548173ffffffffffffffffffffffffffffffffffffffff021916908373ffffffffffffffffffffffffffffffffffffffff1602179055506103e2806100745f395ff3fe608060405260043610610049575f3560e01c8063098de8201461004d57806350ce24201461007757806398d5fdca1461008d578063b60d4288146100a3578063bea4dfb5146100ad575b5f5ffd5b348015610058575f5ffd5b506100616100d7565b60405161006e91906101dc565b60405180910390f35b348015610082575f5ffd5b5061008b6100dd565b005b348015610098575f5ffd5b506100a16100df565b005b6100ab6100e1565b005b3480156100b8575f5ffd5b506100c1610128565b6040516100ce919061020d565b60405180910390f35b60015481565b565b565b600154341015610126576040517f08c379a000000000000000000000000000000000000000000000000000000000815260040161011d90610280565b60405180910390fd5b565b5f5f5f5f9054906101000a900473ffffffffffffffffffffffffffffffffffffffff1673ffffffffffffffffffffffffffffffffffffffff1663feaf968c6040518163ffffffff1660e01b815260040160a060405180830381865afa158015610193573d5f5f3e3d5ffd5b505050506040513d601f19601f820116820180604052508101906101b79190610335565b5050509150508091505090565b5f819050919050565b6101d6816101c4565b82525050565b5f6020820190506101ef5f8301846101cd565b92915050565b5f819050919050565b610207816101f5565b82525050565b5f6020820190506102205f8301846101fe565b92915050565b5f82825260208201905092915050565b7f6469646e27742073656e6420656e6f75676820455448000000000000000000005f82015250565b5f61026a601683610226565b915061027582610236565b602082019050919050565b5f6020820190508181035f8301526102978161025e565b9050919050565b5f5ffd5b5f69ffffffffffffffffffff82169050919050565b6102c0816102a2565b81146102ca575f5ffd5b50565b5f815190506102db816102b7565b92915050565b6102ea816101f5565b81146102f4575f5ffd5b50565b5f81519050610305816102e1565b92915050565b610314816101c4565b811461031e575f5ffd5b50565b5f8151905061032f8161030b565b92915050565b5f5f5f5f5f60a0868803121561034e5761034d61029e565b5b5f61035b888289016102cd565b955050602061036c888289016102f7565b945050604061037d88828901610321565b935050606061038e88828901610321565b925050608061039f888289016102cd565b915050929550929590935056fea2646970667358221220678a230d70828648944cd7f2a57ce159153abf459d4a410a0bf2ed69c35a6e4764736f6c634300081c0033",
					"opcodes": "PUSH1 0x80 PUSH1 0x40 MSTORE PUSH1 0x5 PUSH1 0x1 SSTORE CALLVALUE DUP1 ISZERO PUSH1 0x13 JUMPI PUSH0 PUSH0 REVERT JUMPDEST POP PUSH20 0x1B44F3514812D835EB1BDB0ACB33D3FA3351EE43 PUSH0 PUSH0 PUSH2 0x100 EXP DUP2 SLOAD DUP2 PUSH20 0xFFFFFFFFFFFFFFFFFFFFFFFFFFFFFFFFFFFFFFFF MUL NOT AND SWAP1 DUP4 PUSH20 0xFFFFFFFFFFFFFFFFFFFFFFFFFFFFFFFFFFFFFFFF AND MUL OR SWAP1 SSTORE POP PUSH2 0x3E2 DUP1 PUSH2 0x74 PUSH0 CODECOPY PUSH0 RETURN INVALID PUSH1 0x80 PUSH1 0x40 MSTORE PUSH1 0x4 CALLDATASIZE LT PUSH2 0x49 JUMPI PUSH0 CALLDATALOAD PUSH1 0xE0 SHR DUP1 PUSH4 0x98DE820 EQ PUSH2 0x4D JUMPI DUP1 PUSH4 0x50CE2420 EQ PUSH2 0x77 JUMPI DUP1 PUSH4 0x98D5FDCA EQ PUSH2 0x8D JUMPI DUP1 PUSH4 0xB60D4288 EQ PUSH2 0xA3 JUMPI DUP1 PUSH4 0xBEA4DFB5 EQ PUSH2 0xAD JUMPI JUMPDEST PUSH0 PUSH0 REVERT JUMPDEST CALLVALUE DUP1 ISZERO PUSH2 0x58 JUMPI PUSH0 PUSH0 REVERT JUMPDEST POP PUSH2 0x61 PUSH2 0xD7 JUMP JUMPDEST PUSH1 0x40 MLOAD PUSH2 0x6E SWAP2 SWAP1 PUSH2 0x1DC JUMP JUMPDEST PUSH1 0x40 MLOAD DUP1 SWAP2 SUB SWAP1 RETURN JUMPDEST CALLVALUE DUP1 ISZERO PUSH2 0x82 JUMPI PUSH0 PUSH0 REVERT JUMPDEST POP PUSH2 0x8B PUSH2 0xDD JUMP JUMPDEST STOP JUMPDEST CALLVALUE DUP1 ISZERO PUSH2 0x98 JUMPI PUSH0 PUSH0 REVERT JUMPDEST POP PUSH2 0xA1 PUSH2 0xDF JUMP JUMPDEST STOP JUMPDEST PUSH2 0xAB PUSH2 0xE1 JUMP JUMPDEST STOP JUMPDEST CALLVALUE DUP1 ISZERO PUSH2 0xB8 JUMPI PUSH0 PUSH0 REVERT JUMPDEST POP PUSH2 0xC1 PUSH2 0x128 JUMP JUMPDEST PUSH1 0x40 MLOAD PUSH2 0xCE SWAP2 SWAP1 PUSH2 0x20D JUMP JUMPDEST PUSH1 0x40 MLOAD DUP1 SWAP2 SUB SWAP1 RETURN JUMPDEST PUSH1 0x1 SLOAD DUP2 JUMP JUMPDEST JUMP JUMPDEST JUMP JUMPDEST PUSH1 0x1 SLOAD CALLVALUE LT ISZERO PUSH2 0x126 JUMPI PUSH1 0x40 MLOAD PUSH32 0x8C379A000000000000000000000000000000000000000000000000000000000 DUP2 MSTORE PUSH1 0x4 ADD PUSH2 0x11D SWAP1 PUSH2 0x280 JUMP JUMPDEST PUSH1 0x40 MLOAD DUP1 SWAP2 SUB SWAP1 REVERT JUMPDEST JUMP JUMPDEST PUSH0 PUSH0 PUSH0 PUSH0 SWAP1 SLOAD SWAP1 PUSH2 0x100 EXP SWAP1 DIV PUSH20 0xFFFFFFFFFFFFFFFFFFFFFFFFFFFFFFFFFFFFFFFF AND PUSH20 0xFFFFFFFFFFFFFFFFFFFFFFFFFFFFFFFFFFFFFFFF AND PUSH4 0xFEAF968C PUSH1 0x40 MLOAD DUP2 PUSH4 0xFFFFFFFF AND PUSH1 0xE0 SHL DUP2 MSTORE PUSH1 0x4 ADD PUSH1 0xA0 PUSH1 0x40 MLOAD DUP1 DUP4 SUB DUP2 DUP7 GAS STATICCALL ISZERO DUP1 ISZERO PUSH2 0x193 JUMPI RETURNDATASIZE PUSH0 PUSH0 RETURNDATACOPY RETURNDATASIZE PUSH0 REVERT JUMPDEST POP POP POP POP PUSH1 0x40 MLOAD RETURNDATASIZE PUSH1 0x1F NOT PUSH1 0x1F DUP3 ADD AND DUP3 ADD DUP1 PUSH1 0x40 MSTORE POP DUP2 ADD SWAP1 PUSH2 0x1B7 SWAP2 SWAP1 PUSH2 0x335 JUMP JUMPDEST POP POP POP SWAP2 POP POP DUP1 SWAP2 POP POP SWAP1 JUMP JUMPDEST PUSH0 DUP2 SWAP1 POP SWAP2 SWAP1 POP JUMP JUMPDEST PUSH2 0x1D6 DUP2 PUSH2 0x1C4 JUMP JUMPDEST DUP3 MSTORE POP POP JUMP JUMPDEST PUSH0 PUSH1 0x20 DUP3 ADD SWAP1 POP PUSH2 0x1EF PUSH0 DUP4 ADD DUP5 PUSH2 0x1CD JUMP JUMPDEST SWAP3 SWAP2 POP POP JUMP JUMPDEST PUSH0 DUP2 SWAP1 POP SWAP2 SWAP1 POP JUMP JUMPDEST PUSH2 0x207 DUP2 PUSH2 0x1F5 JUMP JUMPDEST DUP3 MSTORE POP POP JUMP JUMPDEST PUSH0 PUSH1 0x20 DUP3 ADD SWAP1 POP PUSH2 0x220 PUSH0 DUP4 ADD DUP5 PUSH2 0x1FE JUMP JUMPDEST SWAP3 SWAP2 POP POP JUMP JUMPDEST PUSH0 DUP3 DUP3 MSTORE PUSH1 0x20 DUP3 ADD SWAP1 POP SWAP3 SWAP2 POP POP JUMP JUMPDEST PUSH32 0x6469646E27742073656E6420656E6F7567682045544800000000000000000000 PUSH0 DUP3 ADD MSTORE POP JUMP JUMPDEST PUSH0 PUSH2 0x26A PUSH1 0x16 DUP4 PUSH2 0x226 JUMP JUMPDEST SWAP2 POP PUSH2 0x275 DUP3 PUSH2 0x236 JUMP JUMPDEST PUSH1 0x20 DUP3 ADD SWAP1 POP SWAP2 SWAP1 POP JUMP JUMPDEST PUSH0 PUSH1 0x20 DUP3 ADD SWAP1 POP DUP2 DUP2 SUB PUSH0 DUP4 ADD MSTORE PUSH2 0x297 DUP2 PUSH2 0x25E JUMP JUMPDEST SWAP1 POP SWAP2 SWAP1 POP JUMP JUMPDEST PUSH0 PUSH0 REVERT JUMPDEST PUSH0 PUSH10 0xFFFFFFFFFFFFFFFFFFFF DUP3 AND SWAP1 POP SWAP2 SWAP1 POP JUMP JUMPDEST PUSH2 0x2C0 DUP2 PUSH2 0x2A2 JUMP JUMPDEST DUP2 EQ PUSH2 0x2CA JUMPI PUSH0 PUSH0 REVERT JUMPDEST POP JUMP JUMPDEST PUSH0 DUP2 MLOAD SWAP1 POP PUSH2 0x2DB DUP2 PUSH2 0x2B7 JUMP JUMPDEST SWAP3 SWAP2 POP POP JUMP JUMPDEST PUSH2 0x2EA DUP2 PUSH2 0x1F5 JUMP JUMPDEST DUP2 EQ PUSH2 0x2F4 JUMPI PUSH0 PUSH0 REVERT JUMPDEST POP JUMP JUMPDEST PUSH0 DUP2 MLOAD SWAP1 POP PUSH2 0x305 DUP2 PUSH2 0x2E1 JUMP JUMPDEST SWAP3 SWAP2 POP POP JUMP JUMPDEST PUSH2 0x314 DUP2 PUSH2 0x1C4 JUMP JUMPDEST DUP2 EQ PUSH2 0x31E JUMPI PUSH0 PUSH0 REVERT JUMPDEST POP JUMP JUMPDEST PUSH0 DUP2 MLOAD SWAP1 POP PUSH2 0x32F DUP2 PUSH2 0x30B JUMP JUMPDEST SWAP3 SWAP2 POP POP JUMP JUMPDEST PUSH0 PUSH0 PUSH0 PUSH0 PUSH0 PUSH1 0xA0 DUP7 DUP9 SUB SLT ISZERO PUSH2 0x34E JUMPI PUSH2 0x34D PUSH2 0x29E JUMP JUMPDEST JUMPDEST PUSH0 PUSH2 0x35B DUP9 DUP3 DUP10 ADD PUSH2 0x2CD JUMP JUMPDEST SWAP6 POP POP PUSH1 0x20 PUSH2 0x36C DUP9 DUP3 DUP10 ADD PUSH2 0x2F7 JUMP JUMPDEST SWAP5 POP POP PUSH1 0x40 PUSH2 0x37D DUP9 DUP3 DUP10 ADD PUSH2 0x321 JUMP JUMPDEST SWAP4 POP POP PUSH1 0x60 PUSH2 0x38E DUP9 DUP3 DUP10 ADD PUSH2 0x321 JUMP JUMPDEST SWAP3 POP POP PUSH1 0x80 PUSH2 0x39F DUP9 DUP3 DUP10 ADD PUSH2 0x2CD JUMP JUMPDEST SWAP2 POP POP SWAP3 SWAP6 POP SWAP3 SWAP6 SWAP1 SWAP4 POP JUMP INVALID LOG2 PUSH5 0x6970667358 0x22 SLT KECCAK256 PUSH8 0x8A230D7082864894 0x4C 0xD7 CALLCODE 0xA5 PUSH29 0xE159153ABF459D4A410A0BF2ED69C35A6E4764736F6C634300081C0033 "
				},
				"gasEstimates": {
					"creation": {
						"codeDepositCost": "198800",
						"executionCost": "46614",
						"totalCost": "245414"
					},
					"external": {
						"fund()": "2572",
						"getChainlinkDataFeedLatestAnswer()": "infinite",
						"getConversationRate()": "143",
						"getPrice()": "165",
						"minimumUsd()": "2403"
					}
				},
				"methodIdentifiers": {
					"fund()": "b60d4288",
					"getChainlinkDataFeedLatestAnswer()": "bea4dfb5",
					"getConversationRate()": "50ce2420",
					"getPrice()": "98d5fdca",
					"minimumUsd()": "098de820"
				}
			},
			"storageLayout": {
				"storage": [
					{
						"astId": 52,
						"contract": "contracts/swap_core.sol:swap_core",
						"label": "dataFeed",
						"offset": 0,
						"slot": "0",
						"type": "t_contract(AggregatorV3Interface)45"
					},
					{
						"astId": 66,
						"contract": "contracts/swap_core.sol:swap_core",
						"label": "minimumUsd",
						"offset": 0,
						"slot": "1",
						"type": "t_uint256"
					}
				],
				"types": {
					"t_contract(AggregatorV3Interface)45": {
						"encoding": "inplace",
						"label": "contract AggregatorV3Interface",
						"numberOfBytes": "20"
					},
					"t_uint256": {
						"encoding": "inplace",
						"label": "uint256",
						"numberOfBytes": "32"
					}
				}
			},
			"userdoc": {
				"kind": "user",
				"methods": {
					"constructor": {
						"notice": "Network: Sepolia Aggregator: BTC/USD Address: 0x1b44F3514812d835EB1BDB0acB33d3fA3351Ee43"
					}
				},
				"version": 1
			}
		}
	}
}