{
	"data": {
		"bytecode": {
			"linkReferences": {},
			"object": "6060604052341561000f57600080fd5b6101f48061001e6000396000f300606060405260043610610041576000357c0100000000000000000000000000000000000000000000000000000000900463ffffffff168063b491fd3414610046575b600080fd5b341561005157600080fd5b610089600480803573ffffffffffffffffffffffffffffffffffffffff1690602001909190803560ff169060200190919050506100cb565b604051808273ffffffffffffffffffffffffffffffffffffffff1673ffffffffffffffffffffffffffffffffffffffff16815260200191505060405180910390f35b6000607f8260ff161015156100df57600080fd5b60d660948484604051808560ff167f01000000000000000000000000000000000000000000000000000000000000000281526001018460ff167f01000000000000000000000000000000000000000000000000000000000000000281526001018373ffffffffffffffffffffffffffffffffffffffff1673ffffffffffffffffffffffffffffffffffffffff166c010000000000000000000000000281526014018260ff1660ff167f01000000000000000000000000000000000000000000000000000000000000000281526001019450505050506040518091039020600190049050929150505600a165627a7a72305820f3ed47e246f2e59315a1840a7c7da7b792f7320aa69c53ba829c927d38a67cba0029",
			"opcodes": "PUSH1 0x60 PUSH1 0x40 MSTORE CALLVALUE ISZERO PUSH2 0xF JUMPI PUSH1 0x0 DUP1 REVERT JUMPDEST PUSH2 0x1F4 DUP1 PUSH2 0x1E PUSH1 0x0 CODECOPY PUSH1 0x0 RETURN STOP PUSH1 0x60 PUSH1 0x40 MSTORE PUSH1 0x4 CALLDATASIZE LT PUSH2 0x41 JUMPI PUSH1 0x0 CALLDATALOAD PUSH29 0x100000000000000000000000000000000000000000000000000000000 SWAP1 DIV PUSH4 0xFFFFFFFF AND DUP1 PUSH4 0xB491FD34 EQ PUSH2 0x46 JUMPI JUMPDEST PUSH1 0x0 DUP1 REVERT JUMPDEST CALLVALUE ISZERO PUSH2 0x51 JUMPI PUSH1 0x0 DUP1 REVERT JUMPDEST PUSH2 0x89 PUSH1 0x4 DUP1 DUP1 CALLDATALOAD PUSH20 0xFFFFFFFFFFFFFFFFFFFFFFFFFFFFFFFFFFFFFFFF AND SWAP1 PUSH1 0x20 ADD SWAP1 SWAP2 SWAP1 DUP1 CALLDATALOAD PUSH1 0xFF AND SWAP1 PUSH1 0x20 ADD SWAP1 SWAP2 SWAP1 POP POP PUSH2 0xCB JUMP JUMPDEST PUSH1 0x40 MLOAD DUP1 DUP3 PUSH20 0xFFFFFFFFFFFFFFFFFFFFFFFFFFFFFFFFFFFFFFFF AND PUSH20 0xFFFFFFFFFFFFFFFFFFFFFFFFFFFFFFFFFFFFFFFF AND DUP2 MSTORE PUSH1 0x20 ADD SWAP2 POP POP PUSH1 0x40 MLOAD DUP1 SWAP2 SUB SWAP1 RETURN JUMPDEST PUSH1 0x0 PUSH1 0x7F DUP3 PUSH1 0xFF AND LT ISZERO ISZERO PUSH2 0xDF JUMPI PUSH1 0x0 DUP1 REVERT JUMPDEST PUSH1 0xD6 PUSH1 0x94 DUP5 DUP5 PUSH1 0x40 MLOAD DUP1 DUP6 PUSH1 0xFF AND PUSH32 0x100000000000000000000000000000000000000000000000000000000000000 MUL DUP2 MSTORE PUSH1 0x1 ADD DUP5 PUSH1 0xFF AND PUSH32 0x100000000000000000000000000000000000000000000000000000000000000 MUL DUP2 MSTORE PUSH1 0x1 ADD DUP4 PUSH20 0xFFFFFFFFFFFFFFFFFFFFFFFFFFFFFFFFFFFFFFFF AND PUSH20 0xFFFFFFFFFFFFFFFFFFFFFFFFFFFFFFFFFFFFFFFF AND PUSH13 0x1000000000000000000000000 MUL DUP2 MSTORE PUSH1 0x14 ADD DUP3 PUSH1 0xFF AND PUSH1 0xFF AND PUSH32 0x100000000000000000000000000000000000000000000000000000000000000 MUL DUP2 MSTORE PUSH1 0x1 ADD SWAP5 POP POP POP POP POP PUSH1 0x40 MLOAD DUP1 SWAP2 SUB SWAP1 KECCAK256 PUSH1 0x1 SWAP1 DIV SWAP1 POP SWAP3 SWAP2 POP POP JUMP STOP LOG1 PUSH6 0x627A7A723058 KECCAK256 RETURN 0xed 0x47 0xe2 0x46 CALLCODE 0xe5 SWAP4 ISZERO LOG1 DUP5 EXP PUSH29 0x7DA7B792F7320AA69C53BA829C927D38A67CBA00290000000000000000 "
		},
		"gasEstimates": {
			"creation": {
				"codeDepositCost": "100000",
				"executionCost": "142",
				"totalCost": "100142"
			},
			"external": {
				"calculateAddressForNonce(address,uint8)": "545"
			}
		},
		"methodIdentifiers": {
			"calculateAddressForNonce(address,uint8)": "b491fd34"
		}
	},
	"abi": [
		{
			"constant": true,
			"inputs": [
				{
					"name": "_creator",
					"type": "address"
				},
				{
					"name": "_nonce",
					"type": "uint8"
				}
			],
			"name": "calculateAddressForNonce",
			"outputs": [
				{
					"name": "",
					"type": "address"
				}
			],
			"payable": false,
			"stateMutability": "view",
			"type": "function"
		}
	]
}